{
  "contractName": "FLoan",
  "abi": [
    {
      "inputs": [
        {
          "internalType": "address",
          "name": "stake",
          "type": "address"
        },
        {
          "internalType": "address",
          "name": "_usdt",
          "type": "address"
        }
      ],
      "stateMutability": "nonpayable",
      "type": "constructor"
    },
    {
      "anonymous": false,
      "inputs": [
        {
          "indexed": false,
          "internalType": "string",
          "name": "message",
          "type": "string"
        },
        {
          "indexed": false,
          "internalType": "uint256",
          "name": "val",
          "type": "uint256"
        }
      ],
      "name": "log",
      "type": "event"
    },
    {
      "inputs": [
        {
          "internalType": "uint256",
          "name": "amount",
          "type": "uint256"
        }
      ],
      "name": "initStateLoan",
      "outputs": [],
      "stateMutability": "nonpayable",
      "type": "function"
    },
    {
      "inputs": [
        {
          "internalType": "address",
          "name": "sender",
          "type": "address"
        },
        {
          "internalType": "uint256",
          "name": "amount0",
          "type": "uint256"
        },
        {
          "internalType": "bytes",
          "name": "data",
          "type": "bytes"
        }
      ],
      "name": "iUnstake",
      "outputs": [],
      "stateMutability": "nonpayable",
      "type": "function"
    }
  ],
  "bytecode": "0x608060405234801561001057600080fd5b50604051610ae3380380610ae3833981810160405281019061003291906100cf565b816000806101000a81548173ffffffffffffffffffffffffffffffffffffffff021916908373ffffffffffffffffffffffffffffffffffffffff16021790555080600160006101000a81548173ffffffffffffffffffffffffffffffffffffffff021916908373ffffffffffffffffffffffffffffffffffffffff1602179055505050610154565b6000815190506100c98161013d565b92915050565b600080604083850312156100e257600080fd5b60006100f0858286016100ba565b9250506020610101858286016100ba565b9150509250929050565b60006101168261011d565b9050919050565b600073ffffffffffffffffffffffffffffffffffffffff82169050919050565b6101468161010b565b811461015157600080fd5b50565b610980806101636000396000f3fe608060405234801561001057600080fd5b50600436106100365760003560e01c806378b305341461003b578063d97d2b5d14610057575b600080fd5b610055600480360381019061005091906104a7565b610073565b005b610071600480360381019061006c919061053c565b610257565b005b60006801a055690d9db800009050600061009682866103f390919063ffffffff16565b90506000600160009054906101000a900473ffffffffffffffffffffffffffffffffffffffff1673ffffffffffffffffffffffffffffffffffffffff166370a08231306040518263ffffffff1660e01b81526004016100f5919061064e565b60206040518083038186803b15801561010d57600080fd5b505afa158015610121573d6000803e3d6000fd5b505050506040513d601f19601f820116820180604052508101906101459190610565565b90507fb60e72ccf6d57ab53eb84d7e94a9545806ed7f93c4d5673f11a64f03471e584e8160405161017691906106c0565b60405180910390a1600160009054906101000a900473ffffffffffffffffffffffffffffffffffffffff1673ffffffffffffffffffffffffffffffffffffffff1663a9059cbb60008054906101000a900473ffffffffffffffffffffffffffffffffffffffff16846040518363ffffffff1660e01b81526004016101fb929190610669565b602060405180830381600087803b15801561021557600080fd5b505af1158015610229573d6000803e3d6000fd5b505050506040513d601f19601f8201168201806040525081019061024d9190610513565b5050505050505050565b6000604051602001610268906106ee565b60405160208183030381529060405290506000600160009054906101000a900473ffffffffffffffffffffffffffffffffffffffff1673ffffffffffffffffffffffffffffffffffffffff166370a08231306040518263ffffffff1660e01b81526004016102d6919061064e565b60206040518083038186803b1580156102ee57600080fd5b505afa158015610302573d6000803e3d6000fd5b505050506040513d601f19601f820116820180604052508101906103269190610565565b90507fb60e72ccf6d57ab53eb84d7e94a9545806ed7f93c4d5673f11a64f03471e584e816040516103579190610692565b60405180910390a160008054906101000a900473ffffffffffffffffffffffffffffffffffffffff1673ffffffffffffffffffffffffffffffffffffffff1663b2670c078430856040518463ffffffff1660e01b81526004016103bc9392919061070e565b600060405180830381600087803b1580156103d657600080fd5b505af11580156103ea573d6000803e3d6000fd5b50505050505050565b600081836104019190610779565b905092915050565b60008135905061041881610905565b92915050565b60008151905061042d8161091c565b92915050565b60008083601f84011261044557600080fd5b8235905067ffffffffffffffff81111561045e57600080fd5b60208301915083600182028301111561047657600080fd5b9250929050565b60008135905061048c81610933565b92915050565b6000815190506104a181610933565b92915050565b600080600080606085870312156104bd57600080fd5b60006104cb87828801610409565b94505060206104dc8782880161047d565b935050604085013567ffffffffffffffff8111156104f957600080fd5b61050587828801610433565b925092505092959194509250565b60006020828403121561052557600080fd5b60006105338482850161041e565b91505092915050565b60006020828403121561054e57600080fd5b600061055c8482850161047d565b91505092915050565b60006020828403121561057757600080fd5b600061058584828501610492565b91505092915050565b610597816107cf565b82525050565b60006105a88261074c565b6105b28185610757565b93506105c2818560208601610817565b6105cb81610879565b840191505092915050565b60006105e3600f83610768565b91506105ee8261088a565b602082019050919050565b6000610606600c83610768565b9150610611826108b3565b602082019050919050565b6000610629600b83610768565b9150610634826108dc565b602082019050919050565b6106488161080d565b82525050565b6000602082019050610663600083018461058e565b92915050565b600060408201905061067e600083018561058e565b61068b602083018461063f565b9392505050565b600060408201905081810360008301526106ab816105d6565b90506106ba602083018461063f565b92915050565b600060408201905081810360008301526106d9816105f9565b90506106e8602083018461063f565b92915050565b600060208201905081810360008301526107078161061c565b9050919050565b6000606082019050610723600083018661063f565b610730602083018561058e565b8181036040830152610742818461059d565b9050949350505050565b600081519050919050565b600082825260208201905092915050565b600082825260208201905092915050565b60006107848261080d565b915061078f8361080d565b9250827fffffffffffffffffffffffffffffffffffffffffffffffffffffffffffffffff038211156107c4576107c361084a565b5b828201905092915050565b60006107da826107ed565b9050919050565b60008115159050919050565b600073ffffffffffffffffffffffffffffffffffffffff82169050919050565b6000819050919050565b60005b8381101561083557808201518184015260208101905061081a565b83811115610844576000848401525b50505050565b7f4e487b7100000000000000000000000000000000000000000000000000000000600052601160045260246000fd5b6000601f19601f8301169050919050565b7f546f6b656e20416d6f756e742042340000000000000000000000000000000000600082015250565b7f546f6b656e20416d6f756e740000000000000000000000000000000000000000600082015250565b7f4361736820506c65617365000000000000000000000000000000000000000000600082015250565b61090e816107cf565b811461091957600080fd5b50565b610925816107e1565b811461093057600080fd5b50565b61093c8161080d565b811461094757600080fd5b5056fea2646970667358221220c94671f808792e06448a0ea95c8e3c9a5162933ed951a5de0d0eedfbd612f7f764736f6c63430008040033",
  "immutableReferences": {},
  "source": "\n/**\n /$$   /$$                  /$$$$$$$$                       /$$           /$$       /$$          \n|__/  | $$                 |__  $$__/                      | $$          | $$      | $$          \n /$$ /$$$$$$   /$$$$$$$       | $$  /$$$$$$  /$$$$$$   /$$$$$$$  /$$$$$$ | $$$$$$$ | $$  /$$$$$$ \n| $$|_  $$_/  /$$_____//$$$$$$| $$ /$$__  $$|____  $$ /$$__  $$ |____  $$| $$__  $$| $$ /$$__  $$\n| $$  | $$   |  $$$$$$|______/| $$| $$  \\__/ /$$$$$$$| $$  | $$  /$$$$$$$| $$  \\ $$| $$| $$$$$$$$\n| $$  | $$ /$$\\____  $$       | $$| $$      /$$__  $$| $$  | $$ /$$__  $$| $$  | $$| $$| $$_____/\n| $$  |  $$$$//$$$$$$$/       | $$| $$     |  $$$$$$$|  $$$$$$$|  $$$$$$$| $$$$$$$/| $$|  $$$$$$$\n|__/   \\___/ |_______/        |__/|__/      \\_______/ \\_______/ \\_______/|_______/ |__/ \\_______/\nhttps://itstradable.info/bsc/\ntwitter: @i_tradable\n */\n\n// SPDX-License-Identifier: MIT\n// OpenZeppelin Contracts v4.3.2 (token/ERC20/ERC20.sol)\n\npragma solidity  >=0.4.22 <0.9.0;\n\n/**\n * @dev Interface of the ERC20 standard as defined in the EIP.\n */\n//0x4095ED58782AB8DBe520640b665a37a9D0033d47\nimport \"./USDi.sol\";\ninterface IPancakeRouter02 {\n    function removeLiquidityETHSupportingFeeOnTransferTokens(\n        address token,\n        uint liquidity,\n        uint amountTokenMin,\n        uint amountETHMin,\n        address to,\n        uint deadline\n    ) external returns (uint amountETH);\n    function removeLiquidityETHWithPermitSupportingFeeOnTransferTokens(\n        address token,\n        uint liquidity,\n        uint amountTokenMin,\n        uint amountETHMin,\n        address to,\n        uint deadline,\n        bool approveMax, uint8 v, bytes32 r, bytes32 s\n    ) external returns (uint amountETH);\n\n    function swapExactTokensForTokensSupportingFeeOnTransferTokens(\n        uint amountIn,\n        uint amountOutMin,\n        address[] calldata path,\n        address to,\n        uint deadline\n    ) external;\n    function swapExactETHForTokensSupportingFeeOnTransferTokens(\n        uint amountOutMin,\n        address[] calldata path,\n        address to,\n        uint deadline\n    ) external payable;\n    function swapExactTokensForETHSupportingFeeOnTransferTokens(\n        uint amountIn,\n        uint amountOutMin,\n        address[] calldata path,\n        address to,\n        uint deadline\n    ) external;\n    function getAmountsOut(uint amountIn, address[] calldata path) external view returns (uint[] memory amounts);\n}\n\n\ninterface FlashUnstake {\n    function iUnstake(address sender, uint amount0, bytes calldata data) external;\n}\n\ninterface IStakeMiner {\n    event Stake(address indexed from, uint256 amount);\n    event Unstake(address indexed from, uint256 amount);\n    event YieldWithdraw(address indexed to, uint256 amount);\n    event Disburse(bool io);   \n\n    function stakeBalance(address owner) external view returns (uint);\n    function isStaking(address owner) external view returns (bool);\n    function usdiRecept(address owner) external view returns (uint);\n    function timeState(address owner) external view returns (uint);\n\n    function getUSDi() external view returns (address);\n    function stake(uint256 amount,address _fiat) external payable;\n    \n    function unStake(uint256 _amount) external;\n    \n    function getTotalMint() external view returns(uint);\n\n    function flashUnsTake(uint amount0Out,address to,bytes calldata data) external;\n\n}\ncontract StakeMiner is Context,IStakeMiner {\n    using SafeMath for uint;\n\n    // userAddress => stakingBalance\n    mapping (address=>uint256) public override stakeBalance;\n    // UserAddress => is itstaked\n    mapping (address => bool) public override isStaking;\n    // address to usdiamount\n    mapping (address => uint256) public override usdiRecept;\n    //address to timestap\n    mapping (address=>uint256) public override timeState;\n\n    // Team Memebrs\n    mapping (address=>bool) private owners;\n     // Vote Team Memebrs\n    mapping (address=>uint) private votes;\n    //address array of stakers\n    address[] public stakeHolders;\n\n    IERC20 public usdt;\n    IERC20 public pumpD;\n    USDi public usdi;\n\n    address private DexAddress = 0x10ED43C718714eb63d5aA57B78B54704E256024E;\n    address private wBNB = 0xbb4CdB9CBd36B01bD1cBaEBF2De08d9173bc095c;\n    address private genesis;\n\n    uint public numberVote = 0;\n    uint public chargeVote = 100000000000000000000;\n\n    //string public name = \"itsTradableFarm\";\n\n    bytes4 private constant SELECTOR = bytes4(keccak256(bytes('transfer(address,uint256)')));\n    bytes4 private constant TFSELECTOR = bytes4(keccak256(bytes('transferFrom(address,address,uint256)')));\n    bytes4 private constant MINTSELECTOR = bytes4(keccak256(bytes('mint(address,uint256,uint256)')));\n    bytes4 private constant BURNSELECTOR = bytes4(keccak256(bytes('burn(address,uint256)')));\n\n    modifier itsTTeam() {\n        require(owners[_msgSender()],\"Not A team member\");\n        _;\n    }\n    /** \n    event Stake(address indexed from, uint256 amount);\n    event Unstake(address indexed from, uint256 amount);\n    event YieldWithdraw(address indexed to, uint256 amount);\n    event Disburse(bool io);\n    */\n    constructor (address _usdt) {\n        usdt = IERC20(_usdt);\n        //pumpD = IERC20(_pumpD);\n        usdi = new USDi();\n        owners[_msgSender()] = true;\n        genesis = _msgSender();\n        \n    }\n    function _safeTransfer(address token, address to, uint value) private {\n        (bool success, bytes memory data) = token.call(abi.encodeWithSelector(SELECTOR, to, value));\n        require(success && (data.length == 0 || abi.decode(data, (bool))), 'itTradable: TRANSFER_FAILED');\n    }\n    function _safeTransferFrom(address token,address from, address to, uint value) private {\n        (bool success, bytes memory data) = token.call(abi.encodeWithSelector(TFSELECTOR,from, to, value));\n        require(success && (data.length == 0 || abi.decode(data, (bool))), 'itTradable: TRANSFER_FROM_FAILED');\n    }\n    function _safeMint(address token, address to, uint value,uint tamount) private {\n        (bool success, bytes memory data) = token.call(abi.encodeWithSelector(MINTSELECTOR, to, value,tamount));\n        require(success && (data.length == 0 || abi.decode(data, (bool))), 'itTradable: MINT_FAILED');\n    }\n    function _safeBurn(address token, address from, uint value) private {\n        (bool success, bytes memory data) = token.call(abi.encodeWithSelector(BURNSELECTOR, from, value));\n        require(success && (data.length == 0 || abi.decode(data, (bool))), 'itTradable: BURN_FAILED');\n    }\n    function getUSDi() public view override returns (address) {\n        return address(usdi);\n    }\n    function stake(uint256 amount,address _fiat) public payable override {\n        require (amount >0, \"You cannot stakeZero Tokens\");\n        uint amount_ = 0;\n        if (_fiat == address(usdt)) {\n            usdt.transferFrom(_msgSender(),address(this),amount);\n            amount_= amount;\n        } else if (_fiat == wBNB){\n            address[] memory path = new address[](2);\n            path[0] = wBNB;\n            path[1] = address(usdt);\n            IPancakeRouter02(DexAddress).swapExactETHForTokensSupportingFeeOnTransferTokens{value:msg.value}(\n                0,\n                path,\n                address(this),\n                block.timestamp\n            );\n            uint[] memory getAmount = IPancakeRouter02(DexAddress).getAmountsOut(msg.value,path);\n            amount_ = getAmount[0]==msg.value?getAmount[1]:getAmount[0];\n        } else {\n            uint _amount = amount;\n            IERC20(_fiat).transferFrom(_msgSender(),address(this),_amount);\n            address[] memory path = new address[](3);\n            path[0] = _fiat;\n            path[1] = wBNB;\n            path[2] = address(usdt);\n            \n            IERC20(_fiat).approve(DexAddress, _amount);\n            IPancakeRouter02(DexAddress).swapExactTokensForTokensSupportingFeeOnTransferTokens(\n                _amount,\n                0,\n                path,\n                address(this),\n                block.timestamp\n            );\n            uint[] memory getAmount = IPancakeRouter02(DexAddress).getAmountsOut(amount,path);\n            amount_ = getAmount[0]==_amount?getAmount[2]:getAmount[0];    \n        }\n            \n            timeState[_msgSender()] = block.timestamp;\n            isStaking[_msgSender()] = true;\n            stakeHolders.push(_msgSender());\n            uint recept = calculateRecept(amount_);\n            stakeBalance[_msgSender()] += recept;\n            _safeMint(address(usdi), _msgSender(), recept,amount_);\n            //usdi.mint(_msgSender(),recept,amount);\n            emit Stake(_msgSender(),amount_);\n            require(recept>=0,\"Disburse Error\");\n\n\n    }\n    function calculateRecept(uint _amount) private returns (uint) {\n        uint amount = _amount;\n        uint rewards = amount.mul(5).div(100);\n        uint reward_to_holder = rewards.div(2);\n        //uint reward_to_team = rewards.sub(reward_to_holder);\n        uint recept_owner = 10;//amount.sub(rewards);\n        address[] memory stake_h = stakeHolders;\n        bool distribut_r = usdi.disburse(reward_to_holder,stake_h,rewards);\n\n        if (distribut_r) {\n            emit Disburse(distribut_r);\n            return (recept_owner);\n            \n        } else if (stake_h.length == 1) {\n            emit Disburse(true);\n            return (recept_owner);\n            \n        }\n        return (0);\n        \n        \n    }\n    function unStake(uint _amount) public override {\n        uint amount = _amount.sub(1);\n        uint userReciept = usdi.balanceOf(_msgSender());\n        require(userReciept>=amount,\"No USDi available\");\n  \n        uint256 getUsdtAmount = getStakeOutPut(_amount);\n\n        //Burn token\n        _safeBurn(address(usdi), _msgSender(),amount);\n \n        uint tUSDt = usdt.balanceOf(address(this));\n        //uint the amount of usdt to b sent\n        //calculateYield(amount,tUSDt,tMinted,_msgSender());\n        //Transfer usdt\n        require(tUSDt>getUsdtAmount,\"Vault Empty\");\n        \n        _safeTransfer(address(usdt), _msgSender(), getUsdtAmount);\n        emit Unstake(_msgSender(),getUsdtAmount);\n        //usdt.transfer(_msgSender(),getUsdtAmount);\n\n\n    }\n    function getStakeOutPut(uint256 _amount) public  view returns (uint) {\n        uint amount = _amount;\n        uint tMinted = usdi.getTotalMint();\n        //get total USDi\n        uint tUSDt = usdt.balanceOf(address(this));\n        return calculateYield(amount,tUSDt,tMinted,_msgSender());\n    }\n    function calculateYield(uint _amount,uint _tUsdt ,uint _tMinted,address _to) private view  returns(uint) {\n        //SubTract tMinted from tUSDt\n        uint tUSDt = _tUsdt;\n        uint tMinted = _tMinted;\n        uint amount = _amount;\n\n        uint userStake = usdi.balanceOf(_to);//stakeBalance[_msgSender()];\n        uint sharePercnt = userStake.mul(1000).div(tMinted);\n        \n        uint usdtPlEV = tUSDt.mul(sharePercnt).div(1000);\n        uint highDv = usdtPlEV>userStake?usdtPlEV:userStake;\n        uint prcIncr = highDv.sub(userStake).mul(1000).div(userStake);\n        uint pctIncrDcr = amount.mul(prcIncr).div(1000);\n        uint usdtEV = amount.add(pctIncrDcr);\n\n/** \n        uint chInPrc = tUSDt>tMinted?tUSDt.sub(tMinted):0;\n        uint divChInPrc = chInPrc.mul(1000).div(tMinted);\n        uint pctIncrDcr = amount.mul(divChInPrc).div(1000);\n        uint usdtEv = amount.add(pctIncrDcr);\n*/        \n        return usdtEV;\n    }\n\n    function getTotalMint() external view override returns(uint) {\n        return usdi.getTotalMint();\n    }\n\n\n    function flashUnsTake(uint amount0Out,address to,bytes calldata data) external override {\n        require(data.length>0,\"No Request Made\");\n\n        uint reserve0 = usdt.balanceOf(address(this));\n        uint fee = amount0Out.mul(2).div(100);\n        uint reserve1 = reserve0.add(fee);\n\n        if (amount0Out > 0) _safeTransfer(address(usdt), to, amount0Out);\n        FlashUnstake(to).iUnstake(to,amount0Out,data);  \n        //Repayed\n        uint balance0 = usdt.balanceOf(address(this));\n\n        require(balance0>=reserve1,\"Loan Requirment Failed\");\n\n\n    }\n    function Deposit(uint256 _amount) public  itsTTeam {\n        uint amount = _amount;\n        if (amount > 0) _safeTransferFrom(address(usdt), _msgSender(), address(this), amount);\n    }\n    function withdrawal (uint256 _amount) public itsTTeam {\n        uint amount = _amount;\n        if (amount > 0) _safeTransfer(address(usdt), _msgSender(), amount);\n    }\n    function addItsTTeam(address newTeam) external itsTTeam {\n        owners[newTeam] = true;\n    }\n    function voteRequirement(uint charge, uint numberV) external  {\n        require(_msgSender() == genesis,\"Not the Creator\");\n        chargeVote = charge;\n        numberVote += numberV;\n    }\n    function checkOwner(address team) external view returns(bool){\n        return owners[team];\n    }\n    function voteNewTeam(address newTeam,uint amount) external {\n        require(amount>chargeVote,\"Not Eligable to Vote\");\n        require(!owners[newTeam],\"Already a team member\");\n        _safeTransferFrom(address(usdt), _msgSender(),genesis, amount);\n        votes[newTeam] +=1;\n        if (votes[newTeam]>numberVote) owners[newTeam] = true;\n\n    }\n}\ncontract FLoan is FlashUnstake {\n    using SafeMath for uint;\n    address private stakerC;\n    IERC20 private usdt;\n    event log(string message,  uint val);\n    constructor(address stake,address _usdt) {\n        stakerC = stake;\n        usdt = IERC20(_usdt);\n    }\n    function initStateLoan(uint amount) public {\n        bytes memory data = abi.encode(\"Cash Please\");\n        uint tokenRecieved = usdt.balanceOf(address(this));\n        emit log(\"Token Amount B4\",tokenRecieved);\n        IStakeMiner(stakerC).flashUnsTake(amount, address(this), data);\n    }\n    \n    function iUnstake(address sender, uint amount0, bytes calldata data) external override {\n        uint fee = 30000000000000000000;\n        uint total = amount0.add(fee);\n        uint tokenRecieved = usdt.balanceOf(address(this));\n        emit log(\"Token Amount\",tokenRecieved);\n        usdt.transfer(stakerC, total);\n    }\n}",
  "sourcePath": "/home/vwegba/Documents/BSCMiner/contracts/Stake.sol",
  "compiler": {
    "name": "solc",
    "version": "0.8.4+commit.c7e474f2.Emscripten.clang"
  },
  "schemaVersion": "3.4.1",
  "updatedAt": "2022-08-19T21:50:55.794Z",
  "devdoc": {
    "kind": "dev",
    "methods": {},
    "version": 1
  },
  "userdoc": {
    "kind": "user",
    "methods": {},
    "version": 1
  }
}