{
  "contractName": "StakeMiner",
  "abi": [
    {
      "inputs": [
        {
          "internalType": "address",
          "name": "_usdt",
          "type": "address"
        }
      ],
      "stateMutability": "nonpayable",
      "type": "constructor"
    },
    {
      "anonymous": false,
      "inputs": [
        {
          "indexed": false,
          "internalType": "bool",
          "name": "io",
          "type": "bool"
        }
      ],
      "name": "Disburse",
      "type": "event"
    },
    {
      "anonymous": false,
      "inputs": [
        {
          "indexed": true,
          "internalType": "address",
          "name": "from",
          "type": "address"
        },
        {
          "indexed": false,
          "internalType": "uint256",
          "name": "amount",
          "type": "uint256"
        }
      ],
      "name": "Stake",
      "type": "event"
    },
    {
      "anonymous": false,
      "inputs": [
        {
          "indexed": true,
          "internalType": "address",
          "name": "from",
          "type": "address"
        },
        {
          "indexed": false,
          "internalType": "uint256",
          "name": "amount",
          "type": "uint256"
        }
      ],
      "name": "Unstake",
      "type": "event"
    },
    {
      "anonymous": false,
      "inputs": [
        {
          "indexed": true,
          "internalType": "address",
          "name": "to",
          "type": "address"
        },
        {
          "indexed": false,
          "internalType": "uint256",
          "name": "amount",
          "type": "uint256"
        }
      ],
      "name": "YieldWithdraw",
      "type": "event"
    },
    {
      "inputs": [],
      "name": "chargeVote",
      "outputs": [
        {
          "internalType": "uint256",
          "name": "",
          "type": "uint256"
        }
      ],
      "stateMutability": "view",
      "type": "function"
    },
    {
      "inputs": [
        {
          "internalType": "address",
          "name": "",
          "type": "address"
        }
      ],
      "name": "isStaking",
      "outputs": [
        {
          "internalType": "bool",
          "name": "",
          "type": "bool"
        }
      ],
      "stateMutability": "view",
      "type": "function"
    },
    {
      "inputs": [],
      "name": "numberVote",
      "outputs": [
        {
          "internalType": "uint256",
          "name": "",
          "type": "uint256"
        }
      ],
      "stateMutability": "view",
      "type": "function"
    },
    {
      "inputs": [],
      "name": "pumpD",
      "outputs": [
        {
          "internalType": "contract IERC20",
          "name": "",
          "type": "address"
        }
      ],
      "stateMutability": "view",
      "type": "function"
    },
    {
      "inputs": [
        {
          "internalType": "address",
          "name": "",
          "type": "address"
        }
      ],
      "name": "stakeBalance",
      "outputs": [
        {
          "internalType": "uint256",
          "name": "",
          "type": "uint256"
        }
      ],
      "stateMutability": "view",
      "type": "function"
    },
    {
      "inputs": [
        {
          "internalType": "uint256",
          "name": "",
          "type": "uint256"
        }
      ],
      "name": "stakeHolders",
      "outputs": [
        {
          "internalType": "address",
          "name": "",
          "type": "address"
        }
      ],
      "stateMutability": "view",
      "type": "function"
    },
    {
      "inputs": [
        {
          "internalType": "address",
          "name": "",
          "type": "address"
        }
      ],
      "name": "timeState",
      "outputs": [
        {
          "internalType": "uint256",
          "name": "",
          "type": "uint256"
        }
      ],
      "stateMutability": "view",
      "type": "function"
    },
    {
      "inputs": [],
      "name": "usdi",
      "outputs": [
        {
          "internalType": "contract USDi",
          "name": "",
          "type": "address"
        }
      ],
      "stateMutability": "view",
      "type": "function"
    },
    {
      "inputs": [
        {
          "internalType": "address",
          "name": "",
          "type": "address"
        }
      ],
      "name": "usdiRecept",
      "outputs": [
        {
          "internalType": "uint256",
          "name": "",
          "type": "uint256"
        }
      ],
      "stateMutability": "view",
      "type": "function"
    },
    {
      "inputs": [],
      "name": "usdt",
      "outputs": [
        {
          "internalType": "contract IERC20",
          "name": "",
          "type": "address"
        }
      ],
      "stateMutability": "view",
      "type": "function"
    },
    {
      "inputs": [],
      "name": "getUSDi",
      "outputs": [
        {
          "internalType": "address",
          "name": "",
          "type": "address"
        }
      ],
      "stateMutability": "view",
      "type": "function"
    },
    {
      "inputs": [
        {
          "internalType": "uint256",
          "name": "amount",
          "type": "uint256"
        },
        {
          "internalType": "address",
          "name": "_fiat",
          "type": "address"
        }
      ],
      "name": "stake",
      "outputs": [],
      "stateMutability": "payable",
      "type": "function"
    },
    {
      "inputs": [
        {
          "internalType": "uint256",
          "name": "_amount",
          "type": "uint256"
        }
      ],
      "name": "unStake",
      "outputs": [],
      "stateMutability": "nonpayable",
      "type": "function"
    },
    {
      "inputs": [
        {
          "internalType": "uint256",
          "name": "_amount",
          "type": "uint256"
        }
      ],
      "name": "getStakeOutPut",
      "outputs": [
        {
          "internalType": "uint256",
          "name": "",
          "type": "uint256"
        }
      ],
      "stateMutability": "view",
      "type": "function"
    },
    {
      "inputs": [],
      "name": "getTotalMint",
      "outputs": [
        {
          "internalType": "uint256",
          "name": "",
          "type": "uint256"
        }
      ],
      "stateMutability": "view",
      "type": "function"
    },
    {
      "inputs": [
        {
          "internalType": "uint256",
          "name": "amount0Out",
          "type": "uint256"
        },
        {
          "internalType": "address",
          "name": "to",
          "type": "address"
        },
        {
          "internalType": "bytes",
          "name": "data",
          "type": "bytes"
        }
      ],
      "name": "flashUnsTake",
      "outputs": [],
      "stateMutability": "nonpayable",
      "type": "function"
    },
    {
      "inputs": [
        {
          "internalType": "uint256",
          "name": "_amount",
          "type": "uint256"
        }
      ],
      "name": "Deposit",
      "outputs": [],
      "stateMutability": "nonpayable",
      "type": "function"
    },
    {
      "inputs": [
        {
          "internalType": "uint256",
          "name": "_amount",
          "type": "uint256"
        }
      ],
      "name": "withdrawal",
      "outputs": [],
      "stateMutability": "nonpayable",
      "type": "function"
    },
    {
      "inputs": [
        {
          "internalType": "address",
          "name": "newTeam",
          "type": "address"
        }
      ],
      "name": "addItsTTeam",
      "outputs": [],
      "stateMutability": "nonpayable",
      "type": "function"
    },
    {
      "inputs": [
        {
          "internalType": "uint256",
          "name": "charge",
          "type": "uint256"
        },
        {
          "internalType": "uint256",
          "name": "numberV",
          "type": "uint256"
        }
      ],
      "name": "voteRequirement",
      "outputs": [],
      "stateMutability": "nonpayable",
      "type": "function"
    },
    {
      "inputs": [
        {
          "internalType": "address",
          "name": "team",
          "type": "address"
        }
      ],
      "name": "checkOwner",
      "outputs": [
        {
          "internalType": "bool",
          "name": "",
          "type": "bool"
        }
      ],
      "stateMutability": "view",
      "type": "function"
    },
    {
      "inputs": [
        {
          "internalType": "address",
          "name": "newTeam",
          "type": "address"
        },
        {
          "internalType": "uint256",
          "name": "amount",
          "type": "uint256"
        }
      ],
      "name": "voteNewTeam",
      "outputs": [],
      "stateMutability": "nonpayable",
      "type": "function"
    }
  ],
  "bytecode": "0x60806040527310ed43c718714eb63d5aa57b78b54704e256024e600a60006101000a81548173ffffffffffffffffffffffffffffffffffffffff021916908373ffffffffffffffffffffffffffffffffffffffff16021790555073bb4cdb9cbd36b01bd1cbaebf2de08d9173bc095c600b60006101000a81548173ffffffffffffffffffffffffffffffffffffffff021916908373ffffffffffffffffffffffffffffffffffffffff1602179055506000600d5568056bc75e2d63100000600e55348015620000cd57600080fd5b5060405162006670380380620066708339818101604052810190620000f391906200028b565b80600760006101000a81548173ffffffffffffffffffffffffffffffffffffffff021916908373ffffffffffffffffffffffffffffffffffffffff160217905550604051620001429062000266565b604051809103906000f0801580156200015f573d6000803e3d6000fd5b50600960006101000a81548173ffffffffffffffffffffffffffffffffffffffff021916908373ffffffffffffffffffffffffffffffffffffffff160217905550600160046000620001b66200025e60201b60201c565b73ffffffffffffffffffffffffffffffffffffffff1673ffffffffffffffffffffffffffffffffffffffff16815260200190815260200160002060006101000a81548160ff021916908315150217905550620002176200025e60201b60201c565b600c60006101000a81548173ffffffffffffffffffffffffffffffffffffffff021916908373ffffffffffffffffffffffffffffffffffffffff1602179055505062000305565b600033905090565b612651806200401f83390190565b6000815190506200028581620002eb565b92915050565b6000602082840312156200029e57600080fd5b6000620002ae8482850162000274565b91505092915050565b6000620002c482620002cb565b9050919050565b600073ffffffffffffffffffffffffffffffffffffffff82169050919050565b620002f681620002b7565b81146200030257600080fd5b50565b613d0a80620003156000396000f3fe6080604052600436106101355760003560e01c8063835fc6ca116100ab578063b2670c071161006f578063b2670c071461043d578063d57b12ce14610466578063d795cdb714610491578063d8ad4e78146104bc578063dca33b1c146104e7578063e0e3671c1461051057610135565b8063835fc6ca146103465780638409ad8a1461036f5780638bfcda9e1461039a578063a19321c5146103c3578063acad41a41461040057610135565b80634e7c57a6116100fd5780634e7c57a61461021f5780635d3eea911461025c578063619e84ed14610285578063655230e5146102b05780636f49712b146102ed5780637acb77571461032a57610135565b8063149e53321461013a5780632f48ab7d146101775780633ffef3e4146101a2578063488678dd146101cb5780634d6ce1e5146101f6575b600080fd5b34801561014657600080fd5b50610161600480360381019061015c9190612d2d565b61054d565b60405161016e91906135bf565b60405180910390f35b34801561018357600080fd5b5061018c610565565b604051610199919061337d565b60405180910390f35b3480156101ae57600080fd5b506101c960048036038101906101c49190612ef6565b61058b565b005b3480156101d757600080fd5b506101e0610646565b6040516101ed9190613270565b60405180910390f35b34801561020257600080fd5b5061021d60048036038101906102189190612dfc565b610670565b005b34801561022b57600080fd5b5061024660048036038101906102419190612d2d565b61074b565b60405161025391906135bf565b60405180910390f35b34801561026857600080fd5b50610283600480360381019061027e9190612dfc565b610763565b005b34801561029157600080fd5b5061029a610a36565b6040516102a791906135bf565b60405180910390f35b3480156102bc57600080fd5b506102d760048036038101906102d29190612dfc565b610a3c565b6040516102e491906135bf565b60405180910390f35b3480156102f957600080fd5b50610314600480360381019061030f9190612d2d565b610bb2565b6040516103219190613362565b60405180910390f35b610344600480360381019061033f9190612e4e565b610bd2565b005b34801561035257600080fd5b5061036d60048036038101906103689190612dfc565b611924565b005b34801561037b57600080fd5b506103846119fe565b60405161039191906135bf565b60405180910390f35b3480156103a657600080fd5b506103c160048036038101906103bc9190612d56565b611a04565b005b3480156103cf57600080fd5b506103ea60048036038101906103e59190612d2d565b611c29565b6040516103f791906135bf565b60405180910390f35b34801561040c57600080fd5b5061042760048036038101906104229190612dfc565b611c41565b6040516104349190613270565b60405180910390f35b34801561044957600080fd5b50610464600480360381019061045f9190612e8a565b611c80565b005b34801561047257600080fd5b5061047b611f5b565b604051610488919061337d565b60405180910390f35b34801561049d57600080fd5b506104a6611f81565b6040516104b391906135bf565b60405180910390f35b3480156104c857600080fd5b506104d1612028565b6040516104de9190613398565b60405180910390f35b3480156104f357600080fd5b5061050e60048036038101906105099190612d2d565b61204e565b005b34801561051c57600080fd5b5061053760048036038101906105329190612d2d565b61213c565b6040516105449190613362565b60405180910390f35b60036020528060005260406000206000915090505481565b600760009054906101000a900473ffffffffffffffffffffffffffffffffffffffff1681565b600c60009054906101000a900473ffffffffffffffffffffffffffffffffffffffff1673ffffffffffffffffffffffffffffffffffffffff166105cc612192565b73ffffffffffffffffffffffffffffffffffffffff1614610622576040517f08c379a00000000000000000000000000000000000000000000000000000000081526004016106199061351f565b60405180910390fd5b81600e8190555080600d600082825461063b9190613764565b925050819055505050565b6000600960009054906101000a900473ffffffffffffffffffffffffffffffffffffffff16905090565b6004600061067c612192565b73ffffffffffffffffffffffffffffffffffffffff1673ffffffffffffffffffffffffffffffffffffffff16815260200190815260200160002060009054906101000a900460ff16610703576040517f08c379a00000000000000000000000000000000000000000000000000000000081526004016106fa906134ff565b60405180910390fd5b6000819050600081111561074757610746600760009054906101000a900473ffffffffffffffffffffffffffffffffffffffff1661073f612192565b308461219a565b5b5050565b60006020528060005260406000206000915090505481565b600061077960018361230a90919063ffffffff16565b90506000600960009054906101000a900473ffffffffffffffffffffffffffffffffffffffff1673ffffffffffffffffffffffffffffffffffffffff166370a082316107c3612192565b6040518263ffffffff1660e01b81526004016107df9190613270565b60206040518083038186803b1580156107f757600080fd5b505afa15801561080b573d6000803e3d6000fd5b505050506040513d601f19601f8201168201806040525081019061082f9190612e25565b905081811015610874576040517f08c379a000000000000000000000000000000000000000000000000000000000815260040161086b9061347f565b60405180910390fd5b600061087f84610a3c565b90506108b5600960009054906101000a900473ffffffffffffffffffffffffffffffffffffffff166108af612192565b85612320565b6000600760009054906101000a900473ffffffffffffffffffffffffffffffffffffffff1673ffffffffffffffffffffffffffffffffffffffff166370a08231306040518263ffffffff1660e01b81526004016109129190613270565b60206040518083038186803b15801561092a57600080fd5b505afa15801561093e573d6000803e3d6000fd5b505050506040513d601f19601f820116820180604052508101906109629190612e25565b90508181116109a6576040517f08c379a000000000000000000000000000000000000000000000000000000000815260040161099d9061355f565b60405180910390fd5b6109da600760009054906101000a900473ffffffffffffffffffffffffffffffffffffffff166109d4612192565b846124aa565b6109e2612192565b73ffffffffffffffffffffffffffffffffffffffff167f85082129d87b2fe11527cb1b3b7a520aeb5aa6913f88a3d8757fe40d1db02fdd83604051610a2791906135bf565b60405180910390a25050505050565b600e5481565b6000808290506000600960009054906101000a900473ffffffffffffffffffffffffffffffffffffffff1673ffffffffffffffffffffffffffffffffffffffff1663d795cdb76040518163ffffffff1660e01b815260040160206040518083038186803b158015610aac57600080fd5b505afa158015610ac0573d6000803e3d6000fd5b505050506040513d601f19601f82011682018060405250810190610ae49190612e25565b90506000600760009054906101000a900473ffffffffffffffffffffffffffffffffffffffff1673ffffffffffffffffffffffffffffffffffffffff166370a08231306040518263ffffffff1660e01b8152600401610b439190613270565b60206040518083038186803b158015610b5b57600080fd5b505afa158015610b6f573d6000803e3d6000fd5b505050506040513d601f19601f82011682018060405250810190610b939190612e25565b9050610ba8838284610ba3612192565b612634565b9350505050919050565b60016020528060005260406000206000915054906101000a900460ff1681565b60008211610c15576040517f08c379a0000000000000000000000000000000000000000000000000000000008152600401610c0c9061357f565b60405180910390fd5b6000600760009054906101000a900473ffffffffffffffffffffffffffffffffffffffff1673ffffffffffffffffffffffffffffffffffffffff168273ffffffffffffffffffffffffffffffffffffffff161415610d2e57600760009054906101000a900473ffffffffffffffffffffffffffffffffffffffff1673ffffffffffffffffffffffffffffffffffffffff166323b872dd610cb3612192565b30866040518463ffffffff1660e01b8152600401610cd39392919061328b565b602060405180830381600087803b158015610ced57600080fd5b505af1158015610d01573d6000803e3d6000fd5b505050506040513d601f19601f82011682018060405250810190610d259190612dd3565b508290506116d4565b600b60009054906101000a900473ffffffffffffffffffffffffffffffffffffffff1673ffffffffffffffffffffffffffffffffffffffff168273ffffffffffffffffffffffffffffffffffffffff16141561114c576000600267ffffffffffffffff811115610dc7577f4e487b7100000000000000000000000000000000000000000000000000000000600052604160045260246000fd5b604051908082528060200260200182016040528015610df55781602001602082028036833780820191505090505b509050600b60009054906101000a900473ffffffffffffffffffffffffffffffffffffffff1681600081518110610e55577f4e487b7100000000000000000000000000000000000000000000000000000000600052603260045260246000fd5b602002602001019073ffffffffffffffffffffffffffffffffffffffff16908173ffffffffffffffffffffffffffffffffffffffff1681525050600760009054906101000a900473ffffffffffffffffffffffffffffffffffffffff1681600181518110610eec577f4e487b7100000000000000000000000000000000000000000000000000000000600052603260045260246000fd5b602002602001019073ffffffffffffffffffffffffffffffffffffffff16908173ffffffffffffffffffffffffffffffffffffffff1681525050600a60009054906101000a900473ffffffffffffffffffffffffffffffffffffffff1673ffffffffffffffffffffffffffffffffffffffff1663b6f9de953460008430426040518663ffffffff1660e01b8152600401610f8994939291906133b3565b6000604051808303818588803b158015610fa257600080fd5b505af1158015610fb6573d6000803e3d6000fd5b50505050506000600a60009054906101000a900473ffffffffffffffffffffffffffffffffffffffff1673ffffffffffffffffffffffffffffffffffffffff1663d06ca61f34846040518363ffffffff1660e01b815260040161101a9291906135da565b60006040518083038186803b15801561103257600080fd5b505afa158015611046573d6000803e3d6000fd5b505050506040513d6000823e3d601f19601f8201168201806040525081019061106f9190612d92565b905034816000815181106110ac577f4e487b7100000000000000000000000000000000000000000000000000000000600052603260045260246000fd5b60200260200101511461110057806000815181106110f3577f4e487b7100000000000000000000000000000000000000000000000000000000600052603260045260246000fd5b6020026020010151611143565b8060018151811061113a577f4e487b7100000000000000000000000000000000000000000000000000000000600052603260045260246000fd5b60200260200101515b925050506116d3565b60008390508273ffffffffffffffffffffffffffffffffffffffff166323b872dd611175612192565b30846040518463ffffffff1660e01b81526004016111959392919061328b565b602060405180830381600087803b1580156111af57600080fd5b505af11580156111c3573d6000803e3d6000fd5b505050506040513d601f19601f820116820180604052508101906111e79190612dd3565b506000600367ffffffffffffffff81111561122b577f4e487b7100000000000000000000000000000000000000000000000000000000600052604160045260246000fd5b6040519080825280602002602001820160405280156112595781602001602082028036833780820191505090505b5090508381600081518110611297577f4e487b7100000000000000000000000000000000000000000000000000000000600052603260045260246000fd5b602002602001019073ffffffffffffffffffffffffffffffffffffffff16908173ffffffffffffffffffffffffffffffffffffffff1681525050600b60009054906101000a900473ffffffffffffffffffffffffffffffffffffffff168160018151811061132e577f4e487b7100000000000000000000000000000000000000000000000000000000600052603260045260246000fd5b602002602001019073ffffffffffffffffffffffffffffffffffffffff16908173ffffffffffffffffffffffffffffffffffffffff1681525050600760009054906101000a900473ffffffffffffffffffffffffffffffffffffffff16816002815181106113c5577f4e487b7100000000000000000000000000000000000000000000000000000000600052603260045260246000fd5b602002602001019073ffffffffffffffffffffffffffffffffffffffff16908173ffffffffffffffffffffffffffffffffffffffff16815250508373ffffffffffffffffffffffffffffffffffffffff1663095ea7b3600a60009054906101000a900473ffffffffffffffffffffffffffffffffffffffff16846040518363ffffffff1660e01b815260040161145c9291906132c2565b602060405180830381600087803b15801561147657600080fd5b505af115801561148a573d6000803e3d6000fd5b505050506040513d601f19601f820116820180604052508101906114ae9190612dd3565b50600a60009054906101000a900473ffffffffffffffffffffffffffffffffffffffff1673ffffffffffffffffffffffffffffffffffffffff16635c11d7958360008430426040518663ffffffff1660e01b8152600401611513959493929190613648565b600060405180830381600087803b15801561152d57600080fd5b505af1158015611541573d6000803e3d6000fd5b505050506000600a60009054906101000a900473ffffffffffffffffffffffffffffffffffffffff1673ffffffffffffffffffffffffffffffffffffffff1663d06ca61f87846040518363ffffffff1660e01b81526004016115a49291906135da565b60006040518083038186803b1580156115bc57600080fd5b505afa1580156115d0573d6000803e3d6000fd5b505050506040513d6000823e3d601f19601f820116820180604052508101906115f99190612d92565b90508281600081518110611636577f4e487b7100000000000000000000000000000000000000000000000000000000600052603260045260246000fd5b60200260200101511461168a578060008151811061167d577f4e487b7100000000000000000000000000000000000000000000000000000000600052603260045260246000fd5b60200260200101516116cd565b806002815181106116c4577f4e487b7100000000000000000000000000000000000000000000000000000000600052603260045260246000fd5b60200260200101515b93505050505b5b42600360006116e1612192565b73ffffffffffffffffffffffffffffffffffffffff1673ffffffffffffffffffffffffffffffffffffffff16815260200190815260200160002081905550600180600061172c612192565b73ffffffffffffffffffffffffffffffffffffffff1673ffffffffffffffffffffffffffffffffffffffff16815260200190815260200160002060006101000a81548160ff0219169083151502179055506006611787612192565b9080600181540180825580915050600190039060005260206000200160009091909190916101000a81548173ffffffffffffffffffffffffffffffffffffffff021916908373ffffffffffffffffffffffffffffffffffffffff16021790555060006117f2826127f0565b905080600080611800612192565b73ffffffffffffffffffffffffffffffffffffffff1673ffffffffffffffffffffffffffffffffffffffff16815260200190815260200160002060008282546118499190613764565b92505081905550611885600960009054906101000a900473ffffffffffffffffffffffffffffffffffffffff1661187e612192565b8385612a2a565b61188d612192565b73ffffffffffffffffffffffffffffffffffffffff167febedb8b3c678666e7f36970bc8f57abf6d8fa2e828c0da91ea5b75bf68ed101a836040516118d291906135bf565b60405180910390a2600081101561191e576040517f08c379a00000000000000000000000000000000000000000000000000000000081526004016119159061345f565b60405180910390fd5b50505050565b60046000611930612192565b73ffffffffffffffffffffffffffffffffffffffff1673ffffffffffffffffffffffffffffffffffffffff16815260200190815260200160002060009054906101000a900460ff166119b7576040517f08c379a00000000000000000000000000000000000000000000000000000000081526004016119ae906134ff565b60405180910390fd5b600081905060008111156119fa576119f9600760009054906101000a900473ffffffffffffffffffffffffffffffffffffffff166119f3612192565b836124aa565b5b5050565b600d5481565b600e548111611a48576040517f08c379a0000000000000000000000000000000000000000000000000000000008152600401611a3f906134bf565b60405180910390fd5b600460008373ffffffffffffffffffffffffffffffffffffffff1673ffffffffffffffffffffffffffffffffffffffff16815260200190815260200160002060009054906101000a900460ff1615611ad5576040517f08c379a0000000000000000000000000000000000000000000000000000000008152600401611acc906134df565b60405180910390fd5b611b2c600760009054906101000a900473ffffffffffffffffffffffffffffffffffffffff16611b03612192565b600c60009054906101000a900473ffffffffffffffffffffffffffffffffffffffff168461219a565b6001600560008473ffffffffffffffffffffffffffffffffffffffff1673ffffffffffffffffffffffffffffffffffffffff1681526020019081526020016000206000828254611b7c9190613764565b92505081905550600d54600560008473ffffffffffffffffffffffffffffffffffffffff1673ffffffffffffffffffffffffffffffffffffffff168152602001908152602001600020541115611c25576001600460008473ffffffffffffffffffffffffffffffffffffffff1673ffffffffffffffffffffffffffffffffffffffff16815260200190815260200160002060006101000a81548160ff0219169083151502179055505b5050565b60026020528060005260406000206000915090505481565b60068181548110611c5157600080fd5b906000526020600020016000915054906101000a900473ffffffffffffffffffffffffffffffffffffffff1681565b60008282905011611cc6576040517f08c379a0000000000000000000000000000000000000000000000000000000008152600401611cbd9061353f565b60405180910390fd5b6000600760009054906101000a900473ffffffffffffffffffffffffffffffffffffffff1673ffffffffffffffffffffffffffffffffffffffff166370a08231306040518263ffffffff1660e01b8152600401611d239190613270565b60206040518083038186803b158015611d3b57600080fd5b505afa158015611d4f573d6000803e3d6000fd5b505050506040513d601f19601f82011682018060405250810190611d739190612e25565b90506000611d9e6064611d90600289612bb790919063ffffffff16565b612bcd90919063ffffffff16565b90506000611db58284612be390919063ffffffff16565b90506000871115611dee57611ded600760009054906101000a900473ffffffffffffffffffffffffffffffffffffffff1687896124aa565b5b8573ffffffffffffffffffffffffffffffffffffffff166378b30534878988886040518563ffffffff1660e01b8152600401611e2d94939291906132eb565b600060405180830381600087803b158015611e4757600080fd5b505af1158015611e5b573d6000803e3d6000fd5b505050506000600760009054906101000a900473ffffffffffffffffffffffffffffffffffffffff1673ffffffffffffffffffffffffffffffffffffffff166370a08231306040518263ffffffff1660e01b8152600401611ebc9190613270565b60206040518083038186803b158015611ed457600080fd5b505afa158015611ee8573d6000803e3d6000fd5b505050506040513d601f19601f82011682018060405250810190611f0c9190612e25565b905081811015611f51576040517f08c379a0000000000000000000000000000000000000000000000000000000008152600401611f489061343f565b60405180910390fd5b5050505050505050565b600860009054906101000a900473ffffffffffffffffffffffffffffffffffffffff1681565b6000600960009054906101000a900473ffffffffffffffffffffffffffffffffffffffff1673ffffffffffffffffffffffffffffffffffffffff1663d795cdb76040518163ffffffff1660e01b815260040160206040518083038186803b158015611feb57600080fd5b505afa158015611fff573d6000803e3d6000fd5b505050506040513d601f19601f820116820180604052508101906120239190612e25565b905090565b600960009054906101000a900473ffffffffffffffffffffffffffffffffffffffff1681565b6004600061205a612192565b73ffffffffffffffffffffffffffffffffffffffff1673ffffffffffffffffffffffffffffffffffffffff16815260200190815260200160002060009054906101000a900460ff166120e1576040517f08c379a00000000000000000000000000000000000000000000000000000000081526004016120d8906134ff565b60405180910390fd5b6001600460008373ffffffffffffffffffffffffffffffffffffffff1673ffffffffffffffffffffffffffffffffffffffff16815260200190815260200160002060006101000a81548160ff02191690831515021790555050565b6000600460008373ffffffffffffffffffffffffffffffffffffffff1673ffffffffffffffffffffffffffffffffffffffff16815260200190815260200160002060009054906101000a900460ff169050919050565b600033905090565b6000808573ffffffffffffffffffffffffffffffffffffffff16604051806060016040528060258152602001613cb060259139805190602001208686866040516024016121e99392919061328b565b604051602081830303815290604052907bffffffffffffffffffffffffffffffffffffffffffffffffffffffff19166020820180517bffffffffffffffffffffffffffffffffffffffffffffffffffffffff83818316178352505050506040516122539190613259565b6000604051808303816000865af19150503d8060008114612290576040519150601f19603f3d011682016040523d82523d6000602084013e612295565b606091505b50915091508180156122c357506000815114806122c25750808060200190518101906122c19190612dd3565b5b5b612302576040517f08c379a00000000000000000000000000000000000000000000000000000000081526004016122f9906133ff565b60405180910390fd5b505050505050565b600081836123189190613845565b905092915050565b6000808473ffffffffffffffffffffffffffffffffffffffff166040518060400160405280601581526020017f6275726e28616464726573732c75696e7432353629000000000000000000000081525080519060200120858560405160240161238a9291906132c2565b604051602081830303815290604052907bffffffffffffffffffffffffffffffffffffffffffffffffffffffff19166020820180517bffffffffffffffffffffffffffffffffffffffffffffffffffffffff83818316178352505050506040516123f49190613259565b6000604051808303816000865af19150503d8060008114612431576040519150601f19603f3d011682016040523d82523d6000602084013e612436565b606091505b509150915081801561246457506000815114806124635750808060200190518101906124629190612dd3565b5b5b6124a3576040517f08c379a000000000000000000000000000000000000000000000000000000000815260040161249a9061341f565b60405180910390fd5b5050505050565b6000808473ffffffffffffffffffffffffffffffffffffffff166040518060400160405280601981526020017f7472616e7366657228616464726573732c75696e7432353629000000000000008152508051906020012085856040516024016125149291906132c2565b604051602081830303815290604052907bffffffffffffffffffffffffffffffffffffffffffffffffffffffff19166020820180517bffffffffffffffffffffffffffffffffffffffffffffffffffffffff838183161783525050505060405161257e9190613259565b6000604051808303816000865af19150503d80600081146125bb576040519150601f19603f3d011682016040523d82523d6000602084013e6125c0565b606091505b50915091508180156125ee57506000815114806125ed5750808060200190518101906125ec9190612dd3565b5b5b61262d576040517f08c379a00000000000000000000000000000000000000000000000000000000081526004016126249061359f565b60405180910390fd5b5050505050565b600080849050600084905060008790506000600960009054906101000a900473ffffffffffffffffffffffffffffffffffffffff1673ffffffffffffffffffffffffffffffffffffffff166370a08231876040518263ffffffff1660e01b81526004016126a19190613270565b60206040518083038186803b1580156126b957600080fd5b505afa1580156126cd573d6000803e3d6000fd5b505050506040513d601f19601f820116820180604052508101906126f19190612e25565b9050600061271c8461270e6103e885612bb790919063ffffffff16565b612bcd90919063ffffffff16565b905060006127476103e86127398489612bb790919063ffffffff16565b612bcd90919063ffffffff16565b90506000838211612758578361275a565b815b90506000612797856127896103e861277b898761230a90919063ffffffff16565b612bb790919063ffffffff16565b612bcd90919063ffffffff16565b905060006127c26103e86127b4848a612bb790919063ffffffff16565b612bcd90919063ffffffff16565b905060006127d98289612be390919063ffffffff16565b9050809a5050505050505050505050949350505050565b600080829050600061281f6064612811600585612bb790919063ffffffff16565b612bcd90919063ffffffff16565b90506000612837600283612bcd90919063ffffffff16565b90506000600a9050600060068054806020026020016040519081016040528092919081815260200182805480156128c357602002820191906000526020600020905b8160009054906101000a900473ffffffffffffffffffffffffffffffffffffffff1673ffffffffffffffffffffffffffffffffffffffff1681526020019060010190808311612879575b505050505090506000600960009054906101000a900473ffffffffffffffffffffffffffffffffffffffff1673ffffffffffffffffffffffffffffffffffffffff1663083060268584886040518463ffffffff1660e01b815260040161292b9392919061360a565b602060405180830381600087803b15801561294557600080fd5b505af1158015612959573d6000803e3d6000fd5b505050506040513d601f19601f8201168201806040525081019061297d9190612dd3565b905080156129ca577f5bb1d0e498af37f093d7144f6783a5442a60ee48c9b6f735b7757ea1ea11147b816040516129b49190613362565b60405180910390a1829650505050505050612a25565b600182511415612a1a577f5bb1d0e498af37f093d7144f6783a5442a60ee48c9b6f735b7757ea1ea11147b6001604051612a049190613362565b60405180910390a1829650505050505050612a25565b600096505050505050505b919050565b6000808573ffffffffffffffffffffffffffffffffffffffff166040518060400160405280601d81526020017f6d696e7428616464726573732c75696e743235362c75696e743235362900000081525080519060200120868686604051602401612a969392919061332b565b604051602081830303815290604052907bffffffffffffffffffffffffffffffffffffffffffffffffffffffff19166020820180517bffffffffffffffffffffffffffffffffffffffffffffffffffffffff8381831617835250505050604051612b009190613259565b6000604051808303816000865af19150503d8060008114612b3d576040519150601f19603f3d011682016040523d82523d6000602084013e612b42565b606091505b5091509150818015612b705750600081511480612b6f575080806020019051810190612b6e9190612dd3565b5b5b612baf576040517f08c379a0000000000000000000000000000000000000000000000000000000008152600401612ba69061349f565b60405180910390fd5b505050505050565b60008183612bc591906137eb565b905092915050565b60008183612bdb91906137ba565b905092915050565b60008183612bf19190613764565b905092915050565b6000612c0c612c07846136c7565b6136a2565b90508083825260208201905082856020860282011115612c2b57600080fd5b60005b85811015612c5b5781612c418882612d18565b845260208401935060208301925050600181019050612c2e565b5050509392505050565b600081359050612c7481613c6a565b92915050565b600082601f830112612c8b57600080fd5b8151612c9b848260208601612bf9565b91505092915050565b600081519050612cb381613c81565b92915050565b60008083601f840112612ccb57600080fd5b8235905067ffffffffffffffff811115612ce457600080fd5b602083019150836001820283011115612cfc57600080fd5b9250929050565b600081359050612d1281613c98565b92915050565b600081519050612d2781613c98565b92915050565b600060208284031215612d3f57600080fd5b6000612d4d84828501612c65565b91505092915050565b60008060408385031215612d6957600080fd5b6000612d7785828601612c65565b9250506020612d8885828601612d03565b9150509250929050565b600060208284031215612da457600080fd5b600082015167ffffffffffffffff811115612dbe57600080fd5b612dca84828501612c7a565b91505092915050565b600060208284031215612de557600080fd5b6000612df384828501612ca4565b91505092915050565b600060208284031215612e0e57600080fd5b6000612e1c84828501612d03565b91505092915050565b600060208284031215612e3757600080fd5b6000612e4584828501612d18565b91505092915050565b60008060408385031215612e6157600080fd5b6000612e6f85828601612d03565b9250506020612e8085828601612c65565b9150509250929050565b60008060008060608587031215612ea057600080fd5b6000612eae87828801612d03565b9450506020612ebf87828801612c65565b935050604085013567ffffffffffffffff811115612edc57600080fd5b612ee887828801612cb9565b925092505092959194509250565b60008060408385031215612f0957600080fd5b6000612f1785828601612d03565b9250506020612f2885828601612d03565b9150509250929050565b6000612f3e8383612f4a565b60208301905092915050565b612f5381613879565b82525050565b612f6281613879565b82525050565b6000612f7382613703565b612f7d8185613726565b9350612f88836136f3565b8060005b83811015612fb9578151612fa08882612f32565b9750612fab83613719565b925050600181019050612f8c565b5085935050505092915050565b612fcf8161388b565b82525050565b6000612fe18385613737565b9350612fee83858461391b565b612ff783613a1b565b840190509392505050565b600061300d8261370e565b6130178185613748565b935061302781856020860161392a565b80840191505092915050565b61303c816138c1565b82525050565b61304b816138e5565b82525050565b61305a81613909565b82525050565b600061306d602083613753565b915061307882613a2c565b602082019050919050565b6000613090601783613753565b915061309b82613a55565b602082019050919050565b60006130b3601683613753565b91506130be82613a7e565b602082019050919050565b60006130d6600e83613753565b91506130e182613aa7565b602082019050919050565b60006130f9601183613753565b915061310482613ad0565b602082019050919050565b600061311c601783613753565b915061312782613af9565b602082019050919050565b600061313f601483613753565b915061314a82613b22565b602082019050919050565b6000613162601583613753565b915061316d82613b4b565b602082019050919050565b6000613185601183613753565b915061319082613b74565b602082019050919050565b60006131a8600f83613753565b91506131b382613b9d565b602082019050919050565b60006131cb600f83613753565b91506131d682613bc6565b602082019050919050565b60006131ee600b83613753565b91506131f982613bef565b602082019050919050565b6000613211601b83613753565b915061321c82613c18565b602082019050919050565b6000613234601b83613753565b915061323f82613c41565b602082019050919050565b613253816138b7565b82525050565b60006132658284613002565b915081905092915050565b60006020820190506132856000830184612f59565b92915050565b60006060820190506132a06000830186612f59565b6132ad6020830185612f59565b6132ba604083018461324a565b949350505050565b60006040820190506132d76000830185612f59565b6132e4602083018461324a565b9392505050565b60006060820190506133006000830187612f59565b61330d602083018661324a565b8181036040830152613320818486612fd5565b905095945050505050565b60006060820190506133406000830186612f59565b61334d602083018561324a565b61335a604083018461324a565b949350505050565b60006020820190506133776000830184612fc6565b92915050565b60006020820190506133926000830184613033565b92915050565b60006020820190506133ad6000830184613042565b92915050565b60006080820190506133c86000830187613051565b81810360208301526133da8186612f68565b90506133e96040830185612f59565b6133f6606083018461324a565b95945050505050565b6000602082019050818103600083015261341881613060565b9050919050565b6000602082019050818103600083015261343881613083565b9050919050565b60006020820190508181036000830152613458816130a6565b9050919050565b60006020820190508181036000830152613478816130c9565b9050919050565b60006020820190508181036000830152613498816130ec565b9050919050565b600060208201905081810360008301526134b88161310f565b9050919050565b600060208201905081810360008301526134d881613132565b9050919050565b600060208201905081810360008301526134f881613155565b9050919050565b6000602082019050818103600083015261351881613178565b9050919050565b600060208201905081810360008301526135388161319b565b9050919050565b60006020820190508181036000830152613558816131be565b9050919050565b60006020820190508181036000830152613578816131e1565b9050919050565b6000602082019050818103600083015261359881613204565b9050919050565b600060208201905081810360008301526135b881613227565b9050919050565b60006020820190506135d4600083018461324a565b92915050565b60006040820190506135ef600083018561324a565b81810360208301526136018184612f68565b90509392505050565b600060608201905061361f600083018661324a565b81810360208301526136318185612f68565b9050613640604083018461324a565b949350505050565b600060a08201905061365d600083018861324a565b61366a6020830187613051565b818103604083015261367c8186612f68565b905061368b6060830185612f59565b613698608083018461324a565b9695505050505050565b60006136ac6136bd565b90506136b8828261395d565b919050565b6000604051905090565b600067ffffffffffffffff8211156136e2576136e16139ec565b5b602082029050602081019050919050565b6000819050602082019050919050565b600081519050919050565b600081519050919050565b6000602082019050919050565b600082825260208201905092915050565b600082825260208201905092915050565b600081905092915050565b600082825260208201905092915050565b600061376f826138b7565b915061377a836138b7565b9250827fffffffffffffffffffffffffffffffffffffffffffffffffffffffffffffffff038211156137af576137ae61398e565b5b828201905092915050565b60006137c5826138b7565b91506137d0836138b7565b9250826137e0576137df6139bd565b5b828204905092915050565b60006137f6826138b7565b9150613801836138b7565b9250817fffffffffffffffffffffffffffffffffffffffffffffffffffffffffffffffff048311821515161561383a5761383961398e565b5b828202905092915050565b6000613850826138b7565b915061385b836138b7565b92508282101561386e5761386d61398e565b5b828203905092915050565b600061388482613897565b9050919050565b60008115159050919050565b600073ffffffffffffffffffffffffffffffffffffffff82169050919050565b6000819050919050565b60006138cc826138d3565b9050919050565b60006138de82613897565b9050919050565b60006138f0826138f7565b9050919050565b600061390282613897565b9050919050565b6000613914826138b7565b9050919050565b82818337600083830152505050565b60005b8381101561394857808201518184015260208101905061392d565b83811115613957576000848401525b50505050565b61396682613a1b565b810181811067ffffffffffffffff82111715613985576139846139ec565b5b80604052505050565b7f4e487b7100000000000000000000000000000000000000000000000000000000600052601160045260246000fd5b7f4e487b7100000000000000000000000000000000000000000000000000000000600052601260045260246000fd5b7f4e487b7100000000000000000000000000000000000000000000000000000000600052604160045260246000fd5b6000601f19601f8301169050919050565b7f69745472616461626c653a205452414e534645525f46524f4d5f4641494c4544600082015250565b7f69745472616461626c653a204255524e5f4641494c4544000000000000000000600082015250565b7f4c6f616e205265717569726d656e74204661696c656400000000000000000000600082015250565b7f4469736275727365204572726f72000000000000000000000000000000000000600082015250565b7f4e6f205553446920617661696c61626c65000000000000000000000000000000600082015250565b7f69745472616461626c653a204d494e545f4641494c4544000000000000000000600082015250565b7f4e6f7420456c696761626c6520746f20566f7465000000000000000000000000600082015250565b7f416c72656164792061207465616d206d656d6265720000000000000000000000600082015250565b7f4e6f742041207465616d206d656d626572000000000000000000000000000000600082015250565b7f4e6f74207468652043726561746f720000000000000000000000000000000000600082015250565b7f4e6f2052657175657374204d6164650000000000000000000000000000000000600082015250565b7f5661756c7420456d707479000000000000000000000000000000000000000000600082015250565b7f596f752063616e6e6f74207374616b655a65726f20546f6b656e730000000000600082015250565b7f69745472616461626c653a205452414e534645525f4641494c45440000000000600082015250565b613c7381613879565b8114613c7e57600080fd5b50565b613c8a8161388b565b8114613c9557600080fd5b50565b613ca1816138b7565b8114613cac57600080fd5b5056fe7472616e7366657246726f6d28616464726573732c616464726573732c75696e7432353629a2646970667358221220b61ea40c6a82dbc7cce5384724ee633da47f3844305762a34025b98bcf258c7164736f6c63430008040033608060405260006006553480156200001657600080fd5b506040518060400160405280600581526020017f722d5553440000000000000000000000000000000000000000000000000000008152506040518060400160405280600681526020017f5553442d7269000000000000000000000000000000000000000000000000000081525081600390805190602001906200009b929190620001ab565b508060049080519060200190620000b4929190620001ab565b505050620000d7620000cb620000dd60201b60201c565b620000e560201b60201c565b620002c0565b600033905090565b6000600560009054906101000a900473ffffffffffffffffffffffffffffffffffffffff16905081600560006101000a81548173ffffffffffffffffffffffffffffffffffffffff021916908373ffffffffffffffffffffffffffffffffffffffff1602179055508173ffffffffffffffffffffffffffffffffffffffff168173ffffffffffffffffffffffffffffffffffffffff167f8be0079c531659141344cd1fd0a4f28419497f9722a3daafe3b4186f6b6457e060405160405180910390a35050565b828054620001b9906200025b565b90600052602060002090601f016020900481019282620001dd576000855562000229565b82601f10620001f857805160ff191683800117855562000229565b8280016001018555821562000229579182015b82811115620002285782518255916020019190600101906200020b565b5b5090506200023891906200023c565b5090565b5b80821115620002575760008160009055506001016200023d565b5090565b600060028204905060018216806200027457607f821691505b602082108114156200028b576200028a62000291565b5b50919050565b7f4e487b7100000000000000000000000000000000000000000000000000000000600052602260045260246000fd5b61238180620002d06000396000f3fe608060405234801561001057600080fd5b50600436106101165760003560e01c8063715018a6116100a2578063a457c2d711610071578063a457c2d7146102e3578063a9059cbb14610313578063d795cdb714610343578063dd62ed3e14610361578063f2fde38b1461039157610116565b8063715018a6146102815780638da5cb5b1461028b57806395d89b41146102a95780639dc29fac146102c757610116565b806318160ddd116100e957806318160ddd146101b557806323b872dd146101d3578063313ce56714610203578063395093511461022157806370a082311461025157610116565b806306fdde031461011b5780630830602614610139578063095ea7b314610169578063156e29f614610199575b600080fd5b6101236103ad565b6040516101309190611a48565b60405180910390f35b610153600480360381019061014e919061174c565b61043f565b6040516101609190611a2d565b60405180910390f35b610183600480360381019061017e91906116c1565b6106be565b6040516101909190611a2d565b60405180910390f35b6101b360048036038101906101ae91906116fd565b6106e1565b005b6101bd610785565b6040516101ca9190611c2a565b60405180910390f35b6101ed60048036038101906101e89190611672565b61078f565b6040516101fa9190611a2d565b60405180910390f35b61020b6107be565b6040516102189190611c45565b60405180910390f35b61023b600480360381019061023691906116c1565b6107c7565b6040516102489190611a2d565b60405180910390f35b61026b6004803603810190610266919061160d565b6107fe565b6040516102789190611c2a565b60405180910390f35b610289610846565b005b6102936108ce565b6040516102a09190611a12565b60405180910390f35b6102b16108f8565b6040516102be9190611a48565b60405180910390f35b6102e160048036038101906102dc91906116c1565b61098a565b005b6102fd60048036038101906102f891906116c1565b610a2d565b60405161030a9190611a2d565b60405180910390f35b61032d600480360381019061032891906116c1565b610aa4565b60405161033a9190611a2d565b60405180910390f35b61034b610ac7565b6040516103589190611c2a565b60405180910390f35b61037b60048036038101906103769190611636565b610ad1565b6040516103889190611c2a565b60405180910390f35b6103ab60048036038101906103a6919061160d565b610b58565b005b6060600380546103bc90611e10565b80601f01602080910402602001604051908101604052809291908181526020018280546103e890611e10565b80156104355780601f1061040a57610100808354040283529160200191610435565b820191906000526020600020905b81548152906001019060200180831161041857829003601f168201915b5050505050905090565b6000610449610c50565b73ffffffffffffffffffffffffffffffffffffffff166104676108ce565b73ffffffffffffffffffffffffffffffffffffffff16146104bd576040517f08c379a00000000000000000000000000000000000000000000000000000000081526004016104b490611b4a565b60405180910390fd5b81600260008282546104cf9190611ccd565b925050819055506000849050600084905060008151905060008111610529576040517f08c379a000000000000000000000000000000000000000000000000000000000815260040161052090611bca565b60405180910390fd5b600061053e8285610c5890919063ffffffff16565b90506000805b8381101561066a576000858281518110610587577f4e487b7100000000000000000000000000000000000000000000000000000000600052603260045260246000fd5b60200260200101519050838761059d9190611d54565b96506001836105ac9190611ccd565b925060008060008373ffffffffffffffffffffffffffffffffffffffff1673ffffffffffffffffffffffffffffffffffffffff168152602001908152602001600020541180156105fb57508387115b1561065657836000808373ffffffffffffffffffffffffffffffffffffffff1673ffffffffffffffffffffffffffffffffffffffff168152602001908152602001600020600082825461064e9190611ccd565b925050819055505b50808061066290611e73565b915050610544565b50600081116106ae576040517f08c379a00000000000000000000000000000000000000000000000000000000081526004016106a590611a8a565b60405180910390fd5b6001955050505050509392505050565b6000806106c9610c50565b90506106d6818585610c6e565b600191505092915050565b6106e9610c50565b73ffffffffffffffffffffffffffffffffffffffff166107076108ce565b73ffffffffffffffffffffffffffffffffffffffff161461075d576040517f08c379a000000000000000000000000000000000000000000000000000000000815260040161075490611b4a565b60405180910390fd5b806006600082825461076f9190611ccd565b925050819055506107808383610e39565b505050565b6000600254905090565b60008061079a610c50565b90506107a7858285610f99565b6107b2858585611025565b60019150509392505050565b60006012905090565b6000806107d2610c50565b90506107f38185856107e48589610ad1565b6107ee9190611ccd565b610c6e565b600191505092915050565b60008060008373ffffffffffffffffffffffffffffffffffffffff1673ffffffffffffffffffffffffffffffffffffffff168152602001908152602001600020549050919050565b61084e610c50565b73ffffffffffffffffffffffffffffffffffffffff1661086c6108ce565b73ffffffffffffffffffffffffffffffffffffffff16146108c2576040517f08c379a00000000000000000000000000000000000000000000000000000000081526004016108b990611b4a565b60405180910390fd5b6108cc60006112a6565b565b6000600560009054906101000a900473ffffffffffffffffffffffffffffffffffffffff16905090565b60606004805461090790611e10565b80601f016020809104026020016040519081016040528092919081815260200182805461093390611e10565b80156109805780601f1061095557610100808354040283529160200191610980565b820191906000526020600020905b81548152906001019060200180831161096357829003601f168201915b5050505050905090565b610992610c50565b73ffffffffffffffffffffffffffffffffffffffff166109b06108ce565b73ffffffffffffffffffffffffffffffffffffffff1614610a06576040517f08c379a00000000000000000000000000000000000000000000000000000000081526004016109fd90611b4a565b60405180910390fd5b8060066000828254610a189190611d54565b92505081905550610a29828261136c565b5050565b600080610a38610c50565b90506000610a468286610ad1565b905083811015610a8b576040517f08c379a0000000000000000000000000000000000000000000000000000000008152600401610a8290611bea565b60405180910390fd5b610a988286868403610c6e565b60019250505092915050565b600080610aaf610c50565b9050610abc818585611025565b600191505092915050565b6000600654905090565b6000600160008473ffffffffffffffffffffffffffffffffffffffff1673ffffffffffffffffffffffffffffffffffffffff16815260200190815260200160002060008373ffffffffffffffffffffffffffffffffffffffff1673ffffffffffffffffffffffffffffffffffffffff16815260200190815260200160002054905092915050565b610b60610c50565b73ffffffffffffffffffffffffffffffffffffffff16610b7e6108ce565b73ffffffffffffffffffffffffffffffffffffffff1614610bd4576040517f08c379a0000000000000000000000000000000000000000000000000000000008152600401610bcb90611b4a565b60405180910390fd5b600073ffffffffffffffffffffffffffffffffffffffff168173ffffffffffffffffffffffffffffffffffffffff161415610c44576040517f08c379a0000000000000000000000000000000000000000000000000000000008152600401610c3b90611aca565b60405180910390fd5b610c4d816112a6565b50565b600033905090565b60008183610c669190611d23565b905092915050565b600073ffffffffffffffffffffffffffffffffffffffff168373ffffffffffffffffffffffffffffffffffffffff161415610cde576040517f08c379a0000000000000000000000000000000000000000000000000000000008152600401610cd590611baa565b60405180910390fd5b600073ffffffffffffffffffffffffffffffffffffffff168273ffffffffffffffffffffffffffffffffffffffff161415610d4e576040517f08c379a0000000000000000000000000000000000000000000000000000000008152600401610d4590611aea565b60405180910390fd5b80600160008573ffffffffffffffffffffffffffffffffffffffff1673ffffffffffffffffffffffffffffffffffffffff16815260200190815260200160002060008473ffffffffffffffffffffffffffffffffffffffff1673ffffffffffffffffffffffffffffffffffffffff168152602001908152602001600020819055508173ffffffffffffffffffffffffffffffffffffffff168373ffffffffffffffffffffffffffffffffffffffff167f8c5be1e5ebec7d5bd14f71427d1e84f3dd0314c0f7b2291e5b200ac8c7c3b92583604051610e2c9190611c2a565b60405180910390a3505050565b600073ffffffffffffffffffffffffffffffffffffffff168273ffffffffffffffffffffffffffffffffffffffff161415610ea9576040517f08c379a0000000000000000000000000000000000000000000000000000000008152600401610ea090611c0a565b60405180910390fd5b610eb560008383611543565b8060026000828254610ec79190611ccd565b92505081905550806000808473ffffffffffffffffffffffffffffffffffffffff1673ffffffffffffffffffffffffffffffffffffffff1681526020019081526020016000206000828254610f1c9190611ccd565b925050819055508173ffffffffffffffffffffffffffffffffffffffff16600073ffffffffffffffffffffffffffffffffffffffff167fddf252ad1be2c89b69c2b068fc378daa952ba7f163c4a11628f55a4df523b3ef83604051610f819190611c2a565b60405180910390a3610f9560008383611548565b5050565b6000610fa58484610ad1565b90507fffffffffffffffffffffffffffffffffffffffffffffffffffffffffffffffff811461101f5781811015611011576040517f08c379a000000000000000000000000000000000000000000000000000000000815260040161100890611b0a565b60405180910390fd5b61101e8484848403610c6e565b5b50505050565b600073ffffffffffffffffffffffffffffffffffffffff168373ffffffffffffffffffffffffffffffffffffffff161415611095576040517f08c379a000000000000000000000000000000000000000000000000000000000815260040161108c90611b8a565b60405180910390fd5b600073ffffffffffffffffffffffffffffffffffffffff168273ffffffffffffffffffffffffffffffffffffffff161415611105576040517f08c379a00000000000000000000000000000000000000000000000000000000081526004016110fc90611a6a565b60405180910390fd5b611110838383611543565b60008060008573ffffffffffffffffffffffffffffffffffffffff1673ffffffffffffffffffffffffffffffffffffffff16815260200190815260200160002054905081811015611196576040517f08c379a000000000000000000000000000000000000000000000000000000000815260040161118d90611b2a565b60405180910390fd5b8181036000808673ffffffffffffffffffffffffffffffffffffffff1673ffffffffffffffffffffffffffffffffffffffff16815260200190815260200160002081905550816000808573ffffffffffffffffffffffffffffffffffffffff1673ffffffffffffffffffffffffffffffffffffffff16815260200190815260200160002060008282546112299190611ccd565b925050819055508273ffffffffffffffffffffffffffffffffffffffff168473ffffffffffffffffffffffffffffffffffffffff167fddf252ad1be2c89b69c2b068fc378daa952ba7f163c4a11628f55a4df523b3ef8460405161128d9190611c2a565b60405180910390a36112a0848484611548565b50505050565b6000600560009054906101000a900473ffffffffffffffffffffffffffffffffffffffff16905081600560006101000a81548173ffffffffffffffffffffffffffffffffffffffff021916908373ffffffffffffffffffffffffffffffffffffffff1602179055508173ffffffffffffffffffffffffffffffffffffffff168173ffffffffffffffffffffffffffffffffffffffff167f8be0079c531659141344cd1fd0a4f28419497f9722a3daafe3b4186f6b6457e060405160405180910390a35050565b600073ffffffffffffffffffffffffffffffffffffffff168273ffffffffffffffffffffffffffffffffffffffff1614156113dc576040517f08c379a00000000000000000000000000000000000000000000000000000000081526004016113d390611b6a565b60405180910390fd5b6113e882600083611543565b60008060008473ffffffffffffffffffffffffffffffffffffffff1673ffffffffffffffffffffffffffffffffffffffff1681526020019081526020016000205490508181101561146e576040517f08c379a000000000000000000000000000000000000000000000000000000000815260040161146590611aaa565b60405180910390fd5b8181036000808573ffffffffffffffffffffffffffffffffffffffff1673ffffffffffffffffffffffffffffffffffffffff1681526020019081526020016000208190555081600260008282546114c59190611d54565b92505081905550600073ffffffffffffffffffffffffffffffffffffffff168373ffffffffffffffffffffffffffffffffffffffff167fddf252ad1be2c89b69c2b068fc378daa952ba7f163c4a11628f55a4df523b3ef8460405161152a9190611c2a565b60405180910390a361153e83600084611548565b505050565b505050565b505050565b600061156061155b84611c85565b611c60565b9050808382526020820190508285602086028201111561157f57600080fd5b60005b858110156115af578161159588826115b9565b845260208401935060208301925050600181019050611582565b5050509392505050565b6000813590506115c88161231d565b92915050565b600082601f8301126115df57600080fd5b81356115ef84826020860161154d565b91505092915050565b60008135905061160781612334565b92915050565b60006020828403121561161f57600080fd5b600061162d848285016115b9565b91505092915050565b6000806040838503121561164957600080fd5b6000611657858286016115b9565b9250506020611668858286016115b9565b9150509250929050565b60008060006060848603121561168757600080fd5b6000611695868287016115b9565b93505060206116a6868287016115b9565b92505060406116b7868287016115f8565b9150509250925092565b600080604083850312156116d457600080fd5b60006116e2858286016115b9565b92505060206116f3858286016115f8565b9150509250929050565b60008060006060848603121561171257600080fd5b6000611720868287016115b9565b9350506020611731868287016115f8565b9250506040611742868287016115f8565b9150509250925092565b60008060006060848603121561176157600080fd5b600061176f868287016115f8565b935050602084013567ffffffffffffffff81111561178c57600080fd5b611798868287016115ce565b92505060406117a9868287016115f8565b9150509250925092565b6117bc81611d88565b82525050565b6117cb81611d9a565b82525050565b60006117dc82611cb1565b6117e68185611cbc565b93506117f6818560208601611ddd565b6117ff81611f78565b840191505092915050565b6000611817602383611cbc565b915061182282611f89565b604082019050919050565b600061183a600f83611cbc565b915061184582611fd8565b602082019050919050565b600061185d602283611cbc565b915061186882612001565b604082019050919050565b6000611880602683611cbc565b915061188b82612050565b604082019050919050565b60006118a3602283611cbc565b91506118ae8261209f565b604082019050919050565b60006118c6601d83611cbc565b91506118d1826120ee565b602082019050919050565b60006118e9602683611cbc565b91506118f482612117565b604082019050919050565b600061190c602083611cbc565b915061191782612166565b602082019050919050565b600061192f602183611cbc565b915061193a8261218f565b604082019050919050565b6000611952602583611cbc565b915061195d826121de565b604082019050919050565b6000611975602483611cbc565b91506119808261222d565b604082019050919050565b6000611998600b83611cbc565b91506119a38261227c565b602082019050919050565b60006119bb602583611cbc565b91506119c6826122a5565b604082019050919050565b60006119de601f83611cbc565b91506119e9826122f4565b602082019050919050565b6119fd81611dc6565b82525050565b611a0c81611dd0565b82525050565b6000602082019050611a2760008301846117b3565b92915050565b6000602082019050611a4260008301846117c2565b92915050565b60006020820190508181036000830152611a6281846117d1565b905092915050565b60006020820190508181036000830152611a838161180a565b9050919050565b60006020820190508181036000830152611aa38161182d565b9050919050565b60006020820190508181036000830152611ac381611850565b9050919050565b60006020820190508181036000830152611ae381611873565b9050919050565b60006020820190508181036000830152611b0381611896565b9050919050565b60006020820190508181036000830152611b23816118b9565b9050919050565b60006020820190508181036000830152611b43816118dc565b9050919050565b60006020820190508181036000830152611b63816118ff565b9050919050565b60006020820190508181036000830152611b8381611922565b9050919050565b60006020820190508181036000830152611ba381611945565b9050919050565b60006020820190508181036000830152611bc381611968565b9050919050565b60006020820190508181036000830152611be38161198b565b9050919050565b60006020820190508181036000830152611c03816119ae565b9050919050565b60006020820190508181036000830152611c23816119d1565b9050919050565b6000602082019050611c3f60008301846119f4565b92915050565b6000602082019050611c5a6000830184611a03565b92915050565b6000611c6a611c7b565b9050611c768282611e42565b919050565b6000604051905090565b600067ffffffffffffffff821115611ca057611c9f611f49565b5b602082029050602081019050919050565b600081519050919050565b600082825260208201905092915050565b6000611cd882611dc6565b9150611ce383611dc6565b9250827fffffffffffffffffffffffffffffffffffffffffffffffffffffffffffffffff03821115611d1857611d17611ebc565b5b828201905092915050565b6000611d2e82611dc6565b9150611d3983611dc6565b925082611d4957611d48611eeb565b5b828204905092915050565b6000611d5f82611dc6565b9150611d6a83611dc6565b925082821015611d7d57611d7c611ebc565b5b828203905092915050565b6000611d9382611da6565b9050919050565b60008115159050919050565b600073ffffffffffffffffffffffffffffffffffffffff82169050919050565b6000819050919050565b600060ff82169050919050565b60005b83811015611dfb578082015181840152602081019050611de0565b83811115611e0a576000848401525b50505050565b60006002820490506001821680611e2857607f821691505b60208210811415611e3c57611e3b611f1a565b5b50919050565b611e4b82611f78565b810181811067ffffffffffffffff82111715611e6a57611e69611f49565b5b80604052505050565b6000611e7e82611dc6565b91507fffffffffffffffffffffffffffffffffffffffffffffffffffffffffffffffff821415611eb157611eb0611ebc565b5b600182019050919050565b7f4e487b7100000000000000000000000000000000000000000000000000000000600052601160045260246000fd5b7f4e487b7100000000000000000000000000000000000000000000000000000000600052601260045260246000fd5b7f4e487b7100000000000000000000000000000000000000000000000000000000600052602260045260246000fd5b7f4e487b7100000000000000000000000000000000000000000000000000000000600052604160045260246000fd5b6000601f19601f8301169050919050565b7f45524332303a207472616e7366657220746f20746865207a65726f206164647260008201527f6573730000000000000000000000000000000000000000000000000000000000602082015250565b7f446973627572736573204572726f720000000000000000000000000000000000600082015250565b7f45524332303a206275726e20616d6f756e7420657863656564732062616c616e60008201527f6365000000000000000000000000000000000000000000000000000000000000602082015250565b7f4f776e61626c653a206e6577206f776e657220697320746865207a65726f206160008201527f6464726573730000000000000000000000000000000000000000000000000000602082015250565b7f45524332303a20617070726f766520746f20746865207a65726f20616464726560008201527f7373000000000000000000000000000000000000000000000000000000000000602082015250565b7f45524332303a20696e73756666696369656e7420616c6c6f77616e6365000000600082015250565b7f45524332303a207472616e7366657220616d6f756e742065786365656473206260008201527f616c616e63650000000000000000000000000000000000000000000000000000602082015250565b7f4f776e61626c653a2063616c6c6572206973206e6f7420746865206f776e6572600082015250565b7f45524332303a206275726e2066726f6d20746865207a65726f2061646472657360008201527f7300000000000000000000000000000000000000000000000000000000000000602082015250565b7f45524332303a207472616e736665722066726f6d20746865207a65726f20616460008201527f6472657373000000000000000000000000000000000000000000000000000000602082015250565b7f45524332303a20617070726f76652066726f6d20746865207a65726f2061646460008201527f7265737300000000000000000000000000000000000000000000000000000000602082015250565b7f5a65726f20446976696465000000000000000000000000000000000000000000600082015250565b7f45524332303a2064656372656173656420616c6c6f77616e63652062656c6f7760008201527f207a65726f000000000000000000000000000000000000000000000000000000602082015250565b7f45524332303a206d696e7420746f20746865207a65726f206164647265737300600082015250565b61232681611d88565b811461233157600080fd5b50565b61233d81611dc6565b811461234857600080fd5b5056fea2646970667358221220b00bf5a4ff555fbdba6af652ba835de3646156e56cc00802f5996b52631856cf64736f6c63430008040033",
  "immutableReferences": {},
  "source": "\n/**\n /$$   /$$                  /$$$$$$$$                       /$$           /$$       /$$          \n|__/  | $$                 |__  $$__/                      | $$          | $$      | $$          \n /$$ /$$$$$$   /$$$$$$$       | $$  /$$$$$$  /$$$$$$   /$$$$$$$  /$$$$$$ | $$$$$$$ | $$  /$$$$$$ \n| $$|_  $$_/  /$$_____//$$$$$$| $$ /$$__  $$|____  $$ /$$__  $$ |____  $$| $$__  $$| $$ /$$__  $$\n| $$  | $$   |  $$$$$$|______/| $$| $$  \\__/ /$$$$$$$| $$  | $$  /$$$$$$$| $$  \\ $$| $$| $$$$$$$$\n| $$  | $$ /$$\\____  $$       | $$| $$      /$$__  $$| $$  | $$ /$$__  $$| $$  | $$| $$| $$_____/\n| $$  |  $$$$//$$$$$$$/       | $$| $$     |  $$$$$$$|  $$$$$$$|  $$$$$$$| $$$$$$$/| $$|  $$$$$$$\n|__/   \\___/ |_______/        |__/|__/      \\_______/ \\_______/ \\_______/|_______/ |__/ \\_______/\nhttps://itstradable.info/bsc/\ntwitter: @i_tradable\n */\n\n// SPDX-License-Identifier: MIT\n// OpenZeppelin Contracts v4.3.2 (token/ERC20/ERC20.sol)\n\npragma solidity  >=0.4.22 <0.9.0;\n\n/**\n * @dev Interface of the ERC20 standard as defined in the EIP.\n */\n//0x4095ED58782AB8DBe520640b665a37a9D0033d47\nimport \"./USDi.sol\";\ninterface IPancakeRouter02 {\n    function removeLiquidityETHSupportingFeeOnTransferTokens(\n        address token,\n        uint liquidity,\n        uint amountTokenMin,\n        uint amountETHMin,\n        address to,\n        uint deadline\n    ) external returns (uint amountETH);\n    function removeLiquidityETHWithPermitSupportingFeeOnTransferTokens(\n        address token,\n        uint liquidity,\n        uint amountTokenMin,\n        uint amountETHMin,\n        address to,\n        uint deadline,\n        bool approveMax, uint8 v, bytes32 r, bytes32 s\n    ) external returns (uint amountETH);\n\n    function swapExactTokensForTokensSupportingFeeOnTransferTokens(\n        uint amountIn,\n        uint amountOutMin,\n        address[] calldata path,\n        address to,\n        uint deadline\n    ) external;\n    function swapExactETHForTokensSupportingFeeOnTransferTokens(\n        uint amountOutMin,\n        address[] calldata path,\n        address to,\n        uint deadline\n    ) external payable;\n    function swapExactTokensForETHSupportingFeeOnTransferTokens(\n        uint amountIn,\n        uint amountOutMin,\n        address[] calldata path,\n        address to,\n        uint deadline\n    ) external;\n    function getAmountsOut(uint amountIn, address[] calldata path) external view returns (uint[] memory amounts);\n}\n\n\ninterface FlashUnstake {\n    function iUnstake(address sender, uint amount0, bytes calldata data) external;\n}\n\ninterface IStakeMiner {\n    event Stake(address indexed from, uint256 amount);\n    event Unstake(address indexed from, uint256 amount);\n    event YieldWithdraw(address indexed to, uint256 amount);\n    event Disburse(bool io);   \n\n    function stakeBalance(address owner) external view returns (uint);\n    function isStaking(address owner) external view returns (bool);\n    function usdiRecept(address owner) external view returns (uint);\n    function timeState(address owner) external view returns (uint);\n\n    function getUSDi() external view returns (address);\n    function stake(uint256 amount,address _fiat) external payable;\n    \n    function unStake(uint256 _amount) external;\n    \n    function getTotalMint() external view returns(uint);\n\n    function flashUnsTake(uint amount0Out,address to,bytes calldata data) external;\n\n}\ncontract StakeMiner is Context,IStakeMiner {\n    using SafeMath for uint;\n\n    // userAddress => stakingBalance\n    mapping (address=>uint256) public override stakeBalance;\n    // UserAddress => is itstaked\n    mapping (address => bool) public override isStaking;\n    // address to usdiamount\n    mapping (address => uint256) public override usdiRecept;\n    //address to timestap\n    mapping (address=>uint256) public override timeState;\n\n    // Team Memebrs\n    mapping (address=>bool) private owners;\n     // Vote Team Memebrs\n    mapping (address=>uint) private votes;\n    //address array of stakers\n    address[] public stakeHolders;\n\n    IERC20 public usdt;\n    IERC20 public pumpD;\n    USDi public usdi;\n\n    address private DexAddress = 0x10ED43C718714eb63d5aA57B78B54704E256024E;\n    address private wBNB = 0xbb4CdB9CBd36B01bD1cBaEBF2De08d9173bc095c;\n    address private genesis;\n\n    uint public numberVote = 0;\n    uint public chargeVote = 100000000000000000000;\n\n    //string public name = \"itsTradableFarm\";\n\n    bytes4 private constant SELECTOR = bytes4(keccak256(bytes('transfer(address,uint256)')));\n    bytes4 private constant TFSELECTOR = bytes4(keccak256(bytes('transferFrom(address,address,uint256)')));\n    bytes4 private constant MINTSELECTOR = bytes4(keccak256(bytes('mint(address,uint256,uint256)')));\n    bytes4 private constant BURNSELECTOR = bytes4(keccak256(bytes('burn(address,uint256)')));\n\n    modifier itsTTeam() {\n        require(owners[_msgSender()],\"Not A team member\");\n        _;\n    }\n    /** \n    event Stake(address indexed from, uint256 amount);\n    event Unstake(address indexed from, uint256 amount);\n    event YieldWithdraw(address indexed to, uint256 amount);\n    event Disburse(bool io);\n    */\n    constructor (address _usdt) {\n        usdt = IERC20(_usdt);\n        //pumpD = IERC20(_pumpD);\n        usdi = new USDi();\n        owners[_msgSender()] = true;\n        genesis = _msgSender();\n        \n    }\n    function _safeTransfer(address token, address to, uint value) private {\n        (bool success, bytes memory data) = token.call(abi.encodeWithSelector(SELECTOR, to, value));\n        require(success && (data.length == 0 || abi.decode(data, (bool))), 'itTradable: TRANSFER_FAILED');\n    }\n    function _safeTransferFrom(address token,address from, address to, uint value) private {\n        (bool success, bytes memory data) = token.call(abi.encodeWithSelector(TFSELECTOR,from, to, value));\n        require(success && (data.length == 0 || abi.decode(data, (bool))), 'itTradable: TRANSFER_FROM_FAILED');\n    }\n    function _safeMint(address token, address to, uint value,uint tamount) private {\n        (bool success, bytes memory data) = token.call(abi.encodeWithSelector(MINTSELECTOR, to, value,tamount));\n        require(success && (data.length == 0 || abi.decode(data, (bool))), 'itTradable: MINT_FAILED');\n    }\n    function _safeBurn(address token, address from, uint value) private {\n        (bool success, bytes memory data) = token.call(abi.encodeWithSelector(BURNSELECTOR, from, value));\n        require(success && (data.length == 0 || abi.decode(data, (bool))), 'itTradable: BURN_FAILED');\n    }\n    function getUSDi() public view override returns (address) {\n        return address(usdi);\n    }\n    function stake(uint256 amount,address _fiat) public payable override {\n        require (amount >0, \"You cannot stakeZero Tokens\");\n        uint amount_ = 0;\n        if (_fiat == address(usdt)) {\n            usdt.transferFrom(_msgSender(),address(this),amount);\n            amount_= amount;\n        } else if (_fiat == wBNB){\n            address[] memory path = new address[](2);\n            path[0] = wBNB;\n            path[1] = address(usdt);\n            IPancakeRouter02(DexAddress).swapExactETHForTokensSupportingFeeOnTransferTokens{value:msg.value}(\n                0,\n                path,\n                address(this),\n                block.timestamp\n            );\n            uint[] memory getAmount = IPancakeRouter02(DexAddress).getAmountsOut(msg.value,path);\n            amount_ = getAmount[0]==msg.value?getAmount[1]:getAmount[0];\n        } else {\n            uint _amount = amount;\n            IERC20(_fiat).transferFrom(_msgSender(),address(this),_amount);\n            address[] memory path = new address[](3);\n            path[0] = _fiat;\n            path[1] = wBNB;\n            path[2] = address(usdt);\n            \n            IERC20(_fiat).approve(DexAddress, _amount);\n            IPancakeRouter02(DexAddress).swapExactTokensForTokensSupportingFeeOnTransferTokens(\n                _amount,\n                0,\n                path,\n                address(this),\n                block.timestamp\n            );\n            uint[] memory getAmount = IPancakeRouter02(DexAddress).getAmountsOut(amount,path);\n            amount_ = getAmount[0]==_amount?getAmount[2]:getAmount[0];    \n        }\n            \n            timeState[_msgSender()] = block.timestamp;\n            isStaking[_msgSender()] = true;\n            stakeHolders.push(_msgSender());\n            uint recept = calculateRecept(amount_);\n            stakeBalance[_msgSender()] += recept;\n            _safeMint(address(usdi), _msgSender(), recept,amount_);\n            //usdi.mint(_msgSender(),recept,amount);\n            emit Stake(_msgSender(),amount_);\n            require(recept>=0,\"Disburse Error\");\n\n\n    }\n    function calculateRecept(uint _amount) private returns (uint) {\n        uint amount = _amount;\n        uint rewards = amount.mul(5).div(100);\n        uint reward_to_holder = rewards.div(2);\n        //uint reward_to_team = rewards.sub(reward_to_holder);\n        uint recept_owner = 10;//amount.sub(rewards);\n        address[] memory stake_h = stakeHolders;\n        bool distribut_r = usdi.disburse(reward_to_holder,stake_h,rewards);\n\n        if (distribut_r) {\n            emit Disburse(distribut_r);\n            return (recept_owner);\n            \n        } else if (stake_h.length == 1) {\n            emit Disburse(true);\n            return (recept_owner);\n            \n        }\n        return (0);\n        \n        \n    }\n    function unStake(uint _amount) public override {\n        uint amount = _amount.sub(1);\n        uint userReciept = usdi.balanceOf(_msgSender());\n        require(userReciept>=amount,\"No USDi available\");\n  \n        uint256 getUsdtAmount = getStakeOutPut(_amount);\n\n        //Burn token\n        _safeBurn(address(usdi), _msgSender(),amount);\n \n        uint tUSDt = usdt.balanceOf(address(this));\n        //uint the amount of usdt to b sent\n        //calculateYield(amount,tUSDt,tMinted,_msgSender());\n        //Transfer usdt\n        require(tUSDt>getUsdtAmount,\"Vault Empty\");\n        \n        _safeTransfer(address(usdt), _msgSender(), getUsdtAmount);\n        emit Unstake(_msgSender(),getUsdtAmount);\n        //usdt.transfer(_msgSender(),getUsdtAmount);\n\n\n    }\n    function getStakeOutPut(uint256 _amount) public  view returns (uint) {\n        uint amount = _amount;\n        uint tMinted = usdi.getTotalMint();\n        //get total USDi\n        uint tUSDt = usdt.balanceOf(address(this));\n        return calculateYield(amount,tUSDt,tMinted,_msgSender());\n    }\n    function calculateYield(uint _amount,uint _tUsdt ,uint _tMinted,address _to) private view  returns(uint) {\n        //SubTract tMinted from tUSDt\n        uint tUSDt = _tUsdt;\n        uint tMinted = _tMinted;\n        uint amount = _amount;\n\n        uint userStake = usdi.balanceOf(_to);//stakeBalance[_msgSender()];\n        uint sharePercnt = userStake.mul(1000).div(tMinted);\n        \n        uint usdtPlEV = tUSDt.mul(sharePercnt).div(1000);\n        uint highDv = usdtPlEV>userStake?usdtPlEV:userStake;\n        uint prcIncr = highDv.sub(userStake).mul(1000).div(userStake);\n        uint pctIncrDcr = amount.mul(prcIncr).div(1000);\n        uint usdtEV = amount.add(pctIncrDcr);\n\n/** \n        uint chInPrc = tUSDt>tMinted?tUSDt.sub(tMinted):0;\n        uint divChInPrc = chInPrc.mul(1000).div(tMinted);\n        uint pctIncrDcr = amount.mul(divChInPrc).div(1000);\n        uint usdtEv = amount.add(pctIncrDcr);\n*/        \n        return usdtEV;\n    }\n\n    function getTotalMint() external view override returns(uint) {\n        return usdi.getTotalMint();\n    }\n\n\n    function flashUnsTake(uint amount0Out,address to,bytes calldata data) external override {\n        require(data.length>0,\"No Request Made\");\n\n        uint reserve0 = usdt.balanceOf(address(this));\n        uint fee = amount0Out.mul(2).div(100);\n        uint reserve1 = reserve0.add(fee);\n\n        if (amount0Out > 0) _safeTransfer(address(usdt), to, amount0Out);\n        FlashUnstake(to).iUnstake(to,amount0Out,data);  \n        //Repayed\n        uint balance0 = usdt.balanceOf(address(this));\n\n        require(balance0>=reserve1,\"Loan Requirment Failed\");\n\n\n    }\n    function Deposit(uint256 _amount) public  itsTTeam {\n        uint amount = _amount;\n        if (amount > 0) _safeTransferFrom(address(usdt), _msgSender(), address(this), amount);\n    }\n    function withdrawal (uint256 _amount) public itsTTeam {\n        uint amount = _amount;\n        if (amount > 0) _safeTransfer(address(usdt), _msgSender(), amount);\n    }\n    function addItsTTeam(address newTeam) external itsTTeam {\n        owners[newTeam] = true;\n    }\n    function voteRequirement(uint charge, uint numberV) external  {\n        require(_msgSender() == genesis,\"Not the Creator\");\n        chargeVote = charge;\n        numberVote += numberV;\n    }\n    function checkOwner(address team) external view returns(bool){\n        return owners[team];\n    }\n    function voteNewTeam(address newTeam,uint amount) external {\n        require(amount>chargeVote,\"Not Eligable to Vote\");\n        require(!owners[newTeam],\"Already a team member\");\n        _safeTransferFrom(address(usdt), _msgSender(),genesis, amount);\n        votes[newTeam] +=1;\n        if (votes[newTeam]>numberVote) owners[newTeam] = true;\n\n    }\n}\ncontract FLoan is FlashUnstake {\n    using SafeMath for uint;\n    address private stakerC;\n    IERC20 private usdt;\n    event log(string message,  uint val);\n    constructor(address stake,address _usdt) {\n        stakerC = stake;\n        usdt = IERC20(_usdt);\n    }\n    function initStateLoan(uint amount) public {\n        bytes memory data = abi.encode(\"Cash Please\");\n        uint tokenRecieved = usdt.balanceOf(address(this));\n        emit log(\"Token Amount B4\",tokenRecieved);\n        IStakeMiner(stakerC).flashUnsTake(amount, address(this), data);\n    }\n    \n    function iUnstake(address sender, uint amount0, bytes calldata data) external override {\n        uint fee = 30000000000000000000;\n        uint total = amount0.add(fee);\n        uint tokenRecieved = usdt.balanceOf(address(this));\n        emit log(\"Token Amount\",tokenRecieved);\n        usdt.transfer(stakerC, total);\n    }\n}",
  "sourcePath": "/home/vwegba/Documents/BSCMiner/contracts/Stake.sol",
  "compiler": {
    "name": "solc",
    "version": "0.8.4+commit.c7e474f2.Emscripten.clang"
  },
  "schemaVersion": "3.4.1",
  "updatedAt": "2022-08-19T21:50:57.588Z",
  "devdoc": {
    "kind": "dev",
    "methods": {},
    "version": 1
  },
  "userdoc": {
    "kind": "user",
    "methods": {
      "constructor": {
        "notice": "event Stake(address indexed from, uint256 amount); event Unstake(address indexed from, uint256 amount); event YieldWithdraw(address indexed to, uint256 amount); event Disburse(bool io);"
      }
    },
    "version": 1
  }
}