{
  "contractName": "StakeHolder",
  "abi": [
    {
      "inputs": [
        {
          "internalType": "address",
          "name": "_usdt",
          "type": "address"
        }
      ],
      "stateMutability": "nonpayable",
      "type": "constructor"
    },
    {
      "anonymous": false,
      "inputs": [
        {
          "indexed": false,
          "internalType": "bool",
          "name": "io",
          "type": "bool"
        }
      ],
      "name": "Disburse",
      "type": "event"
    },
    {
      "anonymous": false,
      "inputs": [
        {
          "indexed": true,
          "internalType": "address",
          "name": "from",
          "type": "address"
        },
        {
          "indexed": false,
          "internalType": "uint256",
          "name": "amount",
          "type": "uint256"
        }
      ],
      "name": "Stake",
      "type": "event"
    },
    {
      "anonymous": false,
      "inputs": [
        {
          "indexed": true,
          "internalType": "address",
          "name": "from",
          "type": "address"
        },
        {
          "indexed": false,
          "internalType": "uint256",
          "name": "amount",
          "type": "uint256"
        }
      ],
      "name": "Unstake",
      "type": "event"
    },
    {
      "anonymous": false,
      "inputs": [
        {
          "indexed": true,
          "internalType": "address",
          "name": "to",
          "type": "address"
        },
        {
          "indexed": false,
          "internalType": "uint256",
          "name": "amount",
          "type": "uint256"
        }
      ],
      "name": "YieldWithdraw",
      "type": "event"
    },
    {
      "inputs": [],
      "name": "chargeVote",
      "outputs": [
        {
          "internalType": "uint256",
          "name": "",
          "type": "uint256"
        }
      ],
      "stateMutability": "view",
      "type": "function"
    },
    {
      "inputs": [
        {
          "internalType": "address",
          "name": "",
          "type": "address"
        }
      ],
      "name": "isStaking",
      "outputs": [
        {
          "internalType": "bool",
          "name": "",
          "type": "bool"
        }
      ],
      "stateMutability": "view",
      "type": "function"
    },
    {
      "inputs": [],
      "name": "name",
      "outputs": [
        {
          "internalType": "string",
          "name": "",
          "type": "string"
        }
      ],
      "stateMutability": "view",
      "type": "function"
    },
    {
      "inputs": [],
      "name": "numberVote",
      "outputs": [
        {
          "internalType": "uint256",
          "name": "",
          "type": "uint256"
        }
      ],
      "stateMutability": "view",
      "type": "function"
    },
    {
      "inputs": [],
      "name": "pumpD",
      "outputs": [
        {
          "internalType": "contract IERC20",
          "name": "",
          "type": "address"
        }
      ],
      "stateMutability": "view",
      "type": "function"
    },
    {
      "inputs": [
        {
          "internalType": "address",
          "name": "",
          "type": "address"
        }
      ],
      "name": "stakeBalance",
      "outputs": [
        {
          "internalType": "uint256",
          "name": "",
          "type": "uint256"
        }
      ],
      "stateMutability": "view",
      "type": "function"
    },
    {
      "inputs": [
        {
          "internalType": "uint256",
          "name": "",
          "type": "uint256"
        }
      ],
      "name": "stakeHolders",
      "outputs": [
        {
          "internalType": "address",
          "name": "",
          "type": "address"
        }
      ],
      "stateMutability": "view",
      "type": "function"
    },
    {
      "inputs": [
        {
          "internalType": "address",
          "name": "",
          "type": "address"
        }
      ],
      "name": "timeState",
      "outputs": [
        {
          "internalType": "uint256",
          "name": "",
          "type": "uint256"
        }
      ],
      "stateMutability": "view",
      "type": "function"
    },
    {
      "inputs": [],
      "name": "usdi",
      "outputs": [
        {
          "internalType": "contract USDi",
          "name": "",
          "type": "address"
        }
      ],
      "stateMutability": "view",
      "type": "function"
    },
    {
      "inputs": [
        {
          "internalType": "address",
          "name": "",
          "type": "address"
        }
      ],
      "name": "usdiRecept",
      "outputs": [
        {
          "internalType": "uint256",
          "name": "",
          "type": "uint256"
        }
      ],
      "stateMutability": "view",
      "type": "function"
    },
    {
      "inputs": [],
      "name": "usdt",
      "outputs": [
        {
          "internalType": "contract IERC20",
          "name": "",
          "type": "address"
        }
      ],
      "stateMutability": "view",
      "type": "function"
    },
    {
      "inputs": [],
      "name": "getUSDi",
      "outputs": [
        {
          "internalType": "address",
          "name": "",
          "type": "address"
        }
      ],
      "stateMutability": "view",
      "type": "function"
    },
    {
      "inputs": [
        {
          "internalType": "uint256",
          "name": "amount",
          "type": "uint256"
        },
        {
          "internalType": "address",
          "name": "_fiat",
          "type": "address"
        }
      ],
      "name": "stake",
      "outputs": [],
      "stateMutability": "payable",
      "type": "function"
    },
    {
      "inputs": [
        {
          "internalType": "uint256",
          "name": "_amount",
          "type": "uint256"
        }
      ],
      "name": "unStake",
      "outputs": [],
      "stateMutability": "nonpayable",
      "type": "function"
    },
    {
      "inputs": [
        {
          "internalType": "uint256",
          "name": "_amount",
          "type": "uint256"
        }
      ],
      "name": "getStakeOutPut",
      "outputs": [
        {
          "internalType": "uint256",
          "name": "",
          "type": "uint256"
        }
      ],
      "stateMutability": "view",
      "type": "function"
    },
    {
      "inputs": [],
      "name": "getTotalMint",
      "outputs": [
        {
          "internalType": "uint256",
          "name": "",
          "type": "uint256"
        }
      ],
      "stateMutability": "view",
      "type": "function"
    },
    {
      "inputs": [
        {
          "internalType": "uint256",
          "name": "amount0Out",
          "type": "uint256"
        },
        {
          "internalType": "address",
          "name": "to",
          "type": "address"
        },
        {
          "internalType": "bytes",
          "name": "data",
          "type": "bytes"
        }
      ],
      "name": "flashUnsTake",
      "outputs": [],
      "stateMutability": "nonpayable",
      "type": "function"
    },
    {
      "inputs": [
        {
          "internalType": "uint256",
          "name": "_amount",
          "type": "uint256"
        }
      ],
      "name": "Deposit",
      "outputs": [],
      "stateMutability": "nonpayable",
      "type": "function"
    },
    {
      "inputs": [
        {
          "internalType": "uint256",
          "name": "_amount",
          "type": "uint256"
        }
      ],
      "name": "withdrawal",
      "outputs": [],
      "stateMutability": "nonpayable",
      "type": "function"
    },
    {
      "inputs": [
        {
          "internalType": "address",
          "name": "newTeam",
          "type": "address"
        }
      ],
      "name": "addItsTTeam",
      "outputs": [],
      "stateMutability": "nonpayable",
      "type": "function"
    },
    {
      "inputs": [
        {
          "internalType": "uint256",
          "name": "charge",
          "type": "uint256"
        },
        {
          "internalType": "uint256",
          "name": "numberV",
          "type": "uint256"
        }
      ],
      "name": "voteRequirement",
      "outputs": [],
      "stateMutability": "nonpayable",
      "type": "function"
    },
    {
      "inputs": [
        {
          "internalType": "address",
          "name": "team",
          "type": "address"
        }
      ],
      "name": "checkOwner",
      "outputs": [
        {
          "internalType": "bool",
          "name": "",
          "type": "bool"
        }
      ],
      "stateMutability": "view",
      "type": "function"
    },
    {
      "inputs": [
        {
          "internalType": "address",
          "name": "newTeam",
          "type": "address"
        },
        {
          "internalType": "uint256",
          "name": "amount",
          "type": "uint256"
        }
      ],
      "name": "voteNewTeam",
      "outputs": [],
      "stateMutability": "nonpayable",
      "type": "function"
    }
  ],
  "bytecode": "0x60806040527310ed43c718714eb63d5aa57b78b54704e256024e600a60006101000a81548173ffffffffffffffffffffffffffffffffffffffff021916908373ffffffffffffffffffffffffffffffffffffffff16021790555073bb4cdb9cbd36b01bd1cbaebf2de08d9173bc095c600b60006101000a81548173ffffffffffffffffffffffffffffffffffffffff021916908373ffffffffffffffffffffffffffffffffffffffff1602179055506000600d5568056bc75e2d63100000600e556040518060400160405280600f81526020017f6974735472616461626c654661726d0000000000000000000000000000000000815250600f90805190602001906200010d929190620002b4565b503480156200011b57600080fd5b506040516200696e3803806200696e833981810160405281019062000141919062000389565b80600760006101000a81548173ffffffffffffffffffffffffffffffffffffffff021916908373ffffffffffffffffffffffffffffffffffffffff160217905550604051620001909062000345565b604051809103906000f080158015620001ad573d6000803e3d6000fd5b50600960006101000a81548173ffffffffffffffffffffffffffffffffffffffff021916908373ffffffffffffffffffffffffffffffffffffffff16021790555060016004600062000204620002ac60201b60201c565b73ffffffffffffffffffffffffffffffffffffffff1673ffffffffffffffffffffffffffffffffffffffff16815260200190815260200160002060006101000a81548160ff02191690831515021790555062000265620002ac60201b60201c565b600c60006101000a81548173ffffffffffffffffffffffffffffffffffffffff021916908373ffffffffffffffffffffffffffffffffffffffff1602179055505062000468565b600033905090565b828054620002c290620003e9565b90600052602060002090601f016020900481019282620002e6576000855562000332565b82601f106200030157805160ff191683800117855562000332565b8280016001018555821562000332579182015b828111156200033157825182559160200191906001019062000314565b5b50905062000341919062000353565b5090565b612651806200431d83390190565b5b808211156200036e57600081600090555060010162000354565b5090565b60008151905062000383816200044e565b92915050565b6000602082840312156200039c57600080fd5b6000620003ac8482850162000372565b91505092915050565b6000620003c282620003c9565b9050919050565b600073ffffffffffffffffffffffffffffffffffffffff82169050919050565b600060028204905060018216806200040257607f821691505b602082108114156200041957620004186200041f565b5b50919050565b7f4e487b7100000000000000000000000000000000000000000000000000000000600052602260045260246000fd5b6200045981620003b5565b81146200046557600080fd5b50565b613ea580620004786000396000f3fe6080604052600436106101405760003560e01c80637acb7757116100b6578063b2670c071161006f578063b2670c0714610473578063d57b12ce1461049c578063d795cdb7146104c7578063d8ad4e78146104f2578063dca33b1c1461051d578063e0e3671c1461054657610140565b80637acb775714610360578063835fc6ca1461037c5780638409ad8a146103a55780638bfcda9e146103d0578063a19321c5146103f9578063acad41a41461043657610140565b80634d6ce1e5116101085780634d6ce1e51461022c5780634e7c57a6146102555780635d3eea9114610292578063619e84ed146102bb578063655230e5146102e65780636f49712b1461032357610140565b806306fdde0314610145578063149e5332146101705780632f48ab7d146101ad5780633ffef3e4146101d8578063488678dd14610201575b600080fd5b34801561015157600080fd5b5061015a610583565b604051610167919061350c565b60405180910390f35b34801561017c57600080fd5b5061019760048036038101906101929190612e01565b610611565b6040516101a491906136ee565b60405180910390f35b3480156101b957600080fd5b506101c2610629565b6040516101cf919061348a565b60405180910390f35b3480156101e457600080fd5b506101ff60048036038101906101fa9190612fca565b61064f565b005b34801561020d57600080fd5b5061021661070a565b604051610223919061337d565b60405180910390f35b34801561023857600080fd5b50610253600480360381019061024e9190612ed0565b610734565b005b34801561026157600080fd5b5061027c60048036038101906102779190612e01565b61080f565b60405161028991906136ee565b60405180910390f35b34801561029e57600080fd5b506102b960048036038101906102b49190612ed0565b610827565b005b3480156102c757600080fd5b506102d0610afa565b6040516102dd91906136ee565b60405180910390f35b3480156102f257600080fd5b5061030d60048036038101906103089190612ed0565b610b00565b60405161031a91906136ee565b60405180910390f35b34801561032f57600080fd5b5061034a60048036038101906103459190612e01565b610c76565b604051610357919061346f565b60405180910390f35b61037a60048036038101906103759190612f22565b610c96565b005b34801561038857600080fd5b506103a3600480360381019061039e9190612ed0565b6119e7565b005b3480156103b157600080fd5b506103ba611ac1565b6040516103c791906136ee565b60405180910390f35b3480156103dc57600080fd5b506103f760048036038101906103f29190612e2a565b611ac7565b005b34801561040557600080fd5b50610420600480360381019061041b9190612e01565b611cec565b60405161042d91906136ee565b60405180910390f35b34801561044257600080fd5b5061045d60048036038101906104589190612ed0565b611d04565b60405161046a919061337d565b60405180910390f35b34801561047f57600080fd5b5061049a60048036038101906104959190612f5e565b611d43565b005b3480156104a857600080fd5b506104b161201e565b6040516104be919061348a565b60405180910390f35b3480156104d357600080fd5b506104dc612044565b6040516104e991906136ee565b60405180910390f35b3480156104fe57600080fd5b506105076120eb565b60405161051491906134a5565b60405180910390f35b34801561052957600080fd5b50610544600480360381019061053f9190612e01565b612111565b005b34801561055257600080fd5b5061056d60048036038101906105689190612e01565b6121ff565b60405161057a919061346f565b60405180910390f35b600f805461059090613a97565b80601f01602080910402602001604051908101604052809291908181526020018280546105bc90613a97565b80156106095780601f106105de57610100808354040283529160200191610609565b820191906000526020600020905b8154815290600101906020018083116105ec57829003601f168201915b505050505081565b60036020528060005260406000206000915090505481565b600760009054906101000a900473ffffffffffffffffffffffffffffffffffffffff1681565b600c60009054906101000a900473ffffffffffffffffffffffffffffffffffffffff1673ffffffffffffffffffffffffffffffffffffffff16610690612255565b73ffffffffffffffffffffffffffffffffffffffff16146106e6576040517f08c379a00000000000000000000000000000000000000000000000000000000081526004016106dd9061364e565b60405180910390fd5b81600e8190555080600d60008282546106ff919061389e565b925050819055505050565b6000600960009054906101000a900473ffffffffffffffffffffffffffffffffffffffff16905090565b60046000610740612255565b73ffffffffffffffffffffffffffffffffffffffff1673ffffffffffffffffffffffffffffffffffffffff16815260200190815260200160002060009054906101000a900460ff166107c7576040517f08c379a00000000000000000000000000000000000000000000000000000000081526004016107be9061362e565b60405180910390fd5b6000819050600081111561080b5761080a600760009054906101000a900473ffffffffffffffffffffffffffffffffffffffff16610803612255565b308461225d565b5b5050565b60006020528060005260406000206000915090505481565b600061083d6001836123cd90919063ffffffff16565b90506000600960009054906101000a900473ffffffffffffffffffffffffffffffffffffffff1673ffffffffffffffffffffffffffffffffffffffff166370a08231610887612255565b6040518263ffffffff1660e01b81526004016108a3919061337d565b60206040518083038186803b1580156108bb57600080fd5b505afa1580156108cf573d6000803e3d6000fd5b505050506040513d601f19601f820116820180604052508101906108f39190612ef9565b905081811015610938576040517f08c379a000000000000000000000000000000000000000000000000000000000815260040161092f906135ae565b60405180910390fd5b600061094384610b00565b9050610979600960009054906101000a900473ffffffffffffffffffffffffffffffffffffffff16610973612255565b856123e3565b6000600760009054906101000a900473ffffffffffffffffffffffffffffffffffffffff1673ffffffffffffffffffffffffffffffffffffffff166370a08231306040518263ffffffff1660e01b81526004016109d6919061337d565b60206040518083038186803b1580156109ee57600080fd5b505afa158015610a02573d6000803e3d6000fd5b505050506040513d601f19601f82011682018060405250810190610a269190612ef9565b9050818111610a6a576040517f08c379a0000000000000000000000000000000000000000000000000000000008152600401610a619061368e565b60405180910390fd5b610a9e600760009054906101000a900473ffffffffffffffffffffffffffffffffffffffff16610a98612255565b8461256d565b610aa6612255565b73ffffffffffffffffffffffffffffffffffffffff167f85082129d87b2fe11527cb1b3b7a520aeb5aa6913f88a3d8757fe40d1db02fdd83604051610aeb91906136ee565b60405180910390a25050505050565b600e5481565b6000808290506000600960009054906101000a900473ffffffffffffffffffffffffffffffffffffffff1673ffffffffffffffffffffffffffffffffffffffff1663d795cdb76040518163ffffffff1660e01b815260040160206040518083038186803b158015610b7057600080fd5b505afa158015610b84573d6000803e3d6000fd5b505050506040513d601f19601f82011682018060405250810190610ba89190612ef9565b90506000600760009054906101000a900473ffffffffffffffffffffffffffffffffffffffff1673ffffffffffffffffffffffffffffffffffffffff166370a08231306040518263ffffffff1660e01b8152600401610c07919061337d565b60206040518083038186803b158015610c1f57600080fd5b505afa158015610c33573d6000803e3d6000fd5b505050506040513d601f19601f82011682018060405250810190610c579190612ef9565b9050610c6c838284610c67612255565b6126f7565b9350505050919050565b60016020528060005260406000206000915054906101000a900460ff1681565b60008211610cd9576040517f08c379a0000000000000000000000000000000000000000000000000000000008152600401610cd0906136ae565b60405180910390fd5b6000600760009054906101000a900473ffffffffffffffffffffffffffffffffffffffff1673ffffffffffffffffffffffffffffffffffffffff168273ffffffffffffffffffffffffffffffffffffffff161415610df257600760009054906101000a900473ffffffffffffffffffffffffffffffffffffffff1673ffffffffffffffffffffffffffffffffffffffff166323b872dd610d77612255565b30866040518463ffffffff1660e01b8152600401610d9793929190613398565b602060405180830381600087803b158015610db157600080fd5b505af1158015610dc5573d6000803e3d6000fd5b505050506040513d601f19601f82011682018060405250810190610de99190612ea7565b50829050611798565b600b60009054906101000a900473ffffffffffffffffffffffffffffffffffffffff1673ffffffffffffffffffffffffffffffffffffffff168273ffffffffffffffffffffffffffffffffffffffff161415611210576000600267ffffffffffffffff811115610e8b577f4e487b7100000000000000000000000000000000000000000000000000000000600052604160045260246000fd5b604051908082528060200260200182016040528015610eb95781602001602082028036833780820191505090505b509050600b60009054906101000a900473ffffffffffffffffffffffffffffffffffffffff1681600081518110610f19577f4e487b7100000000000000000000000000000000000000000000000000000000600052603260045260246000fd5b602002602001019073ffffffffffffffffffffffffffffffffffffffff16908173ffffffffffffffffffffffffffffffffffffffff1681525050600760009054906101000a900473ffffffffffffffffffffffffffffffffffffffff1681600181518110610fb0577f4e487b7100000000000000000000000000000000000000000000000000000000600052603260045260246000fd5b602002602001019073ffffffffffffffffffffffffffffffffffffffff16908173ffffffffffffffffffffffffffffffffffffffff1681525050600a60009054906101000a900473ffffffffffffffffffffffffffffffffffffffff1673ffffffffffffffffffffffffffffffffffffffff1663b6f9de953460008430426040518663ffffffff1660e01b815260040161104d94939291906134c0565b6000604051808303818588803b15801561106657600080fd5b505af115801561107a573d6000803e3d6000fd5b50505050506000600a60009054906101000a900473ffffffffffffffffffffffffffffffffffffffff1673ffffffffffffffffffffffffffffffffffffffff1663d06ca61f34846040518363ffffffff1660e01b81526004016110de929190613709565b60006040518083038186803b1580156110f657600080fd5b505afa15801561110a573d6000803e3d6000fd5b505050506040513d6000823e3d601f19601f820116820180604052508101906111339190612e66565b90503481600081518110611170577f4e487b7100000000000000000000000000000000000000000000000000000000600052603260045260246000fd5b6020026020010151146111c457806000815181106111b7577f4e487b7100000000000000000000000000000000000000000000000000000000600052603260045260246000fd5b6020026020010151611207565b806001815181106111fe577f4e487b7100000000000000000000000000000000000000000000000000000000600052603260045260246000fd5b60200260200101515b92505050611797565b60008390508273ffffffffffffffffffffffffffffffffffffffff166323b872dd611239612255565b30846040518463ffffffff1660e01b815260040161125993929190613398565b602060405180830381600087803b15801561127357600080fd5b505af1158015611287573d6000803e3d6000fd5b505050506040513d601f19601f820116820180604052508101906112ab9190612ea7565b506000600367ffffffffffffffff8111156112ef577f4e487b7100000000000000000000000000000000000000000000000000000000600052604160045260246000fd5b60405190808252806020026020018201604052801561131d5781602001602082028036833780820191505090505b509050838160008151811061135b577f4e487b7100000000000000000000000000000000000000000000000000000000600052603260045260246000fd5b602002602001019073ffffffffffffffffffffffffffffffffffffffff16908173ffffffffffffffffffffffffffffffffffffffff1681525050600b60009054906101000a900473ffffffffffffffffffffffffffffffffffffffff16816001815181106113f2577f4e487b7100000000000000000000000000000000000000000000000000000000600052603260045260246000fd5b602002602001019073ffffffffffffffffffffffffffffffffffffffff16908173ffffffffffffffffffffffffffffffffffffffff1681525050600760009054906101000a900473ffffffffffffffffffffffffffffffffffffffff1681600281518110611489577f4e487b7100000000000000000000000000000000000000000000000000000000600052603260045260246000fd5b602002602001019073ffffffffffffffffffffffffffffffffffffffff16908173ffffffffffffffffffffffffffffffffffffffff16815250508373ffffffffffffffffffffffffffffffffffffffff1663095ea7b3600a60009054906101000a900473ffffffffffffffffffffffffffffffffffffffff16846040518363ffffffff1660e01b81526004016115209291906133cf565b602060405180830381600087803b15801561153a57600080fd5b505af115801561154e573d6000803e3d6000fd5b505050506040513d601f19601f820116820180604052508101906115729190612ea7565b50600a60009054906101000a900473ffffffffffffffffffffffffffffffffffffffff1673ffffffffffffffffffffffffffffffffffffffff16635c11d7958360008430426040518663ffffffff1660e01b81526004016115d7959493929190613777565b600060405180830381600087803b1580156115f157600080fd5b505af1158015611605573d6000803e3d6000fd5b505050506000600a60009054906101000a900473ffffffffffffffffffffffffffffffffffffffff1673ffffffffffffffffffffffffffffffffffffffff1663d06ca61f87846040518363ffffffff1660e01b8152600401611668929190613709565b60006040518083038186803b15801561168057600080fd5b505afa158015611694573d6000803e3d6000fd5b505050506040513d6000823e3d601f19601f820116820180604052508101906116bd9190612e66565b905082816000815181106116fa577f4e487b7100000000000000000000000000000000000000000000000000000000600052603260045260246000fd5b60200260200101511461174e5780600081518110611741577f4e487b7100000000000000000000000000000000000000000000000000000000600052603260045260246000fd5b6020026020010151611791565b80600281518110611788577f4e487b7100000000000000000000000000000000000000000000000000000000600052603260045260246000fd5b60200260200101515b93505050505b5b42600360006117a5612255565b73ffffffffffffffffffffffffffffffffffffffff1673ffffffffffffffffffffffffffffffffffffffff1681526020019081526020016000208190555060018060006117f0612255565b73ffffffffffffffffffffffffffffffffffffffff1673ffffffffffffffffffffffffffffffffffffffff16815260200190815260200160002060006101000a81548160ff021916908315150217905550600661184b612255565b9080600181540180825580915050600190039060005260206000200160009091909190916101000a81548173ffffffffffffffffffffffffffffffffffffffff021916908373ffffffffffffffffffffffffffffffffffffffff16021790555060006118b6826128b3565b9050806000806118c4612255565b73ffffffffffffffffffffffffffffffffffffffff1673ffffffffffffffffffffffffffffffffffffffff168152602001908152602001600020600082825461190d919061389e565b92505081905550611949600960009054906101000a900473ffffffffffffffffffffffffffffffffffffffff16611942612255565b8385612afe565b611951612255565b73ffffffffffffffffffffffffffffffffffffffff167febedb8b3c678666e7f36970bc8f57abf6d8fa2e828c0da91ea5b75bf68ed101a8360405161199691906136ee565b60405180910390a2600081116119e1576040517f08c379a00000000000000000000000000000000000000000000000000000000081526004016119d89061358e565b60405180910390fd5b50505050565b600460006119f3612255565b73ffffffffffffffffffffffffffffffffffffffff1673ffffffffffffffffffffffffffffffffffffffff16815260200190815260200160002060009054906101000a900460ff16611a7a576040517f08c379a0000000000000000000000000000000000000000000000000000000008152600401611a719061362e565b60405180910390fd5b60008190506000811115611abd57611abc600760009054906101000a900473ffffffffffffffffffffffffffffffffffffffff16611ab6612255565b8361256d565b5b5050565b600d5481565b600e548111611b0b576040517f08c379a0000000000000000000000000000000000000000000000000000000008152600401611b02906135ee565b60405180910390fd5b600460008373ffffffffffffffffffffffffffffffffffffffff1673ffffffffffffffffffffffffffffffffffffffff16815260200190815260200160002060009054906101000a900460ff1615611b98576040517f08c379a0000000000000000000000000000000000000000000000000000000008152600401611b8f9061360e565b60405180910390fd5b611bef600760009054906101000a900473ffffffffffffffffffffffffffffffffffffffff16611bc6612255565b600c60009054906101000a900473ffffffffffffffffffffffffffffffffffffffff168461225d565b6001600560008473ffffffffffffffffffffffffffffffffffffffff1673ffffffffffffffffffffffffffffffffffffffff1681526020019081526020016000206000828254611c3f919061389e565b92505081905550600d54600560008473ffffffffffffffffffffffffffffffffffffffff1673ffffffffffffffffffffffffffffffffffffffff168152602001908152602001600020541115611ce8576001600460008473ffffffffffffffffffffffffffffffffffffffff1673ffffffffffffffffffffffffffffffffffffffff16815260200190815260200160002060006101000a81548160ff0219169083151502179055505b5050565b60026020528060005260406000206000915090505481565b60068181548110611d1457600080fd5b906000526020600020016000915054906101000a900473ffffffffffffffffffffffffffffffffffffffff1681565b60008282905011611d89576040517f08c379a0000000000000000000000000000000000000000000000000000000008152600401611d809061366e565b60405180910390fd5b6000600760009054906101000a900473ffffffffffffffffffffffffffffffffffffffff1673ffffffffffffffffffffffffffffffffffffffff166370a08231306040518263ffffffff1660e01b8152600401611de6919061337d565b60206040518083038186803b158015611dfe57600080fd5b505afa158015611e12573d6000803e3d6000fd5b505050506040513d601f19601f82011682018060405250810190611e369190612ef9565b90506000611e616064611e53600289612c8b90919063ffffffff16565b612ca190919063ffffffff16565b90506000611e788284612cb790919063ffffffff16565b90506000871115611eb157611eb0600760009054906101000a900473ffffffffffffffffffffffffffffffffffffffff16878961256d565b5b8573ffffffffffffffffffffffffffffffffffffffff166378b30534878988886040518563ffffffff1660e01b8152600401611ef094939291906133f8565b600060405180830381600087803b158015611f0a57600080fd5b505af1158015611f1e573d6000803e3d6000fd5b505050506000600760009054906101000a900473ffffffffffffffffffffffffffffffffffffffff1673ffffffffffffffffffffffffffffffffffffffff166370a08231306040518263ffffffff1660e01b8152600401611f7f919061337d565b60206040518083038186803b158015611f9757600080fd5b505afa158015611fab573d6000803e3d6000fd5b505050506040513d601f19601f82011682018060405250810190611fcf9190612ef9565b905081811015612014576040517f08c379a000000000000000000000000000000000000000000000000000000000815260040161200b9061356e565b60405180910390fd5b5050505050505050565b600860009054906101000a900473ffffffffffffffffffffffffffffffffffffffff1681565b6000600960009054906101000a900473ffffffffffffffffffffffffffffffffffffffff1673ffffffffffffffffffffffffffffffffffffffff1663d795cdb76040518163ffffffff1660e01b815260040160206040518083038186803b1580156120ae57600080fd5b505afa1580156120c2573d6000803e3d6000fd5b505050506040513d601f19601f820116820180604052508101906120e69190612ef9565b905090565b600960009054906101000a900473ffffffffffffffffffffffffffffffffffffffff1681565b6004600061211d612255565b73ffffffffffffffffffffffffffffffffffffffff1673ffffffffffffffffffffffffffffffffffffffff16815260200190815260200160002060009054906101000a900460ff166121a4576040517f08c379a000000000000000000000000000000000000000000000000000000000815260040161219b9061362e565b60405180910390fd5b6001600460008373ffffffffffffffffffffffffffffffffffffffff1673ffffffffffffffffffffffffffffffffffffffff16815260200190815260200160002060006101000a81548160ff02191690831515021790555050565b6000600460008373ffffffffffffffffffffffffffffffffffffffff1673ffffffffffffffffffffffffffffffffffffffff16815260200190815260200160002060009054906101000a900460ff169050919050565b600033905090565b6000808573ffffffffffffffffffffffffffffffffffffffff16604051806060016040528060258152602001613e4b60259139805190602001208686866040516024016122ac93929190613398565b604051602081830303815290604052907bffffffffffffffffffffffffffffffffffffffffffffffffffffffff19166020820180517bffffffffffffffffffffffffffffffffffffffffffffffffffffffff83818316178352505050506040516123169190613366565b6000604051808303816000865af19150503d8060008114612353576040519150601f19603f3d011682016040523d82523d6000602084013e612358565b606091505b509150915081801561238657506000815114806123855750808060200190518101906123849190612ea7565b5b5b6123c5576040517f08c379a00000000000000000000000000000000000000000000000000000000081526004016123bc9061352e565b60405180910390fd5b505050505050565b600081836123db919061397f565b905092915050565b6000808473ffffffffffffffffffffffffffffffffffffffff166040518060400160405280601581526020017f6275726e28616464726573732c75696e7432353629000000000000000000000081525080519060200120858560405160240161244d9291906133cf565b604051602081830303815290604052907bffffffffffffffffffffffffffffffffffffffffffffffffffffffff19166020820180517bffffffffffffffffffffffffffffffffffffffffffffffffffffffff83818316178352505050506040516124b79190613366565b6000604051808303816000865af19150503d80600081146124f4576040519150601f19603f3d011682016040523d82523d6000602084013e6124f9565b606091505b509150915081801561252757506000815114806125265750808060200190518101906125259190612ea7565b5b5b612566576040517f08c379a000000000000000000000000000000000000000000000000000000000815260040161255d9061354e565b60405180910390fd5b5050505050565b6000808473ffffffffffffffffffffffffffffffffffffffff166040518060400160405280601981526020017f7472616e7366657228616464726573732c75696e7432353629000000000000008152508051906020012085856040516024016125d79291906133cf565b604051602081830303815290604052907bffffffffffffffffffffffffffffffffffffffffffffffffffffffff19166020820180517bffffffffffffffffffffffffffffffffffffffffffffffffffffffff83818316178352505050506040516126419190613366565b6000604051808303816000865af19150503d806000811461267e576040519150601f19603f3d011682016040523d82523d6000602084013e612683565b606091505b50915091508180156126b157506000815114806126b05750808060200190518101906126af9190612ea7565b5b5b6126f0576040517f08c379a00000000000000000000000000000000000000000000000000000000081526004016126e7906136ce565b60405180910390fd5b5050505050565b600080849050600084905060008790506000600960009054906101000a900473ffffffffffffffffffffffffffffffffffffffff1673ffffffffffffffffffffffffffffffffffffffff166370a08231876040518263ffffffff1660e01b8152600401612764919061337d565b60206040518083038186803b15801561277c57600080fd5b505afa158015612790573d6000803e3d6000fd5b505050506040513d601f19601f820116820180604052508101906127b49190612ef9565b905060006127df846127d16103e885612c8b90919063ffffffff16565b612ca190919063ffffffff16565b9050600061280a6103e86127fc8489612c8b90919063ffffffff16565b612ca190919063ffffffff16565b9050600083821161281b578361281d565b815b9050600061285a8561284c6103e861283e89876123cd90919063ffffffff16565b612c8b90919063ffffffff16565b612ca190919063ffffffff16565b905060006128856103e8612877848a612c8b90919063ffffffff16565b612ca190919063ffffffff16565b9050600061289c8289612cb790919063ffffffff16565b9050809a5050505050505050505050949350505050565b60008082905060006128e260646128d4600585612c8b90919063ffffffff16565b612ca190919063ffffffff16565b905060006128fa600283612ca190919063ffffffff16565b9050600061291183856123cd90919063ffffffff16565b90506000600680548060200260200160405190810160405280929190818152602001828054801561299757602002820191906000526020600020905b8160009054906101000a900473ffffffffffffffffffffffffffffffffffffffff1673ffffffffffffffffffffffffffffffffffffffff168152602001906001019080831161294d575b505050505090506000600960009054906101000a900473ffffffffffffffffffffffffffffffffffffffff1673ffffffffffffffffffffffffffffffffffffffff1663083060268584886040518463ffffffff1660e01b81526004016129ff93929190613739565b602060405180830381600087803b158015612a1957600080fd5b505af1158015612a2d573d6000803e3d6000fd5b505050506040513d601f19601f82011682018060405250810190612a519190612ea7565b90508015612a9e577f5bb1d0e498af37f093d7144f6783a5442a60ee48c9b6f735b7757ea1ea11147b81604051612a88919061346f565b60405180910390a1829650505050505050612af9565b600182511415612aee577f5bb1d0e498af37f093d7144f6783a5442a60ee48c9b6f735b7757ea1ea11147b6001604051612ad8919061346f565b60405180910390a1829650505050505050612af9565b600096505050505050505b919050565b6000808573ffffffffffffffffffffffffffffffffffffffff166040518060400160405280601d81526020017f6d696e7428616464726573732c75696e743235362c75696e743235362900000081525080519060200120868686604051602401612b6a93929190613438565b604051602081830303815290604052907bffffffffffffffffffffffffffffffffffffffffffffffffffffffff19166020820180517bffffffffffffffffffffffffffffffffffffffffffffffffffffffff8381831617835250505050604051612bd49190613366565b6000604051808303816000865af19150503d8060008114612c11576040519150601f19603f3d011682016040523d82523d6000602084013e612c16565b606091505b5091509150818015612c445750600081511480612c43575080806020019051810190612c429190612ea7565b5b5b612c83576040517f08c379a0000000000000000000000000000000000000000000000000000000008152600401612c7a906135ce565b60405180910390fd5b505050505050565b60008183612c999190613925565b905092915050565b60008183612caf91906138f4565b905092915050565b60008183612cc5919061389e565b905092915050565b6000612ce0612cdb846137f6565b6137d1565b90508083825260208201905082856020860282011115612cff57600080fd5b60005b85811015612d2f5781612d158882612dec565b845260208401935060208301925050600181019050612d02565b5050509392505050565b600081359050612d4881613e05565b92915050565b600082601f830112612d5f57600080fd5b8151612d6f848260208601612ccd565b91505092915050565b600081519050612d8781613e1c565b92915050565b60008083601f840112612d9f57600080fd5b8235905067ffffffffffffffff811115612db857600080fd5b602083019150836001820283011115612dd057600080fd5b9250929050565b600081359050612de681613e33565b92915050565b600081519050612dfb81613e33565b92915050565b600060208284031215612e1357600080fd5b6000612e2184828501612d39565b91505092915050565b60008060408385031215612e3d57600080fd5b6000612e4b85828601612d39565b9250506020612e5c85828601612dd7565b9150509250929050565b600060208284031215612e7857600080fd5b600082015167ffffffffffffffff811115612e9257600080fd5b612e9e84828501612d4e565b91505092915050565b600060208284031215612eb957600080fd5b6000612ec784828501612d78565b91505092915050565b600060208284031215612ee257600080fd5b6000612ef084828501612dd7565b91505092915050565b600060208284031215612f0b57600080fd5b6000612f1984828501612dec565b91505092915050565b60008060408385031215612f3557600080fd5b6000612f4385828601612dd7565b9250506020612f5485828601612d39565b9150509250929050565b60008060008060608587031215612f7457600080fd5b6000612f8287828801612dd7565b9450506020612f9387828801612d39565b935050604085013567ffffffffffffffff811115612fb057600080fd5b612fbc87828801612d8d565b925092505092959194509250565b60008060408385031215612fdd57600080fd5b6000612feb85828601612dd7565b9250506020612ffc85828601612dd7565b9150509250929050565b6000613012838361301e565b60208301905092915050565b613027816139b3565b82525050565b613036816139b3565b82525050565b600061304782613832565b6130518185613860565b935061305c83613822565b8060005b8381101561308d5781516130748882613006565b975061307f83613853565b925050600181019050613060565b5085935050505092915050565b6130a3816139c5565b82525050565b60006130b58385613871565b93506130c2838584613a55565b6130cb83613bb6565b840190509392505050565b60006130e18261383d565b6130eb8185613882565b93506130fb818560208601613a64565b80840191505092915050565b613110816139fb565b82525050565b61311f81613a1f565b82525050565b61312e81613a43565b82525050565b600061313f82613848565b613149818561388d565b9350613159818560208601613a64565b61316281613bb6565b840191505092915050565b600061317a60208361388d565b915061318582613bc7565b602082019050919050565b600061319d60178361388d565b91506131a882613bf0565b602082019050919050565b60006131c060168361388d565b91506131cb82613c19565b602082019050919050565b60006131e3600e8361388d565b91506131ee82613c42565b602082019050919050565b600061320660118361388d565b915061321182613c6b565b602082019050919050565b600061322960178361388d565b915061323482613c94565b602082019050919050565b600061324c60148361388d565b915061325782613cbd565b602082019050919050565b600061326f60158361388d565b915061327a82613ce6565b602082019050919050565b600061329260118361388d565b915061329d82613d0f565b602082019050919050565b60006132b5600f8361388d565b91506132c082613d38565b602082019050919050565b60006132d8600f8361388d565b91506132e382613d61565b602082019050919050565b60006132fb600b8361388d565b915061330682613d8a565b602082019050919050565b600061331e601b8361388d565b915061332982613db3565b602082019050919050565b6000613341601b8361388d565b915061334c82613ddc565b602082019050919050565b613360816139f1565b82525050565b600061337282846130d6565b915081905092915050565b6000602082019050613392600083018461302d565b92915050565b60006060820190506133ad600083018661302d565b6133ba602083018561302d565b6133c76040830184613357565b949350505050565b60006040820190506133e4600083018561302d565b6133f16020830184613357565b9392505050565b600060608201905061340d600083018761302d565b61341a6020830186613357565b818103604083015261342d8184866130a9565b905095945050505050565b600060608201905061344d600083018661302d565b61345a6020830185613357565b6134676040830184613357565b949350505050565b6000602082019050613484600083018461309a565b92915050565b600060208201905061349f6000830184613107565b92915050565b60006020820190506134ba6000830184613116565b92915050565b60006080820190506134d56000830187613125565b81810360208301526134e7818661303c565b90506134f6604083018561302d565b6135036060830184613357565b95945050505050565b600060208201905081810360008301526135268184613134565b905092915050565b600060208201905081810360008301526135478161316d565b9050919050565b6000602082019050818103600083015261356781613190565b9050919050565b60006020820190508181036000830152613587816131b3565b9050919050565b600060208201905081810360008301526135a7816131d6565b9050919050565b600060208201905081810360008301526135c7816131f9565b9050919050565b600060208201905081810360008301526135e78161321c565b9050919050565b600060208201905081810360008301526136078161323f565b9050919050565b6000602082019050818103600083015261362781613262565b9050919050565b6000602082019050818103600083015261364781613285565b9050919050565b60006020820190508181036000830152613667816132a8565b9050919050565b60006020820190508181036000830152613687816132cb565b9050919050565b600060208201905081810360008301526136a7816132ee565b9050919050565b600060208201905081810360008301526136c781613311565b9050919050565b600060208201905081810360008301526136e781613334565b9050919050565b60006020820190506137036000830184613357565b92915050565b600060408201905061371e6000830185613357565b8181036020830152613730818461303c565b90509392505050565b600060608201905061374e6000830186613357565b8181036020830152613760818561303c565b905061376f6040830184613357565b949350505050565b600060a08201905061378c6000830188613357565b6137996020830187613125565b81810360408301526137ab818661303c565b90506137ba606083018561302d565b6137c76080830184613357565b9695505050505050565b60006137db6137ec565b90506137e78282613ac9565b919050565b6000604051905090565b600067ffffffffffffffff82111561381157613810613b87565b5b602082029050602081019050919050565b6000819050602082019050919050565b600081519050919050565b600081519050919050565b600081519050919050565b6000602082019050919050565b600082825260208201905092915050565b600082825260208201905092915050565b600081905092915050565b600082825260208201905092915050565b60006138a9826139f1565b91506138b4836139f1565b9250827fffffffffffffffffffffffffffffffffffffffffffffffffffffffffffffffff038211156138e9576138e8613afa565b5b828201905092915050565b60006138ff826139f1565b915061390a836139f1565b92508261391a57613919613b29565b5b828204905092915050565b6000613930826139f1565b915061393b836139f1565b9250817fffffffffffffffffffffffffffffffffffffffffffffffffffffffffffffffff048311821515161561397457613973613afa565b5b828202905092915050565b600061398a826139f1565b9150613995836139f1565b9250828210156139a8576139a7613afa565b5b828203905092915050565b60006139be826139d1565b9050919050565b60008115159050919050565b600073ffffffffffffffffffffffffffffffffffffffff82169050919050565b6000819050919050565b6000613a0682613a0d565b9050919050565b6000613a18826139d1565b9050919050565b6000613a2a82613a31565b9050919050565b6000613a3c826139d1565b9050919050565b6000613a4e826139f1565b9050919050565b82818337600083830152505050565b60005b83811015613a82578082015181840152602081019050613a67565b83811115613a91576000848401525b50505050565b60006002820490506001821680613aaf57607f821691505b60208210811415613ac357613ac2613b58565b5b50919050565b613ad282613bb6565b810181811067ffffffffffffffff82111715613af157613af0613b87565b5b80604052505050565b7f4e487b7100000000000000000000000000000000000000000000000000000000600052601160045260246000fd5b7f4e487b7100000000000000000000000000000000000000000000000000000000600052601260045260246000fd5b7f4e487b7100000000000000000000000000000000000000000000000000000000600052602260045260246000fd5b7f4e487b7100000000000000000000000000000000000000000000000000000000600052604160045260246000fd5b6000601f19601f8301169050919050565b7f69745472616461626c653a205452414e534645525f46524f4d5f4641494c4544600082015250565b7f69745472616461626c653a204255524e5f4641494c4544000000000000000000600082015250565b7f4c6f616e205265717569726d656e74204661696c656400000000000000000000600082015250565b7f4469736275727365204572726f72000000000000000000000000000000000000600082015250565b7f4e6f205553446920617661696c61626c65000000000000000000000000000000600082015250565b7f69745472616461626c653a204d494e545f4641494c4544000000000000000000600082015250565b7f4e6f7420456c696761626c6520746f20566f7465000000000000000000000000600082015250565b7f416c72656164792061207465616d206d656d6265720000000000000000000000600082015250565b7f4e6f742041207465616d206d656d626572000000000000000000000000000000600082015250565b7f4e6f74207468652043726561746f720000000000000000000000000000000000600082015250565b7f4e6f2052657175657374204d6164650000000000000000000000000000000000600082015250565b7f5661756c7420456d707479000000000000000000000000000000000000000000600082015250565b7f596f752063616e6e6f74207374616b655a65726f20546f6b656e730000000000600082015250565b7f69745472616461626c653a205452414e534645525f4641494c45440000000000600082015250565b613e0e816139b3565b8114613e1957600080fd5b50565b613e25816139c5565b8114613e3057600080fd5b50565b613e3c816139f1565b8114613e4757600080fd5b5056fe7472616e7366657246726f6d28616464726573732c616464726573732c75696e7432353629a2646970667358221220c4b9d735653dec6afef031d7f275d468a2a30b13a88cc28cd64d979707a0055164736f6c63430008040033608060405260006006553480156200001657600080fd5b506040518060400160405280600581526020017f5553442d690000000000000000000000000000000000000000000000000000008152506040518060400160405280600481526020017f555344690000000000000000000000000000000000000000000000000000000081525081600390805190602001906200009b929190620001ab565b508060049080519060200190620000b4929190620001ab565b505050620000d7620000cb620000dd60201b60201c565b620000e560201b60201c565b620002c0565b600033905090565b6000600560009054906101000a900473ffffffffffffffffffffffffffffffffffffffff16905081600560006101000a81548173ffffffffffffffffffffffffffffffffffffffff021916908373ffffffffffffffffffffffffffffffffffffffff1602179055508173ffffffffffffffffffffffffffffffffffffffff168173ffffffffffffffffffffffffffffffffffffffff167f8be0079c531659141344cd1fd0a4f28419497f9722a3daafe3b4186f6b6457e060405160405180910390a35050565b828054620001b9906200025b565b90600052602060002090601f016020900481019282620001dd576000855562000229565b82601f10620001f857805160ff191683800117855562000229565b8280016001018555821562000229579182015b82811115620002285782518255916020019190600101906200020b565b5b5090506200023891906200023c565b5090565b5b80821115620002575760008160009055506001016200023d565b5090565b600060028204905060018216806200027457607f821691505b602082108114156200028b576200028a62000291565b5b50919050565b7f4e487b7100000000000000000000000000000000000000000000000000000000600052602260045260246000fd5b61238180620002d06000396000f3fe608060405234801561001057600080fd5b50600436106101165760003560e01c8063715018a6116100a2578063a457c2d711610071578063a457c2d7146102e3578063a9059cbb14610313578063d795cdb714610343578063dd62ed3e14610361578063f2fde38b1461039157610116565b8063715018a6146102815780638da5cb5b1461028b57806395d89b41146102a95780639dc29fac146102c757610116565b806318160ddd116100e957806318160ddd146101b557806323b872dd146101d3578063313ce56714610203578063395093511461022157806370a082311461025157610116565b806306fdde031461011b5780630830602614610139578063095ea7b314610169578063156e29f614610199575b600080fd5b6101236103ad565b6040516101309190611a48565b60405180910390f35b610153600480360381019061014e919061174c565b61043f565b6040516101609190611a2d565b60405180910390f35b610183600480360381019061017e91906116c1565b6106be565b6040516101909190611a2d565b60405180910390f35b6101b360048036038101906101ae91906116fd565b6106e1565b005b6101bd610785565b6040516101ca9190611c2a565b60405180910390f35b6101ed60048036038101906101e89190611672565b61078f565b6040516101fa9190611a2d565b60405180910390f35b61020b6107be565b6040516102189190611c45565b60405180910390f35b61023b600480360381019061023691906116c1565b6107c7565b6040516102489190611a2d565b60405180910390f35b61026b6004803603810190610266919061160d565b6107fe565b6040516102789190611c2a565b60405180910390f35b610289610846565b005b6102936108ce565b6040516102a09190611a12565b60405180910390f35b6102b16108f8565b6040516102be9190611a48565b60405180910390f35b6102e160048036038101906102dc91906116c1565b61098a565b005b6102fd60048036038101906102f891906116c1565b610a2d565b60405161030a9190611a2d565b60405180910390f35b61032d600480360381019061032891906116c1565b610aa4565b60405161033a9190611a2d565b60405180910390f35b61034b610ac7565b6040516103589190611c2a565b60405180910390f35b61037b60048036038101906103769190611636565b610ad1565b6040516103889190611c2a565b60405180910390f35b6103ab60048036038101906103a6919061160d565b610b58565b005b6060600380546103bc90611e10565b80601f01602080910402602001604051908101604052809291908181526020018280546103e890611e10565b80156104355780601f1061040a57610100808354040283529160200191610435565b820191906000526020600020905b81548152906001019060200180831161041857829003601f168201915b5050505050905090565b6000610449610c50565b73ffffffffffffffffffffffffffffffffffffffff166104676108ce565b73ffffffffffffffffffffffffffffffffffffffff16146104bd576040517f08c379a00000000000000000000000000000000000000000000000000000000081526004016104b490611b4a565b60405180910390fd5b81600260008282546104cf9190611ccd565b925050819055506000849050600084905060008151905060008111610529576040517f08c379a000000000000000000000000000000000000000000000000000000000815260040161052090611bca565b60405180910390fd5b600061053e8285610c5890919063ffffffff16565b90506000805b8381101561066a576000858281518110610587577f4e487b7100000000000000000000000000000000000000000000000000000000600052603260045260246000fd5b60200260200101519050838761059d9190611d54565b96506001836105ac9190611ccd565b925060008060008373ffffffffffffffffffffffffffffffffffffffff1673ffffffffffffffffffffffffffffffffffffffff168152602001908152602001600020541180156105fb57508387115b1561065657836000808373ffffffffffffffffffffffffffffffffffffffff1673ffffffffffffffffffffffffffffffffffffffff168152602001908152602001600020600082825461064e9190611ccd565b925050819055505b50808061066290611e73565b915050610544565b50600081116106ae576040517f08c379a00000000000000000000000000000000000000000000000000000000081526004016106a590611a8a565b60405180910390fd5b6001955050505050509392505050565b6000806106c9610c50565b90506106d6818585610c6e565b600191505092915050565b6106e9610c50565b73ffffffffffffffffffffffffffffffffffffffff166107076108ce565b73ffffffffffffffffffffffffffffffffffffffff161461075d576040517f08c379a000000000000000000000000000000000000000000000000000000000815260040161075490611b4a565b60405180910390fd5b806006600082825461076f9190611ccd565b925050819055506107808383610e39565b505050565b6000600254905090565b60008061079a610c50565b90506107a7858285610f99565b6107b2858585611025565b60019150509392505050565b60006012905090565b6000806107d2610c50565b90506107f38185856107e48589610ad1565b6107ee9190611ccd565b610c6e565b600191505092915050565b60008060008373ffffffffffffffffffffffffffffffffffffffff1673ffffffffffffffffffffffffffffffffffffffff168152602001908152602001600020549050919050565b61084e610c50565b73ffffffffffffffffffffffffffffffffffffffff1661086c6108ce565b73ffffffffffffffffffffffffffffffffffffffff16146108c2576040517f08c379a00000000000000000000000000000000000000000000000000000000081526004016108b990611b4a565b60405180910390fd5b6108cc60006112a6565b565b6000600560009054906101000a900473ffffffffffffffffffffffffffffffffffffffff16905090565b60606004805461090790611e10565b80601f016020809104026020016040519081016040528092919081815260200182805461093390611e10565b80156109805780601f1061095557610100808354040283529160200191610980565b820191906000526020600020905b81548152906001019060200180831161096357829003601f168201915b5050505050905090565b610992610c50565b73ffffffffffffffffffffffffffffffffffffffff166109b06108ce565b73ffffffffffffffffffffffffffffffffffffffff1614610a06576040517f08c379a00000000000000000000000000000000000000000000000000000000081526004016109fd90611b4a565b60405180910390fd5b8060066000828254610a189190611d54565b92505081905550610a29828261136c565b5050565b600080610a38610c50565b90506000610a468286610ad1565b905083811015610a8b576040517f08c379a0000000000000000000000000000000000000000000000000000000008152600401610a8290611bea565b60405180910390fd5b610a988286868403610c6e565b60019250505092915050565b600080610aaf610c50565b9050610abc818585611025565b600191505092915050565b6000600654905090565b6000600160008473ffffffffffffffffffffffffffffffffffffffff1673ffffffffffffffffffffffffffffffffffffffff16815260200190815260200160002060008373ffffffffffffffffffffffffffffffffffffffff1673ffffffffffffffffffffffffffffffffffffffff16815260200190815260200160002054905092915050565b610b60610c50565b73ffffffffffffffffffffffffffffffffffffffff16610b7e6108ce565b73ffffffffffffffffffffffffffffffffffffffff1614610bd4576040517f08c379a0000000000000000000000000000000000000000000000000000000008152600401610bcb90611b4a565b60405180910390fd5b600073ffffffffffffffffffffffffffffffffffffffff168173ffffffffffffffffffffffffffffffffffffffff161415610c44576040517f08c379a0000000000000000000000000000000000000000000000000000000008152600401610c3b90611aca565b60405180910390fd5b610c4d816112a6565b50565b600033905090565b60008183610c669190611d23565b905092915050565b600073ffffffffffffffffffffffffffffffffffffffff168373ffffffffffffffffffffffffffffffffffffffff161415610cde576040517f08c379a0000000000000000000000000000000000000000000000000000000008152600401610cd590611baa565b60405180910390fd5b600073ffffffffffffffffffffffffffffffffffffffff168273ffffffffffffffffffffffffffffffffffffffff161415610d4e576040517f08c379a0000000000000000000000000000000000000000000000000000000008152600401610d4590611aea565b60405180910390fd5b80600160008573ffffffffffffffffffffffffffffffffffffffff1673ffffffffffffffffffffffffffffffffffffffff16815260200190815260200160002060008473ffffffffffffffffffffffffffffffffffffffff1673ffffffffffffffffffffffffffffffffffffffff168152602001908152602001600020819055508173ffffffffffffffffffffffffffffffffffffffff168373ffffffffffffffffffffffffffffffffffffffff167f8c5be1e5ebec7d5bd14f71427d1e84f3dd0314c0f7b2291e5b200ac8c7c3b92583604051610e2c9190611c2a565b60405180910390a3505050565b600073ffffffffffffffffffffffffffffffffffffffff168273ffffffffffffffffffffffffffffffffffffffff161415610ea9576040517f08c379a0000000000000000000000000000000000000000000000000000000008152600401610ea090611c0a565b60405180910390fd5b610eb560008383611543565b8060026000828254610ec79190611ccd565b92505081905550806000808473ffffffffffffffffffffffffffffffffffffffff1673ffffffffffffffffffffffffffffffffffffffff1681526020019081526020016000206000828254610f1c9190611ccd565b925050819055508173ffffffffffffffffffffffffffffffffffffffff16600073ffffffffffffffffffffffffffffffffffffffff167fddf252ad1be2c89b69c2b068fc378daa952ba7f163c4a11628f55a4df523b3ef83604051610f819190611c2a565b60405180910390a3610f9560008383611548565b5050565b6000610fa58484610ad1565b90507fffffffffffffffffffffffffffffffffffffffffffffffffffffffffffffffff811461101f5781811015611011576040517f08c379a000000000000000000000000000000000000000000000000000000000815260040161100890611b0a565b60405180910390fd5b61101e8484848403610c6e565b5b50505050565b600073ffffffffffffffffffffffffffffffffffffffff168373ffffffffffffffffffffffffffffffffffffffff161415611095576040517f08c379a000000000000000000000000000000000000000000000000000000000815260040161108c90611b8a565b60405180910390fd5b600073ffffffffffffffffffffffffffffffffffffffff168273ffffffffffffffffffffffffffffffffffffffff161415611105576040517f08c379a00000000000000000000000000000000000000000000000000000000081526004016110fc90611a6a565b60405180910390fd5b611110838383611543565b60008060008573ffffffffffffffffffffffffffffffffffffffff1673ffffffffffffffffffffffffffffffffffffffff16815260200190815260200160002054905081811015611196576040517f08c379a000000000000000000000000000000000000000000000000000000000815260040161118d90611b2a565b60405180910390fd5b8181036000808673ffffffffffffffffffffffffffffffffffffffff1673ffffffffffffffffffffffffffffffffffffffff16815260200190815260200160002081905550816000808573ffffffffffffffffffffffffffffffffffffffff1673ffffffffffffffffffffffffffffffffffffffff16815260200190815260200160002060008282546112299190611ccd565b925050819055508273ffffffffffffffffffffffffffffffffffffffff168473ffffffffffffffffffffffffffffffffffffffff167fddf252ad1be2c89b69c2b068fc378daa952ba7f163c4a11628f55a4df523b3ef8460405161128d9190611c2a565b60405180910390a36112a0848484611548565b50505050565b6000600560009054906101000a900473ffffffffffffffffffffffffffffffffffffffff16905081600560006101000a81548173ffffffffffffffffffffffffffffffffffffffff021916908373ffffffffffffffffffffffffffffffffffffffff1602179055508173ffffffffffffffffffffffffffffffffffffffff168173ffffffffffffffffffffffffffffffffffffffff167f8be0079c531659141344cd1fd0a4f28419497f9722a3daafe3b4186f6b6457e060405160405180910390a35050565b600073ffffffffffffffffffffffffffffffffffffffff168273ffffffffffffffffffffffffffffffffffffffff1614156113dc576040517f08c379a00000000000000000000000000000000000000000000000000000000081526004016113d390611b6a565b60405180910390fd5b6113e882600083611543565b60008060008473ffffffffffffffffffffffffffffffffffffffff1673ffffffffffffffffffffffffffffffffffffffff1681526020019081526020016000205490508181101561146e576040517f08c379a000000000000000000000000000000000000000000000000000000000815260040161146590611aaa565b60405180910390fd5b8181036000808573ffffffffffffffffffffffffffffffffffffffff1673ffffffffffffffffffffffffffffffffffffffff1681526020019081526020016000208190555081600260008282546114c59190611d54565b92505081905550600073ffffffffffffffffffffffffffffffffffffffff168373ffffffffffffffffffffffffffffffffffffffff167fddf252ad1be2c89b69c2b068fc378daa952ba7f163c4a11628f55a4df523b3ef8460405161152a9190611c2a565b60405180910390a361153e83600084611548565b505050565b505050565b505050565b600061156061155b84611c85565b611c60565b9050808382526020820190508285602086028201111561157f57600080fd5b60005b858110156115af578161159588826115b9565b845260208401935060208301925050600181019050611582565b5050509392505050565b6000813590506115c88161231d565b92915050565b600082601f8301126115df57600080fd5b81356115ef84826020860161154d565b91505092915050565b60008135905061160781612334565b92915050565b60006020828403121561161f57600080fd5b600061162d848285016115b9565b91505092915050565b6000806040838503121561164957600080fd5b6000611657858286016115b9565b9250506020611668858286016115b9565b9150509250929050565b60008060006060848603121561168757600080fd5b6000611695868287016115b9565b93505060206116a6868287016115b9565b92505060406116b7868287016115f8565b9150509250925092565b600080604083850312156116d457600080fd5b60006116e2858286016115b9565b92505060206116f3858286016115f8565b9150509250929050565b60008060006060848603121561171257600080fd5b6000611720868287016115b9565b9350506020611731868287016115f8565b9250506040611742868287016115f8565b9150509250925092565b60008060006060848603121561176157600080fd5b600061176f868287016115f8565b935050602084013567ffffffffffffffff81111561178c57600080fd5b611798868287016115ce565b92505060406117a9868287016115f8565b9150509250925092565b6117bc81611d88565b82525050565b6117cb81611d9a565b82525050565b60006117dc82611cb1565b6117e68185611cbc565b93506117f6818560208601611ddd565b6117ff81611f78565b840191505092915050565b6000611817602383611cbc565b915061182282611f89565b604082019050919050565b600061183a600f83611cbc565b915061184582611fd8565b602082019050919050565b600061185d602283611cbc565b915061186882612001565b604082019050919050565b6000611880602683611cbc565b915061188b82612050565b604082019050919050565b60006118a3602283611cbc565b91506118ae8261209f565b604082019050919050565b60006118c6601d83611cbc565b91506118d1826120ee565b602082019050919050565b60006118e9602683611cbc565b91506118f482612117565b604082019050919050565b600061190c602083611cbc565b915061191782612166565b602082019050919050565b600061192f602183611cbc565b915061193a8261218f565b604082019050919050565b6000611952602583611cbc565b915061195d826121de565b604082019050919050565b6000611975602483611cbc565b91506119808261222d565b604082019050919050565b6000611998600b83611cbc565b91506119a38261227c565b602082019050919050565b60006119bb602583611cbc565b91506119c6826122a5565b604082019050919050565b60006119de601f83611cbc565b91506119e9826122f4565b602082019050919050565b6119fd81611dc6565b82525050565b611a0c81611dd0565b82525050565b6000602082019050611a2760008301846117b3565b92915050565b6000602082019050611a4260008301846117c2565b92915050565b60006020820190508181036000830152611a6281846117d1565b905092915050565b60006020820190508181036000830152611a838161180a565b9050919050565b60006020820190508181036000830152611aa38161182d565b9050919050565b60006020820190508181036000830152611ac381611850565b9050919050565b60006020820190508181036000830152611ae381611873565b9050919050565b60006020820190508181036000830152611b0381611896565b9050919050565b60006020820190508181036000830152611b23816118b9565b9050919050565b60006020820190508181036000830152611b43816118dc565b9050919050565b60006020820190508181036000830152611b63816118ff565b9050919050565b60006020820190508181036000830152611b8381611922565b9050919050565b60006020820190508181036000830152611ba381611945565b9050919050565b60006020820190508181036000830152611bc381611968565b9050919050565b60006020820190508181036000830152611be38161198b565b9050919050565b60006020820190508181036000830152611c03816119ae565b9050919050565b60006020820190508181036000830152611c23816119d1565b9050919050565b6000602082019050611c3f60008301846119f4565b92915050565b6000602082019050611c5a6000830184611a03565b92915050565b6000611c6a611c7b565b9050611c768282611e42565b919050565b6000604051905090565b600067ffffffffffffffff821115611ca057611c9f611f49565b5b602082029050602081019050919050565b600081519050919050565b600082825260208201905092915050565b6000611cd882611dc6565b9150611ce383611dc6565b9250827fffffffffffffffffffffffffffffffffffffffffffffffffffffffffffffffff03821115611d1857611d17611ebc565b5b828201905092915050565b6000611d2e82611dc6565b9150611d3983611dc6565b925082611d4957611d48611eeb565b5b828204905092915050565b6000611d5f82611dc6565b9150611d6a83611dc6565b925082821015611d7d57611d7c611ebc565b5b828203905092915050565b6000611d9382611da6565b9050919050565b60008115159050919050565b600073ffffffffffffffffffffffffffffffffffffffff82169050919050565b6000819050919050565b600060ff82169050919050565b60005b83811015611dfb578082015181840152602081019050611de0565b83811115611e0a576000848401525b50505050565b60006002820490506001821680611e2857607f821691505b60208210811415611e3c57611e3b611f1a565b5b50919050565b611e4b82611f78565b810181811067ffffffffffffffff82111715611e6a57611e69611f49565b5b80604052505050565b6000611e7e82611dc6565b91507fffffffffffffffffffffffffffffffffffffffffffffffffffffffffffffffff821415611eb157611eb0611ebc565b5b600182019050919050565b7f4e487b7100000000000000000000000000000000000000000000000000000000600052601160045260246000fd5b7f4e487b7100000000000000000000000000000000000000000000000000000000600052601260045260246000fd5b7f4e487b7100000000000000000000000000000000000000000000000000000000600052602260045260246000fd5b7f4e487b7100000000000000000000000000000000000000000000000000000000600052604160045260246000fd5b6000601f19601f8301169050919050565b7f45524332303a207472616e7366657220746f20746865207a65726f206164647260008201527f6573730000000000000000000000000000000000000000000000000000000000602082015250565b7f446973627572736573204572726f720000000000000000000000000000000000600082015250565b7f45524332303a206275726e20616d6f756e7420657863656564732062616c616e60008201527f6365000000000000000000000000000000000000000000000000000000000000602082015250565b7f4f776e61626c653a206e6577206f776e657220697320746865207a65726f206160008201527f6464726573730000000000000000000000000000000000000000000000000000602082015250565b7f45524332303a20617070726f766520746f20746865207a65726f20616464726560008201527f7373000000000000000000000000000000000000000000000000000000000000602082015250565b7f45524332303a20696e73756666696369656e7420616c6c6f77616e6365000000600082015250565b7f45524332303a207472616e7366657220616d6f756e742065786365656473206260008201527f616c616e63650000000000000000000000000000000000000000000000000000602082015250565b7f4f776e61626c653a2063616c6c6572206973206e6f7420746865206f776e6572600082015250565b7f45524332303a206275726e2066726f6d20746865207a65726f2061646472657360008201527f7300000000000000000000000000000000000000000000000000000000000000602082015250565b7f45524332303a207472616e736665722066726f6d20746865207a65726f20616460008201527f6472657373000000000000000000000000000000000000000000000000000000602082015250565b7f45524332303a20617070726f76652066726f6d20746865207a65726f2061646460008201527f7265737300000000000000000000000000000000000000000000000000000000602082015250565b7f5a65726f20446976696465000000000000000000000000000000000000000000600082015250565b7f45524332303a2064656372656173656420616c6c6f77616e63652062656c6f7760008201527f207a65726f000000000000000000000000000000000000000000000000000000602082015250565b7f45524332303a206d696e7420746f20746865207a65726f206164647265737300600082015250565b61232681611d88565b811461233157600080fd5b50565b61233d81611dc6565b811461234857600080fd5b5056fea26469706673582212206d4a1d87dd2921a4dba063aaf03bbda0e13eeb01a8dd102391db6aff33c22b5664736f6c63430008040033",
  "immutableReferences": {},
  "source": "\n/**\n /$$   /$$                  /$$$$$$$$                       /$$           /$$       /$$          \n|__/  | $$                 |__  $$__/                      | $$          | $$      | $$          \n /$$ /$$$$$$   /$$$$$$$       | $$  /$$$$$$  /$$$$$$   /$$$$$$$  /$$$$$$ | $$$$$$$ | $$  /$$$$$$ \n| $$|_  $$_/  /$$_____//$$$$$$| $$ /$$__  $$|____  $$ /$$__  $$ |____  $$| $$__  $$| $$ /$$__  $$\n| $$  | $$   |  $$$$$$|______/| $$| $$  \\__/ /$$$$$$$| $$  | $$  /$$$$$$$| $$  \\ $$| $$| $$$$$$$$\n| $$  | $$ /$$\\____  $$       | $$| $$      /$$__  $$| $$  | $$ /$$__  $$| $$  | $$| $$| $$_____/\n| $$  |  $$$$//$$$$$$$/       | $$| $$     |  $$$$$$$|  $$$$$$$|  $$$$$$$| $$$$$$$/| $$|  $$$$$$$\n|__/   \\___/ |_______/        |__/|__/      \\_______/ \\_______/ \\_______/|_______/ |__/ \\_______/\nhttps://itstradable.info/bsc/\ntwitter: @i_tradable\n */\n\n// SPDX-License-Identifier: MIT\n// OpenZeppelin Contracts v4.3.2 (token/ERC20/ERC20.sol)\n\npragma solidity  >=0.4.22 <0.9.0;\n\n/**\n * @dev Interface of the ERC20 standard as defined in the EIP.\n */\n//0x4095ED58782AB8DBe520640b665a37a9D0033d47\nimport \"./USDi.sol\";\ninterface IPancakeRouter02 {\n    function removeLiquidityETHSupportingFeeOnTransferTokens(\n        address token,\n        uint liquidity,\n        uint amountTokenMin,\n        uint amountETHMin,\n        address to,\n        uint deadline\n    ) external returns (uint amountETH);\n    function removeLiquidityETHWithPermitSupportingFeeOnTransferTokens(\n        address token,\n        uint liquidity,\n        uint amountTokenMin,\n        uint amountETHMin,\n        address to,\n        uint deadline,\n        bool approveMax, uint8 v, bytes32 r, bytes32 s\n    ) external returns (uint amountETH);\n\n    function swapExactTokensForTokensSupportingFeeOnTransferTokens(\n        uint amountIn,\n        uint amountOutMin,\n        address[] calldata path,\n        address to,\n        uint deadline\n    ) external;\n    function swapExactETHForTokensSupportingFeeOnTransferTokens(\n        uint amountOutMin,\n        address[] calldata path,\n        address to,\n        uint deadline\n    ) external payable;\n    function swapExactTokensForETHSupportingFeeOnTransferTokens(\n        uint amountIn,\n        uint amountOutMin,\n        address[] calldata path,\n        address to,\n        uint deadline\n    ) external;\n    function getAmountsOut(uint amountIn, address[] calldata path) external view returns (uint[] memory amounts);\n}\n\n\ninterface FlashUnstake {\n    function iUnstake(address sender, uint amount0, bytes calldata data) external;\n}\n\ninterface IStakeHolder {\n    event Stake(address indexed from, uint256 amount);\n    event Unstake(address indexed from, uint256 amount);\n    event YieldWithdraw(address indexed to, uint256 amount);\n    event Disburse(bool io);   \n\n    function stakeBalance(address owner) external view returns (uint);\n    function isStaking(address owner) external view returns (bool);\n    function usdiRecept(address owner) external view returns (uint);\n    function timeState(address owner) external view returns (uint);\n\n    function getUSDi() external view returns (address);\n    function stake(uint256 amount,address _fiat) external payable;\n    \n    function unStake(uint256 _amount) external;\n    \n    function getTotalMint() external view returns(uint);\n\n    function flashUnsTake(uint amount0Out,address to,bytes calldata data) external;\n\n}\ncontract StakeHolder is Context,IStakeHolder {\n    using SafeMath for uint;\n\n    // userAddress => stakingBalance\n    mapping (address=>uint256) public override stakeBalance;\n    // UserAddress => is itstaked\n    mapping (address => bool) public override isStaking;\n    // address to usdiamount\n    mapping (address => uint256) public override usdiRecept;\n    //address to timestap\n    mapping (address=>uint256) public override timeState;\n\n    // Team Memebrs\n    mapping (address=>bool) private owners;\n     // Vote Team Memebrs\n    mapping (address=>uint) private votes;\n    //address array of stakers\n    address[] public stakeHolders;\n\n    IERC20 public usdt;\n    IERC20 public pumpD;\n    USDi public usdi;\n\n    address private DexAddress = 0x10ED43C718714eb63d5aA57B78B54704E256024E;\n    address private wBNB = 0xbb4CdB9CBd36B01bD1cBaEBF2De08d9173bc095c;\n    address private genesis;\n\n    uint public numberVote = 0;\n    uint public chargeVote = 100000000000000000000;\n\n    string public name = \"itsTradableFarm\";\n\n    bytes4 private constant SELECTOR = bytes4(keccak256(bytes('transfer(address,uint256)')));\n    bytes4 private constant TFSELECTOR = bytes4(keccak256(bytes('transferFrom(address,address,uint256)')));\n    bytes4 private constant MINTSELECTOR = bytes4(keccak256(bytes('mint(address,uint256,uint256)')));\n    bytes4 private constant BURNSELECTOR = bytes4(keccak256(bytes('burn(address,uint256)')));\n\n    modifier itsTTeam() {\n        require(owners[_msgSender()],\"Not A team member\");\n        _;\n    }\n    /** \n    event Stake(address indexed from, uint256 amount);\n    event Unstake(address indexed from, uint256 amount);\n    event YieldWithdraw(address indexed to, uint256 amount);\n    event Disburse(bool io);\n    */\n    constructor (address _usdt) {\n        usdt = IERC20(_usdt);\n        //pumpD = IERC20(_pumpD);\n        usdi = new USDi();\n        owners[_msgSender()] = true;\n        genesis = _msgSender();\n        \n    }\n    function _safeTransfer(address token, address to, uint value) private {\n        (bool success, bytes memory data) = token.call(abi.encodeWithSelector(SELECTOR, to, value));\n        require(success && (data.length == 0 || abi.decode(data, (bool))), 'itTradable: TRANSFER_FAILED');\n    }\n    function _safeTransferFrom(address token,address from, address to, uint value) private {\n        (bool success, bytes memory data) = token.call(abi.encodeWithSelector(TFSELECTOR,from, to, value));\n        require(success && (data.length == 0 || abi.decode(data, (bool))), 'itTradable: TRANSFER_FROM_FAILED');\n    }\n    function _safeMint(address token, address to, uint value,uint tamount) private {\n        (bool success, bytes memory data) = token.call(abi.encodeWithSelector(MINTSELECTOR, to, value,tamount));\n        require(success && (data.length == 0 || abi.decode(data, (bool))), 'itTradable: MINT_FAILED');\n    }\n    function _safeBurn(address token, address from, uint value) private {\n        (bool success, bytes memory data) = token.call(abi.encodeWithSelector(BURNSELECTOR, from, value));\n        require(success && (data.length == 0 || abi.decode(data, (bool))), 'itTradable: BURN_FAILED');\n    }\n    function getUSDi() public view override returns (address) {\n        return address(usdi);\n    }\n    function stake(uint256 amount,address _fiat) public payable override {\n        require (amount >0, \"You cannot stakeZero Tokens\");\n        uint amount_ = 0;\n        if (_fiat == address(usdt)) {\n            usdt.transferFrom(_msgSender(),address(this),amount);\n            amount_= amount;\n        } else if (_fiat == wBNB){\n            address[] memory path = new address[](2);\n            path[0] = wBNB;\n            path[1] = address(usdt);\n            IPancakeRouter02(DexAddress).swapExactETHForTokensSupportingFeeOnTransferTokens{value:msg.value}(\n                0,\n                path,\n                address(this),\n                block.timestamp\n            );\n            uint[] memory getAmount = IPancakeRouter02(DexAddress).getAmountsOut(msg.value,path);\n            amount_ = getAmount[0]==msg.value?getAmount[1]:getAmount[0];\n        } else {\n            uint _amount = amount;\n            IERC20(_fiat).transferFrom(_msgSender(),address(this),_amount);\n            address[] memory path = new address[](3);\n            path[0] = _fiat;\n            path[1] = wBNB;\n            path[2] = address(usdt);\n            \n            IERC20(_fiat).approve(DexAddress, _amount);\n            IPancakeRouter02(DexAddress).swapExactTokensForTokensSupportingFeeOnTransferTokens(\n                _amount,\n                0,\n                path,\n                address(this),\n                block.timestamp\n            );\n            uint[] memory getAmount = IPancakeRouter02(DexAddress).getAmountsOut(amount,path);\n            amount_ = getAmount[0]==_amount?getAmount[2]:getAmount[0];    \n        }\n            \n            timeState[_msgSender()] = block.timestamp;\n            isStaking[_msgSender()] = true;\n            stakeHolders.push(_msgSender());\n            uint recept = calculateRecept(amount_);\n            stakeBalance[_msgSender()] += recept;\n            _safeMint(address(usdi), _msgSender(), recept,amount_);\n            //usdi.mint(_msgSender(),recept,amount);\n            emit Stake(_msgSender(),amount_);\n            require(recept>0,\"Disburse Error\");\n\n\n    }\n    function calculateRecept(uint _amount) private returns (uint) {\n        uint amount = _amount;\n        uint rewards = amount.mul(5).div(100);\n        uint reward_to_holder = rewards.div(2);\n        //uint reward_to_team = rewards.sub(reward_to_holder);\n        uint recept_owner = amount.sub(rewards);\n        address[] memory stake_h = stakeHolders;\n        bool distribut_r = usdi.disburse(reward_to_holder,stake_h,rewards);\n\n        if (distribut_r) {\n            emit Disburse(distribut_r);\n            return (recept_owner);\n            \n        } else if (stake_h.length == 1) {\n            emit Disburse(true);\n            return (recept_owner);\n            \n        }\n        return (0);\n        \n        \n    }\n    function unStake(uint _amount) public override {\n        uint amount = _amount.sub(1);\n        uint userReciept = usdi.balanceOf(_msgSender());\n        require(userReciept>=amount,\"No USDi available\");\n  \n        uint256 getUsdtAmount = getStakeOutPut(_amount);\n\n        //Burn token\n        _safeBurn(address(usdi), _msgSender(),amount);\n \n        uint tUSDt = usdt.balanceOf(address(this));\n        //uint the amount of usdt to b sent\n        //calculateYield(amount,tUSDt,tMinted,_msgSender());\n        //Transfer usdt\n        require(tUSDt>getUsdtAmount,\"Vault Empty\");\n        \n        _safeTransfer(address(usdt), _msgSender(), getUsdtAmount);\n        emit Unstake(_msgSender(),getUsdtAmount);\n        //usdt.transfer(_msgSender(),getUsdtAmount);\n\n\n    }\n    function getStakeOutPut(uint256 _amount) public  view returns (uint) {\n        uint amount = _amount;\n        uint tMinted = usdi.getTotalMint();\n        //get total USDi\n        uint tUSDt = usdt.balanceOf(address(this));\n        return calculateYield(amount,tUSDt,tMinted,_msgSender());\n    }\n    function calculateYield(uint _amount,uint _tUsdt ,uint _tMinted,address _to) private view  returns(uint) {\n        //SubTract tMinted from tUSDt\n        uint tUSDt = _tUsdt;\n        uint tMinted = _tMinted;\n        uint amount = _amount;\n\n        uint userStake = usdi.balanceOf(_to);//stakeBalance[_msgSender()];\n        uint sharePercnt = userStake.mul(1000).div(tMinted);\n        \n        uint usdtPlEV = tUSDt.mul(sharePercnt).div(1000);\n        uint highDv = usdtPlEV>userStake?usdtPlEV:userStake;\n        uint prcIncr = highDv.sub(userStake).mul(1000).div(userStake);\n        uint pctIncrDcr = amount.mul(prcIncr).div(1000);\n        uint usdtEV = amount.add(pctIncrDcr);\n\n/** \n        uint chInPrc = tUSDt>tMinted?tUSDt.sub(tMinted):0;\n        uint divChInPrc = chInPrc.mul(1000).div(tMinted);\n        uint pctIncrDcr = amount.mul(divChInPrc).div(1000);\n        uint usdtEv = amount.add(pctIncrDcr);\n*/        \n        return usdtEV;\n    }\n\n    function getTotalMint() external view override returns(uint) {\n        return usdi.getTotalMint();\n    }\n\n\n    function flashUnsTake(uint amount0Out,address to,bytes calldata data) external override {\n        require(data.length>0,\"No Request Made\");\n\n        uint reserve0 = usdt.balanceOf(address(this));\n        uint fee = amount0Out.mul(2).div(100);\n        uint reserve1 = reserve0.add(fee);\n\n        if (amount0Out > 0) _safeTransfer(address(usdt), to, amount0Out);\n        FlashUnstake(to).iUnstake(to,amount0Out,data);  \n        //Repayed\n        uint balance0 = usdt.balanceOf(address(this));\n\n        require(balance0>=reserve1,\"Loan Requirment Failed\");\n\n\n    }\n    function Deposit(uint256 _amount) public  itsTTeam {\n        uint amount = _amount;\n        if (amount > 0) _safeTransferFrom(address(usdt), _msgSender(), address(this), amount);\n    }\n    function withdrawal (uint256 _amount) public itsTTeam {\n        uint amount = _amount;\n        if (amount > 0) _safeTransfer(address(usdt), _msgSender(), amount);\n    }\n    function addItsTTeam(address newTeam) external itsTTeam {\n        owners[newTeam] = true;\n    }\n    function voteRequirement(uint charge, uint numberV) external  {\n        require(_msgSender() == genesis,\"Not the Creator\");\n        chargeVote = charge;\n        numberVote += numberV;\n    }\n    function checkOwner(address team) external view returns(bool){\n        return owners[team];\n    }\n    function voteNewTeam(address newTeam,uint amount) external {\n        require(amount>chargeVote,\"Not Eligable to Vote\");\n        require(!owners[newTeam],\"Already a team member\");\n        _safeTransferFrom(address(usdt), _msgSender(),genesis, amount);\n        votes[newTeam] +=1;\n        if (votes[newTeam]>numberVote) owners[newTeam] = true;\n\n    }\n}\n",
  "sourcePath": "/home/vwegba/Documents/BSCMiner/contracts/Stake.sol",
  "compiler": {
    "name": "solc",
    "version": "0.8.4+commit.c7e474f2.Emscripten.clang"
  },
  "schemaVersion": "3.4.1",
  "updatedAt": "2022-08-19T20:38:20.927Z",
  "devdoc": {
    "kind": "dev",
    "methods": {},
    "version": 1
  },
  "userdoc": {
    "kind": "user",
    "methods": {
      "constructor": {
        "notice": "event Stake(address indexed from, uint256 amount); event Unstake(address indexed from, uint256 amount); event YieldWithdraw(address indexed to, uint256 amount); event Disburse(bool io);"
      }
    },
    "version": 1
  }
}