{
  "contractName": "USDi",
  "abi": [
    {
      "inputs": [],
      "stateMutability": "nonpayable",
      "type": "constructor"
    },
    {
      "anonymous": false,
      "inputs": [
        {
          "indexed": true,
          "internalType": "address",
          "name": "owner",
          "type": "address"
        },
        {
          "indexed": true,
          "internalType": "address",
          "name": "spender",
          "type": "address"
        },
        {
          "indexed": false,
          "internalType": "uint256",
          "name": "value",
          "type": "uint256"
        }
      ],
      "name": "Approval",
      "type": "event"
    },
    {
      "anonymous": false,
      "inputs": [
        {
          "indexed": true,
          "internalType": "address",
          "name": "previousOwner",
          "type": "address"
        },
        {
          "indexed": true,
          "internalType": "address",
          "name": "newOwner",
          "type": "address"
        }
      ],
      "name": "OwnershipTransferred",
      "type": "event"
    },
    {
      "anonymous": false,
      "inputs": [
        {
          "indexed": true,
          "internalType": "address",
          "name": "from",
          "type": "address"
        },
        {
          "indexed": true,
          "internalType": "address",
          "name": "to",
          "type": "address"
        },
        {
          "indexed": false,
          "internalType": "uint256",
          "name": "value",
          "type": "uint256"
        }
      ],
      "name": "Transfer",
      "type": "event"
    },
    {
      "inputs": [
        {
          "internalType": "address",
          "name": "owner",
          "type": "address"
        },
        {
          "internalType": "address",
          "name": "spender",
          "type": "address"
        }
      ],
      "name": "allowance",
      "outputs": [
        {
          "internalType": "uint256",
          "name": "",
          "type": "uint256"
        }
      ],
      "stateMutability": "view",
      "type": "function"
    },
    {
      "inputs": [
        {
          "internalType": "address",
          "name": "spender",
          "type": "address"
        },
        {
          "internalType": "uint256",
          "name": "amount",
          "type": "uint256"
        }
      ],
      "name": "approve",
      "outputs": [
        {
          "internalType": "bool",
          "name": "",
          "type": "bool"
        }
      ],
      "stateMutability": "nonpayable",
      "type": "function"
    },
    {
      "inputs": [
        {
          "internalType": "address",
          "name": "account",
          "type": "address"
        }
      ],
      "name": "balanceOf",
      "outputs": [
        {
          "internalType": "uint256",
          "name": "",
          "type": "uint256"
        }
      ],
      "stateMutability": "view",
      "type": "function"
    },
    {
      "inputs": [],
      "name": "decimals",
      "outputs": [
        {
          "internalType": "uint8",
          "name": "",
          "type": "uint8"
        }
      ],
      "stateMutability": "view",
      "type": "function"
    },
    {
      "inputs": [
        {
          "internalType": "address",
          "name": "spender",
          "type": "address"
        },
        {
          "internalType": "uint256",
          "name": "subtractedValue",
          "type": "uint256"
        }
      ],
      "name": "decreaseAllowance",
      "outputs": [
        {
          "internalType": "bool",
          "name": "",
          "type": "bool"
        }
      ],
      "stateMutability": "nonpayable",
      "type": "function"
    },
    {
      "inputs": [
        {
          "internalType": "address",
          "name": "spender",
          "type": "address"
        },
        {
          "internalType": "uint256",
          "name": "addedValue",
          "type": "uint256"
        }
      ],
      "name": "increaseAllowance",
      "outputs": [
        {
          "internalType": "bool",
          "name": "",
          "type": "bool"
        }
      ],
      "stateMutability": "nonpayable",
      "type": "function"
    },
    {
      "inputs": [],
      "name": "name",
      "outputs": [
        {
          "internalType": "string",
          "name": "",
          "type": "string"
        }
      ],
      "stateMutability": "view",
      "type": "function"
    },
    {
      "inputs": [],
      "name": "owner",
      "outputs": [
        {
          "internalType": "address",
          "name": "",
          "type": "address"
        }
      ],
      "stateMutability": "view",
      "type": "function"
    },
    {
      "inputs": [],
      "name": "renounceOwnership",
      "outputs": [],
      "stateMutability": "nonpayable",
      "type": "function"
    },
    {
      "inputs": [],
      "name": "symbol",
      "outputs": [
        {
          "internalType": "string",
          "name": "",
          "type": "string"
        }
      ],
      "stateMutability": "view",
      "type": "function"
    },
    {
      "inputs": [],
      "name": "totalSupply",
      "outputs": [
        {
          "internalType": "uint256",
          "name": "",
          "type": "uint256"
        }
      ],
      "stateMutability": "view",
      "type": "function"
    },
    {
      "inputs": [
        {
          "internalType": "address",
          "name": "to",
          "type": "address"
        },
        {
          "internalType": "uint256",
          "name": "amount",
          "type": "uint256"
        }
      ],
      "name": "transfer",
      "outputs": [
        {
          "internalType": "bool",
          "name": "",
          "type": "bool"
        }
      ],
      "stateMutability": "nonpayable",
      "type": "function"
    },
    {
      "inputs": [
        {
          "internalType": "address",
          "name": "from",
          "type": "address"
        },
        {
          "internalType": "address",
          "name": "to",
          "type": "address"
        },
        {
          "internalType": "uint256",
          "name": "amount",
          "type": "uint256"
        }
      ],
      "name": "transferFrom",
      "outputs": [
        {
          "internalType": "bool",
          "name": "",
          "type": "bool"
        }
      ],
      "stateMutability": "nonpayable",
      "type": "function"
    },
    {
      "inputs": [
        {
          "internalType": "address",
          "name": "newOwner",
          "type": "address"
        }
      ],
      "name": "transferOwnership",
      "outputs": [],
      "stateMutability": "nonpayable",
      "type": "function"
    },
    {
      "inputs": [
        {
          "internalType": "address",
          "name": "to",
          "type": "address"
        },
        {
          "internalType": "uint256",
          "name": "amount",
          "type": "uint256"
        },
        {
          "internalType": "uint256",
          "name": "_tAmount",
          "type": "uint256"
        }
      ],
      "name": "mint",
      "outputs": [],
      "stateMutability": "nonpayable",
      "type": "function"
    },
    {
      "inputs": [
        {
          "internalType": "address",
          "name": "from",
          "type": "address"
        },
        {
          "internalType": "uint256",
          "name": "amount",
          "type": "uint256"
        }
      ],
      "name": "burn",
      "outputs": [],
      "stateMutability": "nonpayable",
      "type": "function"
    },
    {
      "inputs": [
        {
          "internalType": "uint256",
          "name": "_rewards",
          "type": "uint256"
        },
        {
          "internalType": "address[]",
          "name": "holders",
          "type": "address[]"
        },
        {
          "internalType": "uint256",
          "name": "_dreward",
          "type": "uint256"
        }
      ],
      "name": "disburse",
      "outputs": [
        {
          "internalType": "bool",
          "name": "",
          "type": "bool"
        }
      ],
      "stateMutability": "nonpayable",
      "type": "function"
    },
    {
      "inputs": [],
      "name": "getTotalMint",
      "outputs": [
        {
          "internalType": "uint256",
          "name": "",
          "type": "uint256"
        }
      ],
      "stateMutability": "view",
      "type": "function"
    }
  ],
  "bytecode": "0x608060405260006006553480156200001657600080fd5b506040518060400160405280600581526020017f722d5553440000000000000000000000000000000000000000000000000000008152506040518060400160405280600681526020017f5553442d7269000000000000000000000000000000000000000000000000000081525081600390805190602001906200009b929190620001ab565b508060049080519060200190620000b4929190620001ab565b505050620000d7620000cb620000dd60201b60201c565b620000e560201b60201c565b620002c0565b600033905090565b6000600560009054906101000a900473ffffffffffffffffffffffffffffffffffffffff16905081600560006101000a81548173ffffffffffffffffffffffffffffffffffffffff021916908373ffffffffffffffffffffffffffffffffffffffff1602179055508173ffffffffffffffffffffffffffffffffffffffff168173ffffffffffffffffffffffffffffffffffffffff167f8be0079c531659141344cd1fd0a4f28419497f9722a3daafe3b4186f6b6457e060405160405180910390a35050565b828054620001b9906200025b565b90600052602060002090601f016020900481019282620001dd576000855562000229565b82601f10620001f857805160ff191683800117855562000229565b8280016001018555821562000229579182015b82811115620002285782518255916020019190600101906200020b565b5b5090506200023891906200023c565b5090565b5b80821115620002575760008160009055506001016200023d565b5090565b600060028204905060018216806200027457607f821691505b602082108114156200028b576200028a62000291565b5b50919050565b7f4e487b7100000000000000000000000000000000000000000000000000000000600052602260045260246000fd5b61238180620002d06000396000f3fe608060405234801561001057600080fd5b50600436106101165760003560e01c8063715018a6116100a2578063a457c2d711610071578063a457c2d7146102e3578063a9059cbb14610313578063d795cdb714610343578063dd62ed3e14610361578063f2fde38b1461039157610116565b8063715018a6146102815780638da5cb5b1461028b57806395d89b41146102a95780639dc29fac146102c757610116565b806318160ddd116100e957806318160ddd146101b557806323b872dd146101d3578063313ce56714610203578063395093511461022157806370a082311461025157610116565b806306fdde031461011b5780630830602614610139578063095ea7b314610169578063156e29f614610199575b600080fd5b6101236103ad565b6040516101309190611a48565b60405180910390f35b610153600480360381019061014e919061174c565b61043f565b6040516101609190611a2d565b60405180910390f35b610183600480360381019061017e91906116c1565b6106be565b6040516101909190611a2d565b60405180910390f35b6101b360048036038101906101ae91906116fd565b6106e1565b005b6101bd610785565b6040516101ca9190611c2a565b60405180910390f35b6101ed60048036038101906101e89190611672565b61078f565b6040516101fa9190611a2d565b60405180910390f35b61020b6107be565b6040516102189190611c45565b60405180910390f35b61023b600480360381019061023691906116c1565b6107c7565b6040516102489190611a2d565b60405180910390f35b61026b6004803603810190610266919061160d565b6107fe565b6040516102789190611c2a565b60405180910390f35b610289610846565b005b6102936108ce565b6040516102a09190611a12565b60405180910390f35b6102b16108f8565b6040516102be9190611a48565b60405180910390f35b6102e160048036038101906102dc91906116c1565b61098a565b005b6102fd60048036038101906102f891906116c1565b610a2d565b60405161030a9190611a2d565b60405180910390f35b61032d600480360381019061032891906116c1565b610aa4565b60405161033a9190611a2d565b60405180910390f35b61034b610ac7565b6040516103589190611c2a565b60405180910390f35b61037b60048036038101906103769190611636565b610ad1565b6040516103889190611c2a565b60405180910390f35b6103ab60048036038101906103a6919061160d565b610b58565b005b6060600380546103bc90611e10565b80601f01602080910402602001604051908101604052809291908181526020018280546103e890611e10565b80156104355780601f1061040a57610100808354040283529160200191610435565b820191906000526020600020905b81548152906001019060200180831161041857829003601f168201915b5050505050905090565b6000610449610c50565b73ffffffffffffffffffffffffffffffffffffffff166104676108ce565b73ffffffffffffffffffffffffffffffffffffffff16146104bd576040517f08c379a00000000000000000000000000000000000000000000000000000000081526004016104b490611b4a565b60405180910390fd5b81600260008282546104cf9190611ccd565b925050819055506000849050600084905060008151905060008111610529576040517f08c379a000000000000000000000000000000000000000000000000000000000815260040161052090611bca565b60405180910390fd5b600061053e8285610c5890919063ffffffff16565b90506000805b8381101561066a576000858281518110610587577f4e487b7100000000000000000000000000000000000000000000000000000000600052603260045260246000fd5b60200260200101519050838761059d9190611d54565b96506001836105ac9190611ccd565b925060008060008373ffffffffffffffffffffffffffffffffffffffff1673ffffffffffffffffffffffffffffffffffffffff168152602001908152602001600020541180156105fb57508387115b1561065657836000808373ffffffffffffffffffffffffffffffffffffffff1673ffffffffffffffffffffffffffffffffffffffff168152602001908152602001600020600082825461064e9190611ccd565b925050819055505b50808061066290611e73565b915050610544565b50600081116106ae576040517f08c379a00000000000000000000000000000000000000000000000000000000081526004016106a590611a8a565b60405180910390fd5b6001955050505050509392505050565b6000806106c9610c50565b90506106d6818585610c6e565b600191505092915050565b6106e9610c50565b73ffffffffffffffffffffffffffffffffffffffff166107076108ce565b73ffffffffffffffffffffffffffffffffffffffff161461075d576040517f08c379a000000000000000000000000000000000000000000000000000000000815260040161075490611b4a565b60405180910390fd5b806006600082825461076f9190611ccd565b925050819055506107808383610e39565b505050565b6000600254905090565b60008061079a610c50565b90506107a7858285610f99565b6107b2858585611025565b60019150509392505050565b60006012905090565b6000806107d2610c50565b90506107f38185856107e48589610ad1565b6107ee9190611ccd565b610c6e565b600191505092915050565b60008060008373ffffffffffffffffffffffffffffffffffffffff1673ffffffffffffffffffffffffffffffffffffffff168152602001908152602001600020549050919050565b61084e610c50565b73ffffffffffffffffffffffffffffffffffffffff1661086c6108ce565b73ffffffffffffffffffffffffffffffffffffffff16146108c2576040517f08c379a00000000000000000000000000000000000000000000000000000000081526004016108b990611b4a565b60405180910390fd5b6108cc60006112a6565b565b6000600560009054906101000a900473ffffffffffffffffffffffffffffffffffffffff16905090565b60606004805461090790611e10565b80601f016020809104026020016040519081016040528092919081815260200182805461093390611e10565b80156109805780601f1061095557610100808354040283529160200191610980565b820191906000526020600020905b81548152906001019060200180831161096357829003601f168201915b5050505050905090565b610992610c50565b73ffffffffffffffffffffffffffffffffffffffff166109b06108ce565b73ffffffffffffffffffffffffffffffffffffffff1614610a06576040517f08c379a00000000000000000000000000000000000000000000000000000000081526004016109fd90611b4a565b60405180910390fd5b8060066000828254610a189190611d54565b92505081905550610a29828261136c565b5050565b600080610a38610c50565b90506000610a468286610ad1565b905083811015610a8b576040517f08c379a0000000000000000000000000000000000000000000000000000000008152600401610a8290611bea565b60405180910390fd5b610a988286868403610c6e565b60019250505092915050565b600080610aaf610c50565b9050610abc818585611025565b600191505092915050565b6000600654905090565b6000600160008473ffffffffffffffffffffffffffffffffffffffff1673ffffffffffffffffffffffffffffffffffffffff16815260200190815260200160002060008373ffffffffffffffffffffffffffffffffffffffff1673ffffffffffffffffffffffffffffffffffffffff16815260200190815260200160002054905092915050565b610b60610c50565b73ffffffffffffffffffffffffffffffffffffffff16610b7e6108ce565b73ffffffffffffffffffffffffffffffffffffffff1614610bd4576040517f08c379a0000000000000000000000000000000000000000000000000000000008152600401610bcb90611b4a565b60405180910390fd5b600073ffffffffffffffffffffffffffffffffffffffff168173ffffffffffffffffffffffffffffffffffffffff161415610c44576040517f08c379a0000000000000000000000000000000000000000000000000000000008152600401610c3b90611aca565b60405180910390fd5b610c4d816112a6565b50565b600033905090565b60008183610c669190611d23565b905092915050565b600073ffffffffffffffffffffffffffffffffffffffff168373ffffffffffffffffffffffffffffffffffffffff161415610cde576040517f08c379a0000000000000000000000000000000000000000000000000000000008152600401610cd590611baa565b60405180910390fd5b600073ffffffffffffffffffffffffffffffffffffffff168273ffffffffffffffffffffffffffffffffffffffff161415610d4e576040517f08c379a0000000000000000000000000000000000000000000000000000000008152600401610d4590611aea565b60405180910390fd5b80600160008573ffffffffffffffffffffffffffffffffffffffff1673ffffffffffffffffffffffffffffffffffffffff16815260200190815260200160002060008473ffffffffffffffffffffffffffffffffffffffff1673ffffffffffffffffffffffffffffffffffffffff168152602001908152602001600020819055508173ffffffffffffffffffffffffffffffffffffffff168373ffffffffffffffffffffffffffffffffffffffff167f8c5be1e5ebec7d5bd14f71427d1e84f3dd0314c0f7b2291e5b200ac8c7c3b92583604051610e2c9190611c2a565b60405180910390a3505050565b600073ffffffffffffffffffffffffffffffffffffffff168273ffffffffffffffffffffffffffffffffffffffff161415610ea9576040517f08c379a0000000000000000000000000000000000000000000000000000000008152600401610ea090611c0a565b60405180910390fd5b610eb560008383611543565b8060026000828254610ec79190611ccd565b92505081905550806000808473ffffffffffffffffffffffffffffffffffffffff1673ffffffffffffffffffffffffffffffffffffffff1681526020019081526020016000206000828254610f1c9190611ccd565b925050819055508173ffffffffffffffffffffffffffffffffffffffff16600073ffffffffffffffffffffffffffffffffffffffff167fddf252ad1be2c89b69c2b068fc378daa952ba7f163c4a11628f55a4df523b3ef83604051610f819190611c2a565b60405180910390a3610f9560008383611548565b5050565b6000610fa58484610ad1565b90507fffffffffffffffffffffffffffffffffffffffffffffffffffffffffffffffff811461101f5781811015611011576040517f08c379a000000000000000000000000000000000000000000000000000000000815260040161100890611b0a565b60405180910390fd5b61101e8484848403610c6e565b5b50505050565b600073ffffffffffffffffffffffffffffffffffffffff168373ffffffffffffffffffffffffffffffffffffffff161415611095576040517f08c379a000000000000000000000000000000000000000000000000000000000815260040161108c90611b8a565b60405180910390fd5b600073ffffffffffffffffffffffffffffffffffffffff168273ffffffffffffffffffffffffffffffffffffffff161415611105576040517f08c379a00000000000000000000000000000000000000000000000000000000081526004016110fc90611a6a565b60405180910390fd5b611110838383611543565b60008060008573ffffffffffffffffffffffffffffffffffffffff1673ffffffffffffffffffffffffffffffffffffffff16815260200190815260200160002054905081811015611196576040517f08c379a000000000000000000000000000000000000000000000000000000000815260040161118d90611b2a565b60405180910390fd5b8181036000808673ffffffffffffffffffffffffffffffffffffffff1673ffffffffffffffffffffffffffffffffffffffff16815260200190815260200160002081905550816000808573ffffffffffffffffffffffffffffffffffffffff1673ffffffffffffffffffffffffffffffffffffffff16815260200190815260200160002060008282546112299190611ccd565b925050819055508273ffffffffffffffffffffffffffffffffffffffff168473ffffffffffffffffffffffffffffffffffffffff167fddf252ad1be2c89b69c2b068fc378daa952ba7f163c4a11628f55a4df523b3ef8460405161128d9190611c2a565b60405180910390a36112a0848484611548565b50505050565b6000600560009054906101000a900473ffffffffffffffffffffffffffffffffffffffff16905081600560006101000a81548173ffffffffffffffffffffffffffffffffffffffff021916908373ffffffffffffffffffffffffffffffffffffffff1602179055508173ffffffffffffffffffffffffffffffffffffffff168173ffffffffffffffffffffffffffffffffffffffff167f8be0079c531659141344cd1fd0a4f28419497f9722a3daafe3b4186f6b6457e060405160405180910390a35050565b600073ffffffffffffffffffffffffffffffffffffffff168273ffffffffffffffffffffffffffffffffffffffff1614156113dc576040517f08c379a00000000000000000000000000000000000000000000000000000000081526004016113d390611b6a565b60405180910390fd5b6113e882600083611543565b60008060008473ffffffffffffffffffffffffffffffffffffffff1673ffffffffffffffffffffffffffffffffffffffff1681526020019081526020016000205490508181101561146e576040517f08c379a000000000000000000000000000000000000000000000000000000000815260040161146590611aaa565b60405180910390fd5b8181036000808573ffffffffffffffffffffffffffffffffffffffff1673ffffffffffffffffffffffffffffffffffffffff1681526020019081526020016000208190555081600260008282546114c59190611d54565b92505081905550600073ffffffffffffffffffffffffffffffffffffffff168373ffffffffffffffffffffffffffffffffffffffff167fddf252ad1be2c89b69c2b068fc378daa952ba7f163c4a11628f55a4df523b3ef8460405161152a9190611c2a565b60405180910390a361153e83600084611548565b505050565b505050565b505050565b600061156061155b84611c85565b611c60565b9050808382526020820190508285602086028201111561157f57600080fd5b60005b858110156115af578161159588826115b9565b845260208401935060208301925050600181019050611582565b5050509392505050565b6000813590506115c88161231d565b92915050565b600082601f8301126115df57600080fd5b81356115ef84826020860161154d565b91505092915050565b60008135905061160781612334565b92915050565b60006020828403121561161f57600080fd5b600061162d848285016115b9565b91505092915050565b6000806040838503121561164957600080fd5b6000611657858286016115b9565b9250506020611668858286016115b9565b9150509250929050565b60008060006060848603121561168757600080fd5b6000611695868287016115b9565b93505060206116a6868287016115b9565b92505060406116b7868287016115f8565b9150509250925092565b600080604083850312156116d457600080fd5b60006116e2858286016115b9565b92505060206116f3858286016115f8565b9150509250929050565b60008060006060848603121561171257600080fd5b6000611720868287016115b9565b9350506020611731868287016115f8565b9250506040611742868287016115f8565b9150509250925092565b60008060006060848603121561176157600080fd5b600061176f868287016115f8565b935050602084013567ffffffffffffffff81111561178c57600080fd5b611798868287016115ce565b92505060406117a9868287016115f8565b9150509250925092565b6117bc81611d88565b82525050565b6117cb81611d9a565b82525050565b60006117dc82611cb1565b6117e68185611cbc565b93506117f6818560208601611ddd565b6117ff81611f78565b840191505092915050565b6000611817602383611cbc565b915061182282611f89565b604082019050919050565b600061183a600f83611cbc565b915061184582611fd8565b602082019050919050565b600061185d602283611cbc565b915061186882612001565b604082019050919050565b6000611880602683611cbc565b915061188b82612050565b604082019050919050565b60006118a3602283611cbc565b91506118ae8261209f565b604082019050919050565b60006118c6601d83611cbc565b91506118d1826120ee565b602082019050919050565b60006118e9602683611cbc565b91506118f482612117565b604082019050919050565b600061190c602083611cbc565b915061191782612166565b602082019050919050565b600061192f602183611cbc565b915061193a8261218f565b604082019050919050565b6000611952602583611cbc565b915061195d826121de565b604082019050919050565b6000611975602483611cbc565b91506119808261222d565b604082019050919050565b6000611998600b83611cbc565b91506119a38261227c565b602082019050919050565b60006119bb602583611cbc565b91506119c6826122a5565b604082019050919050565b60006119de601f83611cbc565b91506119e9826122f4565b602082019050919050565b6119fd81611dc6565b82525050565b611a0c81611dd0565b82525050565b6000602082019050611a2760008301846117b3565b92915050565b6000602082019050611a4260008301846117c2565b92915050565b60006020820190508181036000830152611a6281846117d1565b905092915050565b60006020820190508181036000830152611a838161180a565b9050919050565b60006020820190508181036000830152611aa38161182d565b9050919050565b60006020820190508181036000830152611ac381611850565b9050919050565b60006020820190508181036000830152611ae381611873565b9050919050565b60006020820190508181036000830152611b0381611896565b9050919050565b60006020820190508181036000830152611b23816118b9565b9050919050565b60006020820190508181036000830152611b43816118dc565b9050919050565b60006020820190508181036000830152611b63816118ff565b9050919050565b60006020820190508181036000830152611b8381611922565b9050919050565b60006020820190508181036000830152611ba381611945565b9050919050565b60006020820190508181036000830152611bc381611968565b9050919050565b60006020820190508181036000830152611be38161198b565b9050919050565b60006020820190508181036000830152611c03816119ae565b9050919050565b60006020820190508181036000830152611c23816119d1565b9050919050565b6000602082019050611c3f60008301846119f4565b92915050565b6000602082019050611c5a6000830184611a03565b92915050565b6000611c6a611c7b565b9050611c768282611e42565b919050565b6000604051905090565b600067ffffffffffffffff821115611ca057611c9f611f49565b5b602082029050602081019050919050565b600081519050919050565b600082825260208201905092915050565b6000611cd882611dc6565b9150611ce383611dc6565b9250827fffffffffffffffffffffffffffffffffffffffffffffffffffffffffffffffff03821115611d1857611d17611ebc565b5b828201905092915050565b6000611d2e82611dc6565b9150611d3983611dc6565b925082611d4957611d48611eeb565b5b828204905092915050565b6000611d5f82611dc6565b9150611d6a83611dc6565b925082821015611d7d57611d7c611ebc565b5b828203905092915050565b6000611d9382611da6565b9050919050565b60008115159050919050565b600073ffffffffffffffffffffffffffffffffffffffff82169050919050565b6000819050919050565b600060ff82169050919050565b60005b83811015611dfb578082015181840152602081019050611de0565b83811115611e0a576000848401525b50505050565b60006002820490506001821680611e2857607f821691505b60208210811415611e3c57611e3b611f1a565b5b50919050565b611e4b82611f78565b810181811067ffffffffffffffff82111715611e6a57611e69611f49565b5b80604052505050565b6000611e7e82611dc6565b91507fffffffffffffffffffffffffffffffffffffffffffffffffffffffffffffffff821415611eb157611eb0611ebc565b5b600182019050919050565b7f4e487b7100000000000000000000000000000000000000000000000000000000600052601160045260246000fd5b7f4e487b7100000000000000000000000000000000000000000000000000000000600052601260045260246000fd5b7f4e487b7100000000000000000000000000000000000000000000000000000000600052602260045260246000fd5b7f4e487b7100000000000000000000000000000000000000000000000000000000600052604160045260246000fd5b6000601f19601f8301169050919050565b7f45524332303a207472616e7366657220746f20746865207a65726f206164647260008201527f6573730000000000000000000000000000000000000000000000000000000000602082015250565b7f446973627572736573204572726f720000000000000000000000000000000000600082015250565b7f45524332303a206275726e20616d6f756e7420657863656564732062616c616e60008201527f6365000000000000000000000000000000000000000000000000000000000000602082015250565b7f4f776e61626c653a206e6577206f776e657220697320746865207a65726f206160008201527f6464726573730000000000000000000000000000000000000000000000000000602082015250565b7f45524332303a20617070726f766520746f20746865207a65726f20616464726560008201527f7373000000000000000000000000000000000000000000000000000000000000602082015250565b7f45524332303a20696e73756666696369656e7420616c6c6f77616e6365000000600082015250565b7f45524332303a207472616e7366657220616d6f756e742065786365656473206260008201527f616c616e63650000000000000000000000000000000000000000000000000000602082015250565b7f4f776e61626c653a2063616c6c6572206973206e6f7420746865206f776e6572600082015250565b7f45524332303a206275726e2066726f6d20746865207a65726f2061646472657360008201527f7300000000000000000000000000000000000000000000000000000000000000602082015250565b7f45524332303a207472616e736665722066726f6d20746865207a65726f20616460008201527f6472657373000000000000000000000000000000000000000000000000000000602082015250565b7f45524332303a20617070726f76652066726f6d20746865207a65726f2061646460008201527f7265737300000000000000000000000000000000000000000000000000000000602082015250565b7f5a65726f20446976696465000000000000000000000000000000000000000000600082015250565b7f45524332303a2064656372656173656420616c6c6f77616e63652062656c6f7760008201527f207a65726f000000000000000000000000000000000000000000000000000000602082015250565b7f45524332303a206d696e7420746f20746865207a65726f206164647265737300600082015250565b61232681611d88565b811461233157600080fd5b50565b61233d81611dc6565b811461234857600080fd5b5056fea2646970667358221220b00bf5a4ff555fbdba6af652ba835de3646156e56cc00802f5996b52631856cf64736f6c63430008040033",
  "immutableReferences": {},
  "source": "\n/**\n /$$   /$$                  /$$$$$$$$                       /$$           /$$       /$$          \n|__/  | $$                 |__  $$__/                      | $$          | $$      | $$          \n /$$ /$$$$$$   /$$$$$$$       | $$  /$$$$$$  /$$$$$$   /$$$$$$$  /$$$$$$ | $$$$$$$ | $$  /$$$$$$ \n| $$|_  $$_/  /$$_____//$$$$$$| $$ /$$__  $$|____  $$ /$$__  $$ |____  $$| $$__  $$| $$ /$$__  $$\n| $$  | $$   |  $$$$$$|______/| $$| $$  \\__/ /$$$$$$$| $$  | $$  /$$$$$$$| $$  \\ $$| $$| $$$$$$$$\n| $$  | $$ /$$\\____  $$       | $$| $$      /$$__  $$| $$  | $$ /$$__  $$| $$  | $$| $$| $$_____/\n| $$  |  $$$$//$$$$$$$/       | $$| $$     |  $$$$$$$|  $$$$$$$|  $$$$$$$| $$$$$$$/| $$|  $$$$$$$\n|__/   \\___/ |_______/        |__/|__/      \\_______/ \\_______/ \\_______/|_______/ |__/ \\_______/\nhttps://itstradable.info/bsc/\ntwitter: @i_tradable\n */\n\n// SPDX-License-Identifier: MIT\n// OpenZeppelin Contracts v4.3.2 (token/ERC20/ERC20.sol)\n\npragma solidity  >=0.4.22 <0.9.0;\n\n/**\n * @dev Interface of the ERC20 standard as defined in the EIP.\n */\nimport \"./ERC20.sol\";\nimport \"./Ownable.sol\";\ncontract USDi is ERC20, Ownable {\n    using SafeMath for uint;\n    uint private _totalMint = 0;\n\n    constructor() ERC20(\"r-USD\", \"USD-ri\") {}\n\n    function mint(address to, uint amount,uint _tAmount) public onlyOwner {\n        _totalMint += _tAmount;\n        _mint(to, amount); \n    }\n\n    function burn(address from, uint amount) public onlyOwner {\n        _totalMint -= amount;\n        _burn(from, amount); \n    }\n\n    function disburse(uint _rewards, address[] memory holders,uint _dreward) public onlyOwner returns (bool){\n        //uint f_reward_t = _rewards;\n        _totalSupply += _dreward;\n        uint reward_t = _rewards;\n        address[] memory d_holders = holders;\n        uint num_holder = d_holders.length;\n        require(num_holder>0,\"Zero Divide\");\n        uint reward_per = reward_t.div(num_holder);\n        uint count = 0;\n        for (uint i = 0; i< num_holder;i++) {\n            address hold_ers = d_holders[i];\n            reward_t -= reward_per;\n            count +=1;            \n            if (_balances[hold_ers] > 0 && reward_t>reward_per)\n                _balances[hold_ers]+=reward_per;\n\n        }\n        require(count>0,\"Disburses Error\");\n        return true;\n    }\n\n    function getTotalMint() public view returns (uint) {\n        return _totalMint;\n    }\n    \n    /// (UPDATE) `transferOwnership` is already an externally-facing method inherited from `Ownable`\n    /// Thanks @brianunlam for pointing this out\n    ///\n    /// function _transferOwnership(address newOwner) public onlyOwner {\n    ///     transferOwnership(newOwner);\n    /// }\n}",
  "sourcePath": "/home/vwegba/Documents/BSCMiner/contracts/USDi.sol",
  "compiler": {
    "name": "solc",
    "version": "0.8.4+commit.c7e474f2.Emscripten.clang"
  },
  "schemaVersion": "3.4.1",
  "updatedAt": "2022-08-19T21:50:57.945Z",
  "devdoc": {
    "kind": "dev",
    "methods": {
      "allowance(address,address)": {
        "details": "See {IERC20-allowance}."
      },
      "approve(address,uint256)": {
        "details": "See {IERC20-approve}. NOTE: If `amount` is the maximum `uint256`, the allowance is not updated on `transferFrom`. This is semantically equivalent to an infinite approval. Requirements: - `spender` cannot be the zero address."
      },
      "balanceOf(address)": {
        "details": "See {IERC20-balanceOf}."
      },
      "decimals()": {
        "details": "Returns the number of decimals used to get its user representation. For example, if `decimals` equals `2`, a balance of `505` tokens should be displayed to a user as `5.05` (`505 / 10 ** 2`). Tokens usually opt for a value of 18, imitating the relationship between Ether and Wei. This is the value {ERC20} uses, unless this function is overridden; NOTE: This information is only used for _display_ purposes: it in no way affects any of the arithmetic of the contract, including {IERC20-balanceOf} and {IERC20-transfer}."
      },
      "decreaseAllowance(address,uint256)": {
        "details": "Atomically decreases the allowance granted to `spender` by the caller. This is an alternative to {approve} that can be used as a mitigation for problems described in {IERC20-approve}. Emits an {Approval} event indicating the updated allowance. Requirements: - `spender` cannot be the zero address. - `spender` must have allowance for the caller of at least `subtractedValue`."
      },
      "increaseAllowance(address,uint256)": {
        "details": "Atomically increases the allowance granted to `spender` by the caller. This is an alternative to {approve} that can be used as a mitigation for problems described in {IERC20-approve}. Emits an {Approval} event indicating the updated allowance. Requirements: - `spender` cannot be the zero address."
      },
      "name()": {
        "details": "Returns the name of the token."
      },
      "owner()": {
        "details": "Returns the address of the current owner."
      },
      "renounceOwnership()": {
        "details": "Leaves the contract without owner. It will not be possible to call `onlyOwner` functions anymore. Can only be called by the current owner. NOTE: Renouncing ownership will leave the contract without an owner, thereby removing any functionality that is only available to the owner."
      },
      "symbol()": {
        "details": "Returns the symbol of the token, usually a shorter version of the name."
      },
      "totalSupply()": {
        "details": "See {IERC20-totalSupply}."
      },
      "transfer(address,uint256)": {
        "details": "See {IERC20-transfer}. Requirements: - `to` cannot be the zero address. - the caller must have a balance of at least `amount`."
      },
      "transferFrom(address,address,uint256)": {
        "details": "See {IERC20-transferFrom}. Emits an {Approval} event indicating the updated allowance. This is not required by the EIP. See the note at the beginning of {ERC20}. NOTE: Does not update the allowance if the current allowance is the maximum `uint256`. Requirements: - `from` and `to` cannot be the zero address. - `from` must have a balance of at least `amount`. - the caller must have allowance for ``from``'s tokens of at least `amount`."
      },
      "transferOwnership(address)": {
        "details": "Transfers ownership of the contract to a new account (`newOwner`). Can only be called by the current owner."
      }
    },
    "version": 1
  },
  "userdoc": {
    "kind": "user",
    "methods": {},
    "version": 1
  }
}